:10000000FFC0000019C1000017C1000015C10000A9
:1000100013C1000011C100000FC100000DC100009C
:100020000BC1000009C1000007C10000A1C700000A
:1000300003C1000001C10000FFC00000FDC00000BE
:10004000FBC00000F9C00000F7C00000F5C00000D0
:10005000F3C00000F1C00000EFC00000E9C10000E3
:10006000EBC00000E9C00000E7C00000E5C00000F0
:10007000E3C00000E1C00000DFC00000DDC0000000
:10008000DBC00000D9C00000D7C00000D5C0000010
:10009000D3C00000D1C0000028034B0069006B00F2
:1000A000470065006E0020004D00490044004900F3
:1000B000200066006100630074006F007200790028
:1000C000000026034B0069006B00470065006E00CE
:1000D00020005500530042002D004D00490044000F
:1000E00049002000560032000000120110010000FB
:1000F00000081229681901000102000109026500C7
:10010000020100C0320904000000010100000924BE
:1001100001000109000101090401000201030000BE
:100120000724010001410006240201010006240207
:100130000202000924030103010201000924030251
:100140000401010100090502024000050000052527
:10015000010101090581024000050000052501019A
:100160000302030000180341007200640075006977
:10017000006E006F00200055006E006F0000002A26
:1001800003380035003400330039003300310033C8
:1001900000310033003000330035003100330031CE
:1001A0000031003100420031000000120110010254
:1001B000000008032A430001000102DC0109023E9D
:1001C00000020100C0320904000001020201000522
:1001D00024000110042402060524060001070582FC
:1001E000030800FF09040100020A000000070504DB
:1001F00002400001070583024000010403090400D6
:1002000011241FBECFEFD2E0DEBFCDBF11E0A0E0D2
:10021000B1E0EEEEF6E102C005900D92A832B10712
:10022000D9F712E0A8E2B1E001C01D92AC35B107E8
:10023000E1F7B9D10C94750BE3CEFF920F931F93A6
:100240008B019C01F42E9695879577956795FF20F5
:1002500029F060587B47814E9F4F04C0605C7D4B06
:10026000804F9F4FA90198010E94530B21503040AD
:100270003093CD002093CC0086E08093CA00FF200D
:1002800011F480E001C082E08093C80088E180938F
:10029000C900539A5A9A1F910F91FF900895FC013B
:1002A0008FB7F894718360837383628375836483EB
:1002B000640F751F77836683518740871386128684
:1002C0008FBF0895CF93DF93EC01E881F9816083BC
:1002D000888199810196998388832E813F81821735
:1002E000930721F48C819D81998388832FB7F8949B
:1002F0008A859B8501969B878A872FBFDF91CF9147
:100300000895CF93DF93EC01EA81FB813191FB8368
:10031000EA838E819F81E817F90721F48C819D8102
:100320009B838A832FB7F8948A859B8501979B8747
:100330008A872FBF832FDF91CF9108958BB1806380
:100340008F7E8BB908958BB180638F7D8BB90895B3
:10035000FC01208920FF02C05F9808955F9A0895EC
:10036000DF92EF92FF920F931F93FC01818D8130FA
:1003700019F0823021F405C070E3D72E04C0DD24CB
:1003800002C060E2D62E808D823011F488E0D82A37
:10039000828D873031F0883031F0863031F482E060
:1003A00003C084E001C086E0D82A1092C9001092F0
:1003B000C8001092CA00E488F5880689178980E091
:1003C000E81681EEF80680E0080780E0180719F4C7
:1003D00020E130E010C0C801B70196958795779568
:1003E000679560587B47814E9F4FA80197010E94F7
:1003F000530B215030403093CD002093CC00D0924D
:10040000CA0080E0E81681EEF80680E0080780E088
:10041000180711F082E001C080E08093C80088E9ED
:100420008093C9001F910F91FF90EF90DF90089586
:100430001F920F920FB60F9211242F933F934F9359
:100440005F936F937F938F939F93AF93BF93EF933C
:10045000FF936091CE008AE391E034DFFF91EF914A
:10046000BF91AF919F918F917F916F915F914F91CC
:100470003F912F910F900FBE0F901F90189587FFFF
:100480000CC0843F51F0853F41F0893F31F08D3FF2
:1004900021F0803F18F4807F089580E0089580382F
:1004A00069F0803959F0803B49F0803A39F0803D5D
:1004B00029F0803E19F090E0803C09F491E0892F0A
:1004C000089580913801882321F48CE091E00C9408
:1004D000810A08951F9380913801882359F081E0A3
:1004E00061E842E33ED4182F82E060E842E339D469
:1004F000182304C08CE091E0DDD7182F117011F49F
:1005000090E201C090E18BB19095806398239BB9F4
:100510001F91089584B7877F84BF88E10FB6F89450
:1005200080936000109260000FBE90E080E80FB6EC
:10053000F89480936100909361000FBE82E084B9CB
:100540008CE085B983B190E09695879596958795CF
:1005500081708093380193B1969596959695909574
:10056000917090933901882361F0992329F060ED0F
:1005700072E183E190E009C062E17AE780E090E017
:1005800004C060E875E280E090E040E056DE8AB1A9
:1005900080638AB98BB180638BB9DBD484E085BD7D
:1005A0005F9A579A08958F929F92AF92BF92CF927F
:1005B000DF92EF92FF920F931F93DF93CF9300D0C0
:1005C00000D0CDB7DEB7A6DF8BB180638F7D8BB94E
:1005D00080913801882309F495C18AE391E066E4AB
:1005E00071E040E850E05BDE8091C9008068809354
:1005F000C9007894FF24F39492E0E92E5E010894F8
:10060000A11CB11C88E8C82E83E1D82E03E0902EEF
:100610001FE0812E8091340190913501009731F0D7
:100620000197909335018093340101C05C9A8091C9
:10063000360190913701009731F00197909337017F
:100640008093360101C05D9A8BB5843009F055C1A5
:100650002FB7F89480914401909145012FBF892BC9
:1006600009F4F7C08AE391E04CDE182FE0912E01E7
:10067000EE2309F07FC080932A0100912801802F8A
:10068000FEDE0DDF882341F017FD06C000932A012E
:1006900010932B01F0922E0180912A01F0DE813F10
:1006A000B1F1823F90F4803BA9F1813B38F480396D
:1006B00089F1803A79F1803879F52CC0803D39F1A3
:1006C000803E41F1803C41F522C0883F79F0893F6E
:1006D00038F4833FE1F0833FE8F0863FE9F406C059
:1006E0008A3FD0F08D3F10F08E3FB0F08092300105
:1006F00080912A01809331011092320110923301CE
:10070000F0922F0110922E0110922D01A2C0E092C2
:100710002D0102C090922D0140912E01242F30E036
:1007200010912D01812F90E00197281739070CF4C3
:100730008DC080912A01A3DE90E0B4E09595879565
:10074000BA95E1F78093300180912A0180933101BD
:1007500080912B0180933201133029F480912C0178
:100760008093330102C01092330110922E01109237
:100770002D011BC087FF1CC08D3F28F48A3F28F441
:10078000883FB1F402C08E3F98F0812F78DE90E070
:10079000A4E095958795AA95E1F780933001109391
:1007A00031011092320110923301F0922F0151C0A9
:1007B000F0E0E65DFE4F108340912E01242F30E0E3
:1007C00010912D01812F90E00197281739070CF423
:1007D0003DC080912A0153DE90E0F4E09595879525
:1007E000FA95E1F78093300180912A0180933101DD
:1007F00080912B0180933201133029F480912C01D8
:100800008093330102C01092330110922E01109296
:100810002D01F0922F0110912A01812F30DE803BB3
:1008200079F0813B38F4803959F0803A49F08038CA
:1008300051F406C0803D21F0803E11F0803C19F457
:100840001093280106C01092280103C04F5F409307
:100850002E01F092E9008091E80080FF1FC0809196
:100860002F018823D9F010922F0180E391E064E0FA
:1008700070E040E050E023D210923001109231013C
:1008800010923201109233018091E8008E778093AC
:10089000E8005C98D0923501C0923401E092E90002
:1008A0008091E80082FF29C0C50164E070E040E06B
:1008B00050E0B3D19A818091C80085FFFCCF90931E
:1008C000CE009B818091C80085FFFCCF9093CE0025
:1008D0009C818091C80085FFFCCF9093CE005D98ED
:1008E000D0923701C09236018091F200882329F41A
:1008F0008091E8008B778093E80080E091E0C4D697
:100900002FD588CE86EC91E062ED71E040E850E0B2
:10091000C6DC8AE391E066E471E040E850E0BFDCC9
:1009200078948FB7F8942091D0013091D1018FBF86
:100930008091CE019091CF012817390749F08CE0C2
:1009400091E022D5BC0197FD03C086EC91E0BADCB2
:100950008FB7F89420914401309145018FBF211544
:10096000310509F180910D018F708093E90080912C
:10097000E80080FF18C0C9012034310510F08FE372
:1009800090E0182F0EC0E0913C01F0913D018CE009
:1009900091E060816AD51150882329F48AE391E0BF
:1009A000B0DC112381F78091C80085FF13C02FB7F9
:1009B000F8948091D0019091D1012FBF892B51F0F3
:1009C00086EC91E09EDC982F8091C80085FFFCCFDB
:1009D0009093CE008CE091E031D5C2D4A2CFDA0161
:1009E000923089F09330E9F0913009F049C080915C
:1009F0003801882319F4EBEAF1E002C0EAEEF0E0F6
:100A000022E130E041C080913801882329F4EDEBE8
:100A1000F1E02EE330E038C0ECEFF0E025E630E026
:100A200033C0813059F0813028F0823099F08C3D0C
:100A300039F51CC0EBEFF1E084911FC080913801C3
:100A4000882321F0E8E9F0E0849117C0E1E6F1E0C5
:100A5000849113C080913801882321F0E2ECF0E00A
:100A600084910BC0E5E6F1E0849107C080913801E4
:100A7000882331F4EFE7F1E08491282F30E004C0BF
:100A8000E0E0F0E020E030E0ED93FC93C901089550
:100A90009C0140915A0250915B024617570718F487
:100AA000F90190E03CC06115710511F0AB01F8CF80
:100AB0008091E8008E778093E80040E050E0F0CF2E
:100AC0008BB5882309F440C0853009F43FC080917C
:100AD000E80083FD3DC08091E80082FD2FC0809139
:100AE000E80080FF1CC08091F200282F30E007C092
:100AF00081918093F100415050402F5F3F4F41154D
:100B0000510519F02830310598F390E0283031056F
:100B100009F491E08091E8008E778093E800411518
:100B2000510571F6992361F609C08BB5882361F0F0
:100B3000853061F08091E80083FD0AC08091E80073
:100B400082FFF3CF80E0089582E0089583E0089566
:100B500081E008959C0140915A0250915B02461732
:100B6000570718F4F90190E03DC06115710511F0C7
:100B7000AB01F8CF8091E8008E778093E80040E0E9
:100B800050E0F0CF8BB5882309F441C0853009F4DB
:100B900040C08091E80083FD3EC08091E80082FD66
:100BA00030C08091E80080FF1DC08091F200282FA6
:100BB00030E008C084918093F1003196415050405C
:100BC0002F5F3F4F4115510519F02830310590F343
:100BD00090E02830310509F491E08091E8008E77AB
:100BE0008093E8004115510569F6992359F609C02B
:100BF0008BB5882361F0853061F08091E80083FD3A
:100C00000AC08091E80082FFF3CF80E0089582E07F
:100C1000089583E0089581E00895BF92CF92DF9216
:100C2000EF92FF920F931F93CF93DF93182F092F0B
:100C30007B016A0129D1B82E8823B1F5812F902F2D
:100C40009C01E901C114D10439F0F6018081918140
:100C5000E81AF90AC80FD91F00E010E022C08091FD
:100C6000E80085FD16C08091E8008B778093E8004E
:100C700077D3C114D10449F0F60180819181800FAE
:100C8000911F9183808385E010C0FED0882349F0B6
:100C90000CC08091F10089930894E108F1080F5F7E
:100CA0001F4FE114F104D9F68B2DDF91CF911F91E5
:100CB0000F91FF90EF90DF90CF90BF900895BF927B
:100CC000CF92DF92EF92FF920F931F93CF93DF9318
:100CD000182F092F7B016A01D7D0B82E8823B1F5D0
:100CE000812F902F9C01E901C114D10439F0F60144
:100CF00080819181E81AF90AC80FD91F00E010E03D
:100D000022C08091E80085FD16C08091E8008E77B2
:100D10008093E80025D3C114D10449F0F601808105
:100D20009181800F911F9183808385E010C0ACD0AA
:100D3000882349F00CC089918093F1000894E10860
:100D4000F1080F5F1F4FE114F104D9F68B2DDF91ED
:100D5000CF911F910F91FF90EF90DF90CF90BF90B8
:100D60000895382F282F2EC0822F8F708093E9008E
:100D7000231721F4762F942F50E006C07091EC00D9
:100D80009091ED005091F00091FF1BC08091EB001D
:100D90008E7F8093EB008091ED008D7F8093ED003E
:100DA0008091EB0081608093EB007093EC00909356
:100DB000ED005093F0008091EE0087FD02C080E0CE
:100DC00008952F5F253080F23F703093E90081E075
:100DD00008950F931F93CF93DF93062FEC0110E03C
:100DE0002AC09881992329F16B81E981FA812C81AC
:100DF000892F8F70853018F5223010F452E001C031
:100E000056E040E028E030E003C04F5F220F331F80
:100E10002E173F07D0F36295660F660F607C991F0F
:100E20009927991F692B4295407F452B9ADF88238C
:100E300031F01F5F25961017A0F281E001C080E01D
:100E4000DF91CF911F910F910895809154028823D3
:100E50008CF403C08BB58823B1F08091E80082FF49
:100E6000F9CF8091E8008B778093E80008958BB5E7
:100E7000882349F08091E80080FFF9CF8091E80055
:100E80008E778093E80008954091E4005091E5004A
:100E900024E68091EC0080FF23C08091E80080FD73
:100EA0001DC08BB5882311F482E00895853011F4BC
:100EB00083E008958091EB0085FF02C081E00895F2
:100EC0008091E4009091E5008417950711F32223A7
:100ED00011F484E008952150AC01DBCF80E0089547
:100EE0008091E80082FFDDCFF9CF3CD03ED08091E9
:100EF000D8008F778093D8008091D8008068809345
:100F0000D8008091D8008F7D8093D80084E089BD7F
:100F100086E089BD09B400FEFDCF1BBC10925202D1
:100F200080E060E042E01DDF8091E1008E7F8093F1
:100F3000E1008091E20081608093E2008091E20014
:100F400088608093E2008091E0008E7F8093E000D3
:100F50000895E3E6F0E080818E7F808381E08093D6
:100F60005302C3CF1092E20008951092E100089559
:100F70001F920F920FB60F9211242F933F934F930E
:100F80005F936F937F938F939F93AF93BF93EF93F1
:100F9000FF938091E10082FF0AC08091E20082FF0E
:100FA00006C08091E1008B7F8093E100D8D18091D1
:100FB000E10080FF16C08091E20080FF12C08091A6
:100FC000E2008E7F8093E2008091E2008061809356
:100FD000E2008091D80080628093D80019BC1BBCCD
:100FE000B2D98091E10084FF2EC08091E20084FF9D
:100FF0002AC084E089BD86E089BD09B400FEFDCF2A
:101000008091D8008F7D8093D8008091E1008F7E01
:101010008093E1008091E2008F7E8093E2008091D6
:10102000E20081608093E20080915202882311F0F7
:1010300084E007C08091E30087FD02C081E001C029
:1010400083E08BBD7BD98091E10083FF21C080913B
:10105000E20083FF1DC08091E100877F8093E10063
:1010600082E08BBD109252028091E1008E7F8093CE
:10107000E1008091E2008E7F8093E2008091E200A7
:1010800080618093E20080E060E042E06ADE67D148
:10109000FF91EF91BF91AF919F918F917F916F9150
:1010A0005F914F913F912F910F900FBE0F901F9026
:1010B00018951F93DF93CF93CDB7DEB7AC970FB6DC
:1010C000F894DEBF0FBECDBFE4E5F2E08091F10001
:1010D000819322E0EC35F207C9F7F3D98091E8005B
:1010E00083FF25C18091540290915502953009F4F7
:1010F00075C0963040F49130A9F1913070F0933082
:1011000009F015C12FC0983009F4E4C0993009F4F2
:10111000F3C0963009F00BC183C0803811F490E021
:1011200017C0823809F003C1809158028F70853052
:1011300008F0FDC08093E9008091EB0090E025E08D
:10114000969587952A95E1F7982F91701092E9006E
:101150008091E800877F8093E8009093F1001092DF
:10116000F100C3C0882319F0823009F0E0C08F710C
:10117000823009F0DCC080915602882349F5209125
:1011800058022F70822F8150843008F0D0C02093F5
:10119000E9008091EB0080FF1BC0933021F4809127
:1011A000EB00806213C08091EB0080618093EB00C4
:1011B00081E090E002C0880F991F2A95E2F78093A2
:1011C000EA001092EA008091EB0088608093EB00C7
:1011D0001092E9008091E800877F8AC0882309F097
:1011E000A6C0109156021F778091E3008078812B72
:1011F0008093E3008091E800877F8093E80025DEFC
:101200008091E80080FFFCCF8091E30080688093AC
:10121000E300112311F482E001C083E08BBD87C09D
:101220008058823008F083C0809156029091570216
:1012300023E08C3D920709F033C083E08C838AE27F
:101240008B837FB7F894DE0115966EE040E050E0A6
:1012500011E2E62FF0E010935700849140FF03C0A5
:1012600082958F706F5F8F70282F30E08A3018F072
:10127000C901C79602C0C901C0968D939D934F5F67
:101280005F4F4431510529F77FBF8091E800877F88
:101290008093E800CE0103966AE270E0F9DB14C0A7
:1012A0006091580270915902AE014F5F5F4F97DB1A
:1012B000BC01009709F43BC08091E800877F8093D0
:1012C000E80089819A8146DC8091E8008B778093E1
:1012D000E8002DC0803859F58091E800877F809321
:1012E000E800809152028093F1008091E8008E77AF
:1012F0008093E800AADD1BC08823C9F490915602B0
:101300009230A8F48091E800877F8093E800909362
:1013100052029BDD80915202882331F48091E300D8
:1013200087FD02C081E001C084E08BBDD3D88091ED
:10133000E80083FF0AC08091E800877F8093E8007F
:101340008091EB0080628093EB00AC960FB6F8942E
:10135000DEBF0FBECDBFCF91DF911F9108950895DD
:101360001F938BB5882371F01091E9008091EC00F8
:101370001092E9008091E80083FF01C09ADE1F709F
:101380001093E9001F910895FC018BB5843029F575
:1013900084899589A689B7890097A105B105E9F0E7
:1013A00086818F708093E9008091E80082FF15C0EC
:1013B0008091F200882319F42FEF3FEF04C0809151
:1013C000F100282F30E08091F200882341F48091D1
:1013D000E8008B778093E80002C02FEF3FEFC90150
:1013E00008950895FC018BB5843019F58489958999
:1013F000A689B7890097A105B105D9F081818F70C1
:101400008093E9008091F2008823A9F09091E80090
:101410008091E8008E778093E80095FD0CC034DD64
:10142000982F882349F48091E8008E778093E80014
:1014300003C092E001C090E0892F0895FC018BB5B4
:10144000843091F484899589A689B7890097A1058C
:10145000B10551F081818F708093E9008091E8009F
:1014600080FF02C0CF01BECF08951F93FC01162F4D
:101470008BB58430E1F484899589A689B789009772
:10148000A105B105A1F081818F708093E900809161
:10149000E80085FD08C08091E8008E778093E80021
:1014A000F3DC882329F41093F10080E001C082E08E
:1014B0001F910895CF93DF93EC014096FC018BE0E0
:1014C000DF011D928A95E9F782E08C83898783E0AA
:1014D0008E87CE01019661E07CDC882371F0CE011D
:1014E000069661E076DC882341F0CE010B9661E040
:1014F00070DC882319F081E001C080E0DF91CF919A
:101500000895CF93DF93EC018091E80083FFA4C09E
:10151000888190E0209158023091590228173907AC
:1015200009F09AC080915502813269F0823220F42C
:10153000803209F091C03CC0823209F46BC0833222
:1015400009F08AC07BC080915402813A09F084C0BE
:101550008091E800877F8093E8008091E80080FF19
:10156000FCCF8C899D89AE89BF898093F100292F9A
:101570003A2F4B2F55272093F1009D0144275527E3
:101580002093F1008B2F9927AA27BB278093F10086
:10159000888D8093F100898D8093F1008A8D8093EE
:1015A000F1008091E8008E778093E8004EDC54C013
:1015B00080915402813209F04FC08091E800877F0A
:1015C0008093E80004C08BB5882309F445C080915E
:1015D000E80082FFF8CF8091F1009091F100209116
:1015E000F1003091F1008C8B9D8B2E8B3F8B809185
:1015F000F100888F8091F100898F8091F1008A8FAE
:101600008091E8008B778093E8001FDCCE010E9478
:10161000B00122C0809154028132F1F48091E8003F
:10162000877F8093E80011DC8091560290915702E9
:10163000998B888BCE010E94A8010EC08091540224
:10164000813251F48091E800877F8093E800FDDBD0
:10165000CE0160915602C5DEDF91CF910895FC0165
:101660008BB5843011F082E0089581818F70809372
:10167000E9008091F200882331F08091E8008E77B4
:101680008093E80001CC0895FC018BB5843051F4BF
:1016900081818F708093E9008091E80080FF02C013
:1016A000CF01DDCF0895A1E21A2EAA1BBB1BFD01BD
:1016B0000DC0AA1FBB1FEE1FFF1FA217B307E40731
:1016C000F50720F0A21BB30BE40BF50B661F771F89
:1016D000881F991F1A9469F7609570958095909569
:0E16E0009B01AC01BD01CF010895F894FFCF2E
:1016EE000181400000010240000001000083400023
:1016FE00000104400000018208000001000000000B
:08170E000000000000000000D3
:00000001FF
