:100000000CC1000026C1000024C1000022C1000074
:1000100020C100001EC100001CC100001AC1000068
:1000200018C1000016C1000014C1000036C700004E
:1000300010C100000EC100000CC100000AC1000088
:1000400008C1000006C1000004C1000002C1000098
:1000500000C10000FEC00000FCC00000F6C10000AE
:10006000F8C00000F6C00000F4C00000F2C00000BC
:10007000F0C00000EEC00000ECC00000EAC00000CC
:10008000E8C00000E6C00000E4C00000E2C00000DC
:10009000E0C00000DEC0000028034B0069006B00D8
:1000A000470065006E0020004D00490044004900F3
:1000B000200066006100630074006F007200790028
:1000C000000040034B0069006B00470065006E00B4
:1000D00020005500530042002D004D00490044000F
:1000E000490020004200450054004100310020003A
:1000F0004200750069006C0064002D00320036007B
:1001000034000000120110010000000812296819D3
:1001100001000102000109026500020100C032096C
:100120000400000001010000092401000109000190
:10013000010904010002010300000724010001413C
:100140000006240201010006240202020009240321
:100150000103010201000924030204010101000955
:100160000502024000050000052501010109058185
:1001700002400005000005250101030203000018EC
:1001800003410072006400750069006E006F00207A
:100190000055006E006F0000002A0338003500345F
:1001A00000330039003300310033003100330030B8
:1001B000003300350031003300310031003100429E
:1001C00000310000001201100102000008032A4360
:1001D0000001000102DC0109023E00020100C03200
:1001E000090400000102020100052400011004249A
:1001F00002060524060001070582030800FF090422
:100200000100020A00000007050402400001070582
:100210008302400001040309040011241FBECFEF34
:10022000D2E0DEBFCDBF11E0A0E0B1E0E4EDF6E149
:1002300002C005900D92A834B107D9F712E0A8E4E6
:10024000B1E001C01D92A937B107E1F75CD20C946F
:10025000680BD6CEFF920F931F938B019C01F42E57
:100260009695879577956795FF2029F060587B478D
:10027000814E9F4F04C0605C7D4B804F9F4FA90112
:1002800098010E943F0B215030403093CD002093C5
:10029000CC0086E08093CA00FF2011F480E001C00A
:1002A00082E08093C80088E18093C900539A5A9AEB
:1002B0001F910F91FF900895FC018FB7F8947183FF
:1002C00060837383628375836483640F751F778390
:1002D000668351874087138612868FBF0895CF9318
:1002E000DF93EC01E881F98160838881998101962F
:1002F000998388832E813F818217930721F48C8113
:100300009D81998388832FB7F8948A859B85019670
:100310009B878A872FBFDF91CF910895CF93DF937B
:10032000EC01EA81FB813191FB83EA838E819F811D
:10033000E817F90721F48C819D819B838A832FB76D
:10034000F8948A859B8501979B878A872FBF832F87
:10035000DF91CF9108958BB180638F7E8BB9089523
:100360008BB180638F7D8BB90895FC01208920FFBC
:1003700002C05F9808955F9A0895DF92EF92FF920E
:100380000F931F93FC01818D813019F0823021F48D
:1003900005C070E3D72E04C0DD2402C060E2D62E73
:1003A000808D823011F488E0D82A828D873031F038
:1003B000883031F0863031F482E003C084E001C03F
:1003C00086E0D82A1092C9001092C8001092CA0084
:1003D000E488F5880689178980E0E81681EEF8063A
:1003E00080E0080780E0180719F420E130E010C031
:1003F000C801B701969587957795679560587B47B3
:10040000814E9F4FA80197010E943F0B2150304021
:100410003093CD002093CC00D092CA0080E0E81643
:1004200081EEF80680E0080780E0180711F082E00E
:1004300001C080E08093C80088E98093C9001F91C3
:100440000F91FF90EF90DF9008951F920F920FB6DB
:100450000F9211242F933F934F935F936F937F934A
:100460008F939F93AF93BF93EF93FF936091CE00D1
:100470008EE491E034DFFF91EF91BF91AF919F91B6
:100480008F917F916F915F914F913F912F910F903D
:100490000FBE0F901F90189580914C01882319F47E
:1004A0008CE291E0C3C7089580914C01882329F024
:1004B00080E291E00E94290B03C08CE291E08FD78B
:1004C000817011F490E201C090E18BB1909580634E
:1004D00098239BB9089584B7877F84BF88E10FB6BE
:1004E000F89480936000109260000FBE90E080E866
:1004F0000FB6F89480936100909361000FBE82E084
:1005000084B98CE085B983B190E0969587959695EE
:100510008795817080934C0193B1969596959695A9
:100520009095917090934D01882361F0992329F063
:1005300060ED72E183E190E009C062E17AE780E07A
:1005400090E004C060E875E280E090E040E082DE88
:100550008AB180638AB98BB180638BB98FD484E010
:1005600085BD5F9A579A0895CF93DF93EC0163306E
:1005700088F4862F90E023E030E0281B390B219689
:10058000AE01480F591F2197CA0160E070E0A90130
:100590000E94610B80E291E0BE010E940B0B80E2A1
:1005A00091E00E94E70A5D9888EB9BE090934B01F5
:1005B00080934A01DF91CF910895982F803F21F4D5
:1005C00081E08093DE0141C0873F29F41092DA0177
:1005D0001092DE0169C0845F823008F492C0993FB6
:1005E00009F48FC09D3F09F48CC0983F10F4963FEA
:1005F00051F48FE08093DF019093E0018FED91E063
:1006000061E0B2DF7CC0913F61F41092DA0182E0D8
:100610008093DF019093E00181E08093DD0180E031
:1006200008958091DD01882349F09093E1018FEDD9
:1006300091E062E099DF1092DD0161C0923F51F4D8
:1006400083E08093DF018093DB011092DC01109244
:10065000DA012AC0933F11F482E0F3CF97FF15C06F
:10066000E92FF0E0B4E0F595E795BA95E1F7E0936E
:10067000DF01EE0FFF1FE050FF4F80818093DB0111
:100680001092DC019093DA010FC08091DC01882385
:1006900059F48091DE01882339F48091DA018823AE
:1006A00081F181E08093DC012091DC01E22FF0E018
:1006B000E052FE4F9083622F6F5F6093DC01809168
:1006C000DE01882331F06330E1F484E08093DF01C0
:1006D00011C0973F59F42B5F2093DF018FED91E01C
:1006E00043DF1092DC011092DA0109C08091DB0136
:1006F000681739F48FED91E037DF1092DC0181E06B
:10070000089580E00895EF92FF920F931F93DF9377
:10071000CF9300D000D0CDB7DEB7DDDE8BB18063E4
:100720008F7D8BB980914C01882309F480C08EE4C1
:1007300091E06AE571E040E850E0BEDD8091C900DB
:1007400080688093C90078947E010894E11CF11CB4
:1007500008EB1BE08091480190914901009731F02E
:100760000197909349018093480101C05C9A809160
:100770004A0190914B01009731F0019790934B0102
:1007800080934A0101C05D9A8BB5843009F04AC05C
:100790002FB7F89480915801909159012FBF892B60
:1007A00091F18EE491E0BADD08DF2DC0E981F0E03F
:1007B000EF70F070EE0FFF1FE050FF4FE08180916F
:1007C000C80085FF20C0EE23C9F09A818091C8003F
:1007D00085FFFCCF9093CE00E23080F09B8180912A
:1007E000C80085FFFCCF9093CE00E33039F49C81A4
:1007F0008091C80085FFFCCF9093CE005C98109349
:1008000049010093480180E291E0B701BDD68823F9
:1008100069F68091F200882329F48091E8008B77B3
:100820008093E80080E291E0E7D62FD593CF83EE66
:1008300091E06FEE71E040E850E03EDD8EE491E043
:100840006AE571E040E850E037DD78948FB7F894BE
:100850002091ED013091EE018FBF8091EB019091DD
:10086000EC012817390749F08CE291E022D5BC0150
:1008700097FD03C083EE91E032DD8FB7F8942091AD
:100880005801309159018FBF2115310509F180912F
:100890002D018F708093E9008091E80080FF18C0DF
:1008A000C9012034310510F08FE390E0182F0EC0FD
:1008B000E0915001F09151018CE291E060816AD5A4
:1008C0001150882329F48EE491E028DD112381F76B
:1008D0008091C80085FF13C02FB7F8948091ED0177
:1008E0009091EE012FBF892B51F083EE91E016DD40
:1008F000982F8091C80085FFFCCF9093CE008CE2AA
:1009000091E031D5C2D4A2CFDA01923089F0933090
:10091000E9F0913009F049C080914C01882319F425
:10092000E5ECF1E002C0E4E0F1E022E130E041C0BA
:1009300080914C01882329F4E7EDF1E02EE330E0CB
:1009400038C0E6E1F1E025E630E033C0813059F00F
:10095000813028F0823099F08C3D39F51CC0E5E1FA
:10096000F2E084911FC080914C01882321F0E8E9D6
:10097000F0E0849117C0EBE7F1E0849113C080911F
:100980004C01882321F0E2ECF0E084910BC0EFE70A
:10099000F1E0849107C080914C01882331F4E9E9AA
:1009A000F1E08491282F30E004C0E0E0F0E020E0A6
:1009B00030E0ED93FC93C90108959C0140917702CA
:1009C000509178024617570718F4F90190E03CC09F
:1009D0006115710511F0AB01F8CF8091E8008E77B9
:1009E0008093E80040E050E0F0CF8BB5882309F415
:1009F00040C0853009F43FC08091E80083FD3DC0D0
:100A00008091E80082FD2FC08091E80080FF1CC02B
:100A10008091F200282F30E007C081918093F1008F
:100A2000415050402F5F3F4F4115510519F028307C
:100A3000310598F390E02830310509F491E0809178
:100A4000E8008E778093E8004115510571F69923EF
:100A500061F609C08BB5882361F0853061F0809123
:100A6000E80083FD0AC08091E80082FFF3CF80E0B8
:100A7000089582E0089583E0089581E008959C013F
:100A800040917702509178024617570718F4F90100
:100A900090E03DC06115710511F0AB01F8CF809178
:100AA000E8008E778093E80040E050E0F0CF8BB50F
:100AB000882309F441C0853009F440C08091E800E2
:100AC00083FD3EC08091E80082FD30C08091E80047
:100AD00080FF1DC08091F200282F30E008C0849173
:100AE0008093F1003196415050402F5F3F4F4115A8
:100AF000510519F02830310590F390E02830310588
:100B000009F491E08091E8008E778093E800411528
:100B1000510569F6992359F609C08BB5882361F010
:100B2000853061F08091E80083FD0AC08091E80083
:100B300082FFF3CF80E0089582E0089583E0089576
:100B400081E00895BF92CF92DF92EF92FF920F93D0
:100B50001F93CF93DF93182F092F7B016A0129D1AF
:100B6000B82E8823B1F5812F902F9C01E901C11483
:100B7000D10439F0F60180819181E81AF90AC80F91
:100B8000D91F00E010E022C08091E80085FD16C06A
:100B90008091E8008B778093E80077D3C114D1046B
:100BA00049F0F60180819181800F911F91838083AC
:100BB00085E010C0FED0882349F00CC08091F10080
:100BC00089930894E108F1080F5F1F4FE114F104C5
:100BD000D9F68B2DDF91CF911F910F91FF90EF9060
:100BE000DF90CF90BF900895BF92CF92DF92EF92A7
:100BF000FF920F931F93CF93DF93182F092F7B0141
:100C00006A01D7D0B82E8823B1F5812F902F9C018F
:100C1000E901C114D10439F0F60180819181E81A0B
:100C2000F90AC80FD91F00E010E022C08091E80047
:100C300085FD16C08091E8008E778093E80025D36B
:100C4000C114D10449F0F60180819181800F911F78
:100C50009183808385E010C0ACD0882349F00CC01C
:100C600089918093F1000894E108F1080F5F1F4F0C
:100C7000E114F104D9F68B2DDF91CF911F910F91E3
:100C8000FF90EF90DF90CF90BF900895382F282FDE
:100C90002EC0822F8F708093E900231721F4762FC6
:100CA000942F50E006C07091EC009091ED005091AF
:100CB000F00091FF1BC08091EB008E7F8093EB00D2
:100CC0008091ED008D7F8093ED008091EB0081603D
:100CD0008093EB007093EC009093ED005093F00044
:100CE0008091EE0087FD02C080E008952F5F2530DF
:100CF00080F23F703093E90081E008950F931F93D5
:100D0000CF93DF93062FEC0110E02AC0988199233E
:100D100029F16B81E981FA812C81892F8F708530CF
:100D200018F5223010F452E001C056E040E028E00F
:100D300030E003C04F5F220F331F2E173F07D0F361
:100D40006295660F660F607C991F9927991F692B22
:100D50004295407F452B9ADF882331F01F5F25960F
:100D60001017A0F281E001C080E0DF91CF911F91C8
:100D70000F9108958091710288238CF403C08BB584
:100D80008823B1F08091E80082FFF9CF8091E800DC
:100D90008B778093E80008958BB5882349F0809184
:100DA000E80080FFF9CF8091E8008E778093E8001B
:100DB00008954091E4005091E50024E68091EC0014
:100DC00080FF23C08091E80080FD1DC08BB5882383
:100DD00011F482E00895853011F483E00895809144
:100DE000EB0085FF02C081E008958091E4009091BE
:100DF000E5008417950711F3222311F484E0089588
:100E00002150AC01DBCF80E008958091E80082FFA3
:100E1000DDCFF9CF3CD03ED08091D8008F77809342
:100E2000D8008091D80080688093D8008091D80045
:100E30008F7D8093D80084E089BD86E089BD09B4A8
:100E400000FEFDCF1BBC10926F0280E060E042E02C
:100E50001DDF8091E1008E7F8093E1008091E200B0
:100E600081608093E2008091E20088608093E200DC
:100E70008091E0008E7F8093E0000895E3E6F0E04B
:100E800080818E7F808381E080937002C3CF109237
:100E9000E20008951092E10008951F920F920FB69C
:100EA0000F9211242F933F934F935F936F937F93F0
:100EB0008F939F93AF93BF93EF93FF938091E10044
:100EC00082FF0AC08091E20082FF06C08091E100AB
:100ED0008B7F8093E100D8D18091E10080FF16C024
:100EE0008091E20080FF12C08091E2008E7F8093AB
:100EF000E2008091E20080618093E2008091D8005E
:100F000080628093D80019BC1BBC2ADA8091E10072
:100F100084FF2EC08091E20084FF2AC084E089BD56
:100F200086E089BD09B400FEFDCF8091D8008F7D99
:100F30008093D8008091E1008F7E8093E1008091C2
:100F4000E2008F7E8093E2008091E20081608093D6
:100F5000E20080916F02882311F084E007C0809145
:100F6000E30087FD02C081E001C083E08BBDF3D9BF
:100F70008091E10083FF21C08091E20083FF1DC0CA
:100F80008091E100877F8093E10082E08BBD109229
:100F90006F028091E1008E7F8093E1008091E200FA
:100FA0008E7F8093E2008091E20080618093E20076
:100FB00080E060E042E06ADE67D1FF91EF91BF918F
:100FC000AF919F918F917F916F915F914F913F91E1
:100FD0002F910F900FBE0F901F9018951F93DF93C6
:100FE000CF93CDB7DEB7AC970FB6F894DEBF0FBE88
:100FF000CDBFE1E7F2E08091F100819322E0E93793
:10100000F207C9F749DA8091E80083FF25C1809192
:10101000710290917202953009F475C0963040F4D7
:101020009130A9F1913070F0933009F015C12FC0C3
:10103000983009F4E4C0993009F4F3C0963009F00F
:101040000BC183C0803811F490E017C0823809F0DA
:1010500003C1809175028F70853008F0FDC08093C8
:10106000E9008091EB0090E025E0969587952A9520
:10107000E1F7982F91701092E9008091E800877F46
:101080008093E8009093F1001092F100C3C0882390
:1010900019F0823009F0E0C08F71823009F0DCC0B5
:1010A00080917302882349F5209175022F70822F59
:1010B0008150843008F0D0C02093E9008091EB008B
:1010C00080FF1BC0933021F48091EB00806213C03D
:1010D0008091EB0080618093EB0081E090E002C0A2
:1010E000880F991F2A95E2F78093EA001092EA0090
:1010F0008091EB0088608093EB001092E900809172
:10110000E800877F8AC0882309F0A6C01091730287
:101110001F778091E3008078812B8093E30080919A
:10112000E800877F8093E80025DE8091E80080FF5B
:10113000FCCF8091E30080688093E300112311F4D9
:1011400082E001C083E08BBD87C08058823008F008
:1011500083C0809173029091740223E08C3D9207CA
:1011600009F033C083E08C838AE28B837FB7F894E5
:10117000DE0115966EE040E050E011E2E62FF0E06F
:1011800010935700849140FF03C082958F706F5F6A
:101190008F70282F30E08A3018F0C901C79602C03E
:1011A000C901C0968D939D934F5F5F4F44315105A8
:1011B00029F77FBF8091E800877F8093E800CE0108
:1011C00003966AE270E0F9DB14C0609175027091D9
:1011D0007602AE014F5F5F4F97DBBC01009709F4C9
:1011E0003BC08091E800877F8093E80089819A81E5
:1011F00046DC8091E8008B778093E8002DC0803832
:1012000059F58091E800877F8093E80080916F0214
:101210008093F1008091E8008E778093E800AADD4A
:101220001BC08823C9F4909173029230A8F4809176
:10123000E800877F8093E80090936F029BDD8091A8
:101240006F02882331F48091E30087FD02C081E0C2
:1012500001C084E08BBD28D98091E80083FF0AC0DB
:101260008091E800877F8093E8008091EB008062A6
:101270008093EB00AC960FB6F894DEBF0FBECDBFE7
:10128000CF91DF911F91089508951F938BB5882307
:1012900071F01091E9008091EC001092E9008091CA
:1012A000E80083FF01C09ADE1F701093E9001F91D0
:1012B0000895FC018BB5843029F584899589A68928
:1012C000B7890097A105B105E9F086818F708093F9
:1012D000E9008091E80082FF15C08091F200882328
:1012E00019F42FEF3FEF04C08091F100282F30E078
:1012F0008091F200882341F48091E8008B778093FD
:10130000E80002C02FEF3FEFC90108950895FC01E6
:101310008BB5843019F584899589A689B78900979A
:10132000A105B105D9F081818F708093E90080918A
:10133000F2008823A9F09091E8008091E8008E7770
:101340008093E80095FD0CC034DD982F882349F484
:101350008091E8008E778093E80003C092E001C09E
:1013600090E0892F0895FC018BB5843091F4848935
:101370009589A689B7890097A105B10551F08181AA
:101380008F708093E9008091E80080FF02C0CF0158
:10139000BECF08951F93FC01162F8BB58430E1F466
:1013A00084899589A689B7890097A105B105A1F01F
:1013B00081818F708093E9008091E80085FD08C0ED
:1013C0008091E8008E778093E800F3DC882329F48D
:1013D0001093F10080E001C082E01F910895CF9347
:1013E000DF93EC014096FC018BE0DF011D928A95B2
:1013F000E9F782E08C83898783E08E87CE010196AE
:1014000061E07CDC882371F0CE01069661E076DC39
:10141000882341F0CE010B9661E070DC882319F03F
:1014200081E001C080E0DF91CF910895CF93DF93F9
:10143000EC018091E80083FFA4C0888190E02091B6
:101440007502309176022817390709F09AC0809109
:101450007202813269F0823220F4803209F091C048
:101460003CC0823209F46BC0833209F08AC07BC071
:1014700080917102813A09F084C08091E800877FF1
:101480008093E8008091E80080FFFCCF8C899D89E3
:10149000AE89BF898093F100292F3A2F4B2F552712
:1014A0002093F1009D01442755272093F1008B2FB5
:1014B0009927AA27BB278093F100888D8093F1009C
:1014C000898D8093F1008A8D8093F1008091E800EE
:1014D0008E778093E8004EDC54C080917102813297
:1014E00009F04FC08091E800877F8093E80004C036
:1014F0008BB5882309F445C08091E80082FFF8CFBE
:101500008091F1009091F1002091F1003091F10073
:101510008C8B9D8B2E8B3F8B8091F100888F8091DF
:10152000F100898F8091F1008A8F8091E8008B779C
:101530008093E8001FDCCE010E94BD0122C0809193
:1015400071028132F1F48091E800877F8093E80096
:1015500011DC8091730290917402998B888BCE017B
:101560000E94B5010EC080917102813251F48091C8
:10157000E800877F8093E800FDDBCE016091730275
:10158000C5DEDF91CF910895FC018BB58430E9F47D
:1015900086818F708093E9008091E80082FF15C0FA
:1015A0008091E80085FF11C0CB0164E070E040E06D
:1015B00050E0C8DA8091E80085FD05C08091E80020
:1015C0008B778093E80081E0089580E00895FC0126
:1015D0008BB5843011F082E0089581818F70809303
:1015E000E9008091F200882331F08091E8008E7745
:1015F0008093E800DECB0895FC018BB5843051F474
:1016000081818F708093E9008091E80080FF02C0A3
:10161000CF01DDCF0895FC018BB5843011F092E04D
:1016200016C081818F708093E900CB0164E070E087
:1016300040E050E0D9DA982F882349F48091E800FF
:1016400085FD05C08091E8008E778093E800892FA2
:101650000895CF93DF93EC011B8682E08C8389870A
:10166000CE01019661E04ADB882331F0CE01069677
:1016700061E044DB811181E0DF91CF910895A1E227
:101680001A2EAA1BBB1BFD010DC0AA1FBB1FEE1FFC
:10169000FF1FA217B307E407F50720F0A21BB30B47
:1016A000E40BF50B661F771F881F991F1A9469F7C3
:1016B00060957095809590959B01AC01BD01CF011F
:1016C0000895DC0101C06D9341505040E0F708954A
:0416D000F894FFCFBC
:1016D40000000000020003000300010002000300F8
:1016E40003000300030003000200020003000100E2
:1016F400018140000001024000000100008340001D
:101704000001044000000182080000010000000004
:081714000000000000000000CD
:00000001FF
