:10000000EEC0000013C1000011C100000FC10000CC
:100010000DC100000BC1000009C1000007C10000B4
:1000200005C1000003C1000001C100000C948E0A4C
:10003000FDC00000FBC00000F9C00000F7C00000D8
:10004000F5C00000F3C00000F1C00000EFC00000E8
:10005000EDC00000EBC00000E9C000003AC50000A0
:10006000E5C00000E3C00000E1C00000DFC0000008
:10007000DDC000000403090409023E00020100C0C3
:1000800032090400000102020100052400011004ED
:100090002402060524060001070582030800FF0963
:1000A000040100020A0000000705040240000107E5
:1000B00005830240000112011001020000084123E3
:1000C000010001000102DC012A0335003500370080
:1000D000330032003300320033003400330030008C
:1000E000330035003100370031003800310038006E
:1000F00030000000180341007200640075006900C0
:100100006E006F00200055006E006F00000032038B
:10011000410072006400750069006E006F002000ED
:1001200028007700770077002E00610072006400DD
:10013000750069006E006F002E00630063002900E7
:10014000000009026500020100C03209040000003D
:100150000101000009240100010900010109040155
:1001600000020103000007240100014100062402EF
:100170000101000624020202000924030103010216
:100180000100092403020401010100090502021013
:100190000000000005250101010905810210000091
:1001A00000000525010103300354006800650020AC
:1001B000004B0069006B00470065006E0020004D99
:1001C000004900440049002000660061006300749B
:1001D000006F00720079000000009405970511245B
:1001E0001FBECFEFD2E0DEBFCDBF11E0A0E0B1E097
:1001F000E2EBF0E202C005900D92A438B107D9F706
:1002000022E0A4E8B1E001C01D92AD36B207E1F7EB
:1002100010E0CEEED0E004C02197FE010E94BA0E9D
:10022000CD3ED107C9F716D30C944D10E9CE9BB142
:100230008095906389238BB90895FC018FB7F8945A
:10024000718360837383628375836483640F751F16
:100250007783668351874087138612868FBF089500
:10026000FC01A081B1816C93808191810196918381
:100270008083268137818217930721F484819581B9
:10028000918380832FB7F894828593850196938715
:1002900082872FBF0895FC01A281B3818D91B38322
:1002A000A28326813781A217B30721F424813581E7
:1002B000338322839FB7F8942285338521503109F7
:1002C000338722879FBF0895BC018BE191E00E9494
:1002D000200E8BE191E00E94410E5C9888EB9BE040
:1002E0009093EC018093EB0108954AE450E060E0C4
:1002F00070E086E891E00E941E1043E050E061E566
:1003000071E086E891E00E940110892B59F48091F8
:100310008901813039F480918A0190918B018A386A
:100320009240D9F18AE4E6E8F1E0DF011D928A9576
:10033000E9F78DE494E4ABE4809386019093870120
:10034000A093880181E0809389018AE892E09093EC
:100350008B0180938A0182E199E290938D018093D1
:100360008C0187E699E190938F0180938E018EE254
:100370008093900193E090939101E5E5F1E0A2E98B
:10038000B1E001900D928A95E1F74AE450E060E017
:1003900070E086E891E00E94361080918C01909187
:1003A0008D019093300180932F0180918E01909167
:1003B0008F01909332018093310180E991E0909315
:1003C000850180938401089584B7877F84BF0FB629
:1003D000F894A895809160008861809360001092E5
:1003E00060000FBE90E080E80FB6F8948093610043
:1003F000909361000FBE82E084B98CE085B983B12F
:1004000082FB882780F98093EA018823F9F08FE145
:1004100090E09093CD008093CC0086E08093CA005A
:100420001092C80088E18093C900539A5A9A6FEFDE
:1004300082ED91E078D46EEF82ED91E077D440E0E8
:1004400050E061E082ED91E080D410C087E690E05A
:100450009093CD008093CC0086E08093CA001092E8
:10046000C80088E18093C900539A5A9A8AB1806380
:100470008AB98BB180638BB90E947F0A84E085BD05
:100480005F9A579A089580E1D2CE80E2D0CE8091D3
:10049000EA01882329F08BE191E00E94090E04C053
:1004A00080E091E00E949E0C811102C080E201C0B8
:1004B00080E1BDCE8091EA01811104C080E091E02D
:1004C0000C94580D0895FC01808980FF02C05F984C
:1004D00008955F9A08950F931F93CF938C01FC01A9
:1004E000818D813021F0823021F4C0E203C0C0E36D
:1004F00001C0C0E0F801808D823009F4C860F801C5
:10050000828D873031F0883031F0863029F4C26036
:1005100003C0C46001C0C6601092C9001092C80038
:100520001092CA00F8012489358946895789211516
:10053000F1EE3F074105510589F0DA01C901B69591
:10054000A79597958795BC01CD0160587B47814E53
:100550009F4F0E94980E2150310902C020E130E0E7
:100560003093CD002093CC00C093CA00F801848959
:100570009589A689B7898115914EA105B10511F01C
:1005800082E001C080E08093C80088E98093C900C0
:10059000CF911F910F910895FF920F931F93CF93C7
:1005A000DF9300D000D01F92CDB7DEB78C0190D37F
:1005B000F82EC80162D3282F19821A821B821C824E
:1005C000C8012D8378D34F2D50E0BC01CE01029697
:1005D0000E940E102D81233011F48FE013C02130C2
:1005E00059F4C80168D3FC01808190E024E095951E
:1005F00087952A95E1F706C0223051F4F1E0FF1209
:1006000003C085E0898301C0F982CE0101965CDEDA
:100610000F900F900F900F900F90DF91CF911F913F
:100620000F91FF9008951F93CF93DF93EC0178D340
:10063000182F873F21F0CE011AD3882359F18091DA
:10064000F601E1E0E80FE093F601F0E0EE50FE4F36
:1006500097EF90838B5F8093F20182EF91E034DE1D
:100660001092F6011092F2011092F3011092F4012F
:100670001092F5018091F101882321F090913F02C1
:1006800091115DC01092F1011092F0011092EF01F2
:1006900010923F02CE01E8D2882309F4D7C080919E
:1006A000F6018F5F8093F601E82FF0E0EE50FE4FE9
:1006B00010832091EF013091F001F901E15CFE4FD0
:1006C00040819091F101141711F0992301F19923C0
:1006D00061F0E0913F02EF31F0F4EF5FE0933F0211
:1006E000F0E0E15CFD4F108316C02F5F3F4F309369
:1006F000F0012093EF012330310530F091E0909329
:10070000F10110923F0207C01092F10104C0109253
:10071000F0011092EF01833009F098C084E08093DB
:10072000F20182EF91E0D0DD1092F6011092F20119
:100730001092F3011092F4011092F50187C080919C
:1007400040028B3081F08C3099F18A3009F09ACFD9
:1007500099E088E10FB6F894A895809360000FBEE9
:1007600090936000FFCF292F30E0203231050CF04C
:1007700089CF8EE3E2E9F1E0DF011D928A95E9F786
:10078000DF0161E472E0FB0142E0461B8E2F861B15
:10079000242F2E0F921738F0219127FD73CF30E0D0
:1007A0002D933D93F3CF880F8E5F8093900145C0CA
:1007B000993009F067CF8091410290E09C01322F7F
:1007C00022273295307F90914202892F90E0982F16
:1007D0008827820F931F2091430230E054E0220FBC
:1007E000331F5A95E1F7820F931F20914402820F25
:1007F000911D90938D0180938C012091450230E0F2
:10080000322F22273295307F8091460290E0982F38
:100810008827280F391F4091470250E0E4E0440F39
:10082000551FEA95E1F7240F351F80914802280FE4
:10083000311D30938F0120938E014AE450E060E037
:1008400070E086E891E00E9436101CCFDF91CF91D6
:100850001F910895CF93DF9300D000D0CDB7DEB7BE
:1008600044DDB2DD80E2E3DC8091EA0140E250E069
:1008700063E172E0882309F4C0C083E392E0DDDC29
:1008800040E150E067EF71E087E092E0D6DC109243
:10089000C90088E98093C9008EE085B9789408EB97
:1008A0001BE08091ED019091EE01009731F00197EE
:1008B0009093EE018093ED0101C05D9A8091EB0170
:1008C0009091EC01009731F001979093EC018093A7
:1008D000EB0101C05C9A8BB5843059F52FB7F894C1
:1008E00080911102909112022FBF892B11F187E0A4
:1008F00092E0D1DC682F82ED91E073D2882321F061
:1009000082ED91E049DE15C082ED91E0B3D18823FC
:1009100081F082ED91E0A8D18111D7C082ED91E004
:10092000FFD1873F09F4D1C082ED91E0A0D18111C0
:10093000CCC02FB7F89480913D0290913E022FBF1A
:10094000892B91F08091C80085FF0EC083E392E06F
:10095000A2DC9091C80095FFFCCF8093CE005D98FB
:100960001093EE010093ED0180913B0290913C02C7
:100970004FB7F89420913D0230913E024FBF821B49
:10098000930B0497A0F1BE016F5F7F4F8BE191E065
:100990000E94640E882359F189818F708C3070F425
:1009A0008730C8F4853028F48330A8F4823069F0A9
:1009B0001EC0853041F0863041F019C08E3059F0AC
:1009C00020F08F30A1F46A810FC06A8183E392E046
:1009D00047DC6B8109C06A8183E392E041DC6B8173
:1009E00083E392E03DDC6C8183E392E039DC8BE1D0
:1009F00091E00E94550E89D754CF83E392E01DDC2D
:100A000040E150E067EF71E087E092E016DC789417
:100A10008FB7F89420913D0230913E028FBF8091B4
:100A20003B0290913C022817390751F080E091E099
:100A30000E942B0D97FD04C0682F83E392E010DC29
:100A40002FB7F89480911102909112022FBF009756
:100A500029F48091C80085FF33C020C02091010196
:100A60002F702093E9002091E80020FFF2CF80341E
:100A7000910510F08FE390E0182FE0910902F091BA
:100A80000A02608180E091E07ED711508111E1CFB0
:100A900087E092E000DC1111F0CFDBCF2FB7F894A4
:100AA00080913D0290913E022FBF892B49F083E354
:100AB00092E0F1DB9091C80095FFFCCF8093CE00CF
:100AC00080E091E0B3D721D7A3CF82ED91E0ABDDF9
:100AD00030CF1F920F920FB60F9211242F933F9396
:100AE0004F935F936F937F938F939F93AF93BF9336
:100AF000EF93FF938091CE008093D0016091D0015D
:100B000087E092E0ADDBFF91EF91BF91AF919F91B4
:100B10008F917F916F915F914F913F912F910F90A6
:100B20000FBE0F901F90189582ED91E084C082ED6A
:100B300091E053C1D9011C92292F3327223031056E
:100B400099F023303105C9F02130310509F06BC02F
:100B50008091EA01882309F45CC082E08C9382E1F1
:100B600090E0E7E2F1E063C08091EA01811156C0B4
:100B70008EE390E0E8E7F0E05AC0992781309105D4
:100B800099F05CF4892B09F04EC0E4E7F0E0E491C1
:100B90008E2F90E0E4E7F0E04AC082309105C1F08A
:100BA0008C3D910551F13FC08091EA01882341F0CD
:100BB000E7EAF1E0E4918E2F90E0E7EAF1E037C058
:100BC000EEE0F1E0E4918E2F90E0EEE0F1E02FC056
:100BD0008091EA01882349F0E0918401F091850138
:100BE000808190E022E02C9322C0E4EFF0E0E491D9
:100BF0008E2F90E0E4EFF0E01AC08091EA018111BD
:100C000012C0E8ECF0E0E4918E2F90E0E8ECF0E028
:100C10000EC082E190E0E6EBF0E009C085E690E0EE
:100C2000E2E4F1E004C080E090E0E0E0F0E0DA012E
:100C3000ED93FC930895FC011482158216821782AD
:100C40001086118612861386148615868FEF868786
:100C50001786108A128A118A8FEF9FEF948B838BED
:100C6000168A158A178A0895FC0185810895FC016A
:100C700086810895FC0187810895FC018785089588
:100C8000683FA8F4603F30F0E62FEF70F0E0E75BDC
:100C9000FE4F0BC067FF0DC0E62FF0E084E0F59536
:100CA000E7958A95E1F7E65CFE4F8081089581E043
:100CB000089580E00895FC012785233019F0243041
:100CC00019F0089503960895FC0181899289089589
:100CD000DC011F962C911F97243019F455968C91A6
:100CE00008952330C9F0213061F4E5DFDC01EC9197
:100CF000F0E084E0F595E7958A95E1F7E65CFE4F34
:100D000009C0223059F4D7DFDC01EC91EF70F0E03C
:100D1000E75BFE4F8081089581E0089580E00895AB
:100D2000FC0180850895FC0166870895FC016E3FF3
:100D300031F4638782E784878BEB858708956D3F65
:100D400019F413861486158608950F931F93CF9375
:100D5000DF93EC018A01662351F157FF02C010E0D6
:100D600036C089899A89009761F02F89222349F03A
:100D70000E94690F1C8A1B8A1E8A1D8A1A8A198A78
:100D80001F8A0115110519F41C8A1B8A0CC061E029
:100D900070E0C801F5D79A8B898B892B01F31C8BE6
:100DA0000B8B1E8A1D8A81E08F8B11E010C0898910
:100DB0009A890097A1F21F89112389F20E94690F75
:100DC0001A8A198A1C8A1B8A1E8A1D8A1F8A812FE9
:100DD000DF91CF911F910F9108954FEF5FEF60E08A
:100DE000B4CF0F931F93CF93DF93EC01162F888519
:100DF000898768871F828E8181111E8217FF7BC0C1
:100E0000183FC8F08D8590E0212F30E02095309577
:100E10002F70332702C0959587952A95E2F7817048
:100E20009927282F21702F83892B09F4A3C083E0F1
:100E30008F871B839DC01A86188A1C828D81882308
:100E400099F01D82173F71F41E8284E08F870F890D
:100E50000F83002309F48FC08D899E89892B09F4A3
:100E600089C086C081E08E83103F41F481E08D838C
:100E70001E8A1D8A84E0888B8F895DC0103FD8F45C
:100E800081E0888B8E858F3F41F0212F2F7030E0DD
:100E900090E02817390709F06DC08B8590E0412F4D
:100EA00050E024E0559547952A95E1F72FE030E092
:100EB000241B350B0AC082E0888B8C8590E027E0EC
:100EC00030E0412F4F70241B310902C09595879562
:100ED0002A95E2F781708F830F81002309F44AC0BD
:100EE000612FCE01CDDE188381508C83811142C0E9
:100EF00088898F8740C08D818823F9F08F89882366
:100F0000C9F12B893C8921153105A1F08D899E8974
:100F10008217930721F481E08E831D822BC02989DB
:100F20003A89AC014F5F5F4F5E8B4D8BF901E80F43
:100F3000F91F108381E08F831DC08A85882331F0DB
:100F40006881CE019DDE81508C831A868C81882336
:100F500089F0FE01E81BF109138381508C8391E035
:100F60009F83811107C088898F87813009F48A8720
:100F700001E001C000E0802FDF91CF911F910F9120
:100F80000895CF92DF92EF92FF920F931F93CF932A
:100F9000DF93EC018B017A014DD2811133C0E11452
:100FA000F10439F0F70180819181081B190BC80FFA
:100FB000D91FC12CD12C0115110519F18091E80020
:100FC00085FD16C08091E8008E778093E8009DD45F
:100FD000E114F10449F0F70180819181C80ED91E16
:100FE000D182C08285E00EC025D2882321F30AC0B9
:100FF00089918093F10001501109FFEFCF1ADF0AA8
:10100000DACF80E0DF91CF911F910F91FF90EF90A9
:10101000DF90CF900895CF92DF92EF92FF920F93DF
:101020001F93CF93DF93EC018B017A0103D28111DF
:1010300033C0E114F10439F0F70180819181081B7C
:10104000190BC80FD91FC12CD12C0115110519F18D
:101050008091E80085FD16C08091E8008B77809331
:10106000E80053D4E114F10449F0F7018081918143
:10107000C80ED91ED182C08285E00EC0DBD1882384
:1010800021F30AC08091F100899301501109FFEF0B
:10109000CF1ADF0ADACF80E0DF91CF911F910F9155
:1010A000FF90EF90DF90CF900895209167023091EC
:1010B00068022617370748F06115710539F4209149
:1010C000E8002E772093E80001C0B90140E06115E7
:1010D000710579F12BB52223F1F12530F1F1209141
:1010E000E80023FD3CC02091E80022FD2EC02091A5
:1010F000E80020FFECCF2091F20030E0FC01CF01AE
:101100006115710559F02830310540F481918093C3
:10111000F100615071092F5F3F4FF1CF41E028305E
:10112000310509F040E02091E8002E772093E80097
:10113000CECF4111CFCF09C08BB5882361F0853068
:1011400061F08091E80083FD0AC08091E80082FF91
:10115000F3CF80E0089582E0089583E0089581E070
:10116000089520916702309168022617370748F0EA
:101170006115710539F42091E8002E772093E8007D
:1011800001C0B901FC0120E06115710561F18BB569
:101190008823D9F18530D9F18091E80083FD39C0E9
:1011A0008091E80082FD2BC08091E80080FFECCFA9
:1011B0008091F20090E06115710559F08830910539
:1011C00040F424912093F100319661507109019609
:1011D000F2CF21E0089709F020E08091E8008E77B7
:1011E0008093E800D1CF2111D2CF09C08BB58823DD
:1011F00061F0853061F08091E80083FD0AC0809144
:10120000E80082FFF3CF80E0089582E0089583E054
:10121000089581E00895CF92DF92EF92FF920F93AD
:101220001F93CF93DF93EB01209167023091680207
:101230002617370740F0209739F42091E8002E77E1
:101240002093E80001C0E9018C0180E02097B9F10A
:101250009BB5992309F445C0953009F444C0909199
:10126000E80093FD42C09091E80092FD34C0909157
:10127000E80090FFEBCFC090F200D12C7601C701BF
:101280008C199D09800F911F209761F028E0E216CC
:10129000F10440F4E3D68093F10021972FEFE21A96
:1012A000F20AEDCF8C0181E098E0E916F10409F033
:1012B00080E09091E8009E779093E800C7CF81117D
:1012C000C7CF09C08BB5882361F0853061F080916C
:1012D000E80083FD0AC08091E80082FFF3CF80E040
:1012E00005C082E003C083E001C081E0DF91CF91BF
:1012F0001F910F91FF90EF90DF90CF900895982F5E
:10130000953058F59093E900981739F07091EC00FA
:101310002091ED005091F00003C0242F762F50E073
:1013200021FF19C03091EB003E7F3093EB003091EC
:10133000ED003D7F3093ED003091EB003160309354
:10134000EB007093EC002093ED005093F00020919F
:10135000EE0027FF07C09F5FD3CF8F708093E90017
:1013600081E0089580E00895EF92FF920F931F931C
:10137000CF93DF93E62EEC018C010C5F1F4FF12C15
:10138000FE1499F19881992359F1F801208169811E
:101390007A8131973081892F8F70853010F080E00D
:1013A00025C0223010F442E001C046E0E8E0F0E061
:1013B00020E0E617F70720F42F5FEE0FFF1FF9CFAD
:1013C0002295207F422B232F2295220F220F207C53
:1013D000991F9927991F622F692B91DF8823F9F2B2
:1013E000F39425960B5F1F4FCBCF81E0DF91CF9118
:1013F0001F910F91FF90EF9008958091610287FFF8
:101400000FC08091E80082FD04C08BB58111F9CF37
:1014100010C08091E8008B770AC08BB5882349F013
:101420008091E80080FFF9CF8091E8008E7780936B
:10143000E80008952091E4003091E50095E64091A0
:10144000EC00842F817040FF21C08091E80080FD76
:101450001BC08BB5882391F0853091F08091EB0013
:1014600085FD10C04091E4005091E50042175307FC
:1014700031F39A01915019F784E0089582E00895BC
:1014800083E0089581E0089580E008954091E800A8
:1014900042FFDFCF08953CD03ED08091D8008F77B7
:1014A0008093D8008091D80080688093D800809184
:1014B000D8008F7D8093D80084E089BD86E089BD07
:1014C00009B400FEFDCF1BBC10925F0242E060E059
:1014D00080E015DF8091E1008E7F8093E1008091B4
:1014E000E20081608093E2008091E2008860809356
:1014F000E2008091E0008E7F8093E0000895E3E6B3
:10150000F0E080818E7F808381E080936002C3CF92
:101510001092E20008951092E10008951F920F9238
:101520000FB60F9211242F933F934F935F936F93B6
:101530007F938F939F93AF93BF93EF93FF9380918C
:10154000E10082FF0AC08091E20082FF06C0809124
:10155000E1008B7F8093E100D7D18091E10080FF93
:1015600017C08091E20080FF13C08091E2008E7F5F
:101570008093E2008091E20080618093E20080919C
:10158000D80080628093D80019BC1BBC0E94450221
:101590008091E10084FF2FC08091E20084FF2BC086
:1015A00084E089BD86E089BD09B400FEFDCF80914D
:1015B000D8008F7D8093D8008091E1008F7E80934A
:1015C000E1008091E2008F7E8093E2008091E20052
:1015D00081608093E20080915F02882311F084E0B3
:1015E00007C08091E30087FD02C081E001C083E075
:1015F0008BBD0E9443028091E10083FF21C0809156
:10160000E20083FF1DC08091E100877F8093E100AD
:1016100082E08BBD10925F028091E1008E7F80930B
:10162000E1008091E2008E7F8093E2008091E200F1
:1016300080618093E20042E060E080E060DE64D19F
:10164000FF91EF91BF91AF919F918F917F916F919A
:101650005F914F913F912F910F900FBE0F901F9070
:1016600018951F93CF93DF93CDB7DEB7AB970FB627
:10167000F894DEBF0FBECDBFE1E6F2E088E08E0F4A
:101680009091F10091938E13FBCF0E945A028091AA
:10169000E80083FF21C18091610290916202953040
:1016A00009F46FC030F4913071F168F0933059F162
:1016B00013C1983009F4E5C0993009F4F1C09630AF
:1016C00009F00AC17FC0803899F0823809F004C15E
:1016D000809165028F70853008F0FEC08093E9002C
:1016E0008091EB0085FB882780F91092E90001C00A
:1016F00080E09091E800977F9093E8008093F1005C
:101700001092F100C9C0282F2D7F09F0E5C082306A
:1017100009F0E2C08091630281112AC080916502C4
:101720008F702FEF280F243008F0D6C08093E90087
:101730002091EB0020FF1CC0933021F48091EB003E
:10174000806214C09091EB0090619093EB0021E0D7
:1017500030E0A90102C0440F551F8A95E2F740937B
:10176000EA001092EA008091EB0088608093EB0021
:101770001092E9008091E800877F8093E8003DDEC9
:10178000ABC08111A9C0109163021F778091E30063
:101790008078812B8093E3008091E800877F80939D
:1017A000E8002BDE8091E80080FFFCCF8091E30011
:1017B00080688093E300111102C082E001C083E0E1
:1017C0008BBD8AC08058823008F086C08091630249
:1017D000909164028C3D53E0950769F583E08A831C
:1017E0008AE289834FB7F894DE01139620E03EE049
:1017F00051E2E32FF0E050935700E49120FF03C043
:10180000E295EF703F5FEF708E2F90E0EA3010F0BE
:10181000C79601C0C0968D939D932F5F243149F7E1
:101820004FBF8091E800877F8093E8006AE270E014
:10183000CE0101961FC060916502709166029E0103
:10184000255D3F4FAE014F5F5F4F74D9BC01892BBF
:1018500009F442C08091E800877F8093E8002BA5BF
:1018600089819A81211102C07CDC05C0213011F4EC
:10187000D2DC01C01ADC8091E8008B778093E8000D
:101880002BC0803849F58091E800877F8093E8007D
:1018900080915F028093F1008091E8008E776DCF98
:1018A00081111AC0909163029230B0F48091E800E7
:1018B000877F8093E80090935F029FDD80915F02B5
:1018C000811106C08091E30087FD02C081E001C064
:1018D00084E08BBD0E9447028091E80083FF0AC02C
:1018E0008091E800877F8093E8008091EB00806220
:1018F0008093EB00AB960FB6F894DEBF0FBECDBF62
:10190000DF91CF911F9108950895CF938BB58823D0
:1019100099F0C091E900CF709091EC00892F81700F
:1019200090FD80E8C82B1092E9008091E80083FDCB
:1019300098DECF70C093E900CF910895CF93DF93E5
:10194000EC01FC0170968BE0DF011D928A95E9F7AE
:1019500082E08C83898783E08E8761E0CE010196E7
:1019600003DD882361F061E0CE010696FDDC88236B
:1019700031F061E0CE010B96DF91CF91F5CC80E0A4
:10198000DF91CF9108950F931F93CF932BB5243000
:10199000F9F4FC010489158926893789012B022B6A
:1019A000032BB1F0C62F81818F708093E900809165
:1019B000E80085FF04C0C093F10080E00AC0809178
:1019C000E8008E778093E80035DD8823A1F301C01D
:1019D00082E0CF911F910F9108952BB5243021F50E
:1019E000FC014489558966897789452B462B472B0D
:1019F000D9F081818F708093E9008091F200882373
:101A000089F09091E8008091E8008E778093E8005B
:101A100095FD08C00FDD811108C08091E8008E7728
:101A20008093E80080E0089582E008952BB524308B
:101A300089F4FC014489558966897789452B462BB1
:101A4000472B41F021812F702093E9002091E8007D
:101A500020FDC3CF08952BB5243019F08FEF9FEFF1
:101A60000895FC014489558966897789452B462B61
:101A7000472BA1F386818F708093E9008091E80065
:101A800082FFECCF8091F200882321F02091F100B9
:101A900030E002C02FEF3FEF8091F200811105C0CE
:101AA0008091E8008B778093E800C901089508953C
:101AB000CF93DF93EC018091E80083FFA7C088817A
:101AC00090E020916502309166022817390709F0ED
:101AD0009DC080916202813261F020F4803209F46D
:101AE0003EC094C0823209F46CC0833209F47EC0D7
:101AF0008DC080916102813A09F088C08091E80030
:101B0000877F8093E8008091E80080FFFCCF8C897C
:101B10009D89AE89BF898093F100492F5A2F6B2F81
:101B200077274093F100AD01662777274093F100B6
:101B30008B2F9927AA27BB278093F100888D80934C
:101B4000F100898D8093F1008A8D8093F10080915E
:101B5000E8008E778093E800DF91CF914ECC8091A2
:101B60006102813209F052C08091E800877F809342
:101B7000E8008091E80082FD04C08BB58111F9CFA7
:101B800045C03091F1002091F1009091F1008091D9
:101B9000F1003C8B2D8B9E8B8F8B8091F100888F79
:101BA0008091F100898F8091F1008A8F8091E80007
:101BB0008B778093E80021DCCE01DF91CF910C94EC
:101BC0006B0280916102813209F58091E800877F84
:101BD0008093E80012DC8091630290916402998BFB
:101BE000888BCE01DF91CF910C94630280916102CA
:101BF000813261F48091E800877F8093E800FDDB0B
:101C000060916302CE01DF91CF9151CFDF91CF91EF
:101C10000895CF93DF93EC011B8682E08C83898744
:101C200061E0CE010196A0DB882331F061E0CE01B6
:101C30000696DF91CF9198CB80E0DF91CF91089508
:101C40002BB52430D1F49B01FC0181818F708093EE
:101C5000E90040E050E064E070E0C90192D98111F0
:101C60000FC09091E800892F807295FD08C0909177
:101C7000E8009E779093E800089582E0089580E060
:101C800008952BB5243079F4FC0181818F70809305
:101C9000E9008091F200882339F08091E8008E7786
:101CA0008093E800C7CB82E00895FC018BB58430B7
:101CB00051F491819F709093E9008091E80080FF3A
:101CC00002C0CF01DECF08952BB5243011F080E0A3
:101CD0000895FC0186818F708093E9008091E8006F
:101CE00082FFF5CF8091E80085FFF1CFCB0140E086
:101CF00050E064E070E08FD98091E80085FD05C078
:101D00008091E8008B778093E80081E008950024BB
:101D1000552704C0080E591F880F991F009729F0F6
:101D200076956795B8F37105B9F7802D952F0895CD
:101D3000A1E21A2EAA1BBB1BFD010DC0AA1FBB1FCF
:101D4000EE1FFF1FA217B307E407F50720F0A21B41
:101D5000B30BE40BF50B661F771F881F991F1A94AE
:101D600069F760957095809590959B01AC01BD01D8
:101D7000CF010895EE0FFF1F0590F491E02D099417
:101D80000F931F93CF93DF93C2DF8C010DD0EC0133
:101D9000009721F0A80160E070E049D1CE01DF9109
:101DA000CF911F910F910895CF93DF9382309105CA
:101DB00010F482E090E0E0916B02F0916C0220E080
:101DC00030E0C0E0D0E0309711F1408151814817F8
:101DD0005907C0F04817590761F482819381209711
:101DE00019F09B838A832BC090936C0280936B02C3
:101DF00026C02115310519F04217530718F49A012E
:101E0000BE01DF01EF010280F381E02DDCCF21155F
:101E1000310509F1281B390B2430310590F4129655
:101E20008D919C9113976115710521F0FB019383AE
:101E3000828304C090936C0280936B02FD01329602
:101E400044C0FD01E20FF31F8193919322503109A9
:101E50002D933C933AC02091690230916A02232B62
:101E600041F420913B0130913C0130936A02209370
:101E700069022091390130913A012115310541F46F
:101E80002DB73EB740913D0150913E01241B350BCB
:101E9000E0916902F0916A02E217F307A0F42E1BA9
:101EA0003F0B2817390778F0AC014E5F5F4F2417BE
:101EB000350748F04E0F5F1F50936A024093690246
:101EC0008193919302C0E0E0F0E0CF01DF91CF91E8
:101ED00008950F931F93CF93DF93009709F48CC05D
:101EE000FC0132971382128200916B0210916C02F6
:101EF0000115110581F420813181820F931F2091FA
:101F0000690230916A022817390779F5F0936A025D
:101F1000E093690271C0D80140E050E0AE17BF07FE
:101F200050F412962D913C911397AD012115310576
:101F300009F1D901F3CF9D01DA0133832283608156
:101F40007181860F971F8217930769F4EC0128812E
:101F50003981260F371F2E5F3F4F318320838A81BF
:101F60009B8193838283452B29F4F0936C02E09349
:101F70006B0242C01396FC93EE931297ED014991C8
:101F800059919E01240F351FE217F30771F48081E8
:101F90009181840F951F029611969C938E93828156
:101FA000938113969C938E931297E0E0F0E0D80112
:101FB00012968D919C911397009719F0F8018C015E
:101FC000F6CF8D919C9198012E5F3F4F820F931F0A
:101FD0002091690230916A022817390769F4309715
:101FE00029F410926C0210926B0202C013821282CA
:101FF00010936A0200936902DF91CF911F910F91B4
:102000000895FB01DC0104C08D910190801921F439
:1020100041505040C8F7881B990B0895FB01DC0123
:1020200002C001900D9241505040D8F70895DC0154
:1020300001C06D9341505040E0F70895DC01CB01A1
:10204000FC01F999FECF06C0F2BDE1BDF89A3196C8
:1020500000B40D9241505040B8F70895F999FECF61
:1020600092BD81BDF89A992780B50895DC01CB0116
:1020700002C02D9105D041505040D8F70895262F29
:10208000F999FECF1FBA92BD81BD20BD0FB6F8945D
:10209000FA9AF99A0FBE0196089510E0CEEED0E0BC
:1020A00003C0FE0167DE2196CF3ED107D1F7F89439
:0220B000FFCF60
:1020B200008340000001044000000182080000018A
:1020C200000000000000000000000001811000007C
:1020D20001021000000100120110010000000812AC
:1020E20029671901000102000100006D02800077DA
:1020F20077770303030302020300020302000001D5
:10210200004D444B0055005300420020004D006931
:1021120000640069004B006C0069004B0020004223
:1021220000750069006C0064002D00360035003037
:0421320000000000A9
:00000001FF
