:1000000010C2000035C2000033C2000031C200003F
:100010002FC200002DC200002BC2000029C2000028
:1000200027C2000025C2000023C200000C94500F1C
:100030001FC200001DC200001BC2000019C2000048
:1000400017C2000015C2000013C2000011C2000058
:100050000FC200000DC200000BC200000C942B0A5E
:1000600007C2000005C2000003C2000001C2000078
:10007000FFC100000A002C004D7574656400203C2F
:100080002D3E20000A4368616E6E656C206D6170C4
:10009000202020202020203A0A00202D2000202D82
:1000A00020000A564944202D20504944202D205339
:1000B00054522020203A000A426F6F744D6F6465DD
:1000C000202020202020202020203A002D002D005C
:1000D0000A0A4D61676963202D2056202D20427544
:1000E000696C64203A000A41726475696E6F206D14
:1000F0006F64652E204279652E0A0A000A577269DC
:10010000746520616E6420657869742028792F6E8B
:1001100029203F000A44656661756C74206D61702A
:1001200070696E6720726573746F7265642E0A0061
:100130004D7574656400202D3E4F555420286E2067
:1001400068657820302D6629203A20000A4D494400
:100150004920494E202868657820302D6629203AAC
:1001600020002D000A456E74657220564944202DEA
:10017000205049442C20696E206865782028302D55
:10018000392C612D6629203A0A000A456E74657281
:100190002070726F6475637420737472696E672067
:1001A0002D20454E54455220746F207465726D6940
:1001B0006E617465203A0A000A53657474696E674B
:1001C000732072656C6F616465642066726F6D2068
:1001D000454550524F4D2E0A003D3E00782E41625B
:1001E0006F72740A00732E53617665202620717534
:1001F00069740A00612E41726475696E6F206D6FBB
:1002000064650A00352E44656661756C7420636808
:10021000616E6E656C206D617070696E670A003486
:100220002E4368616E6E656C206D617070696E67DB
:100230000A00332E564944202D205049440A0032EA
:100240002E50726F6475637420737472696E670ADE
:1002500000312E52656C6F61642073657474696E31
:1002600067730A00302E53686F772063757272656A
:100270006E742073657474696E67730A002863294D
:100280005468654B696B47656E204C6162730A0A5E
:10029000000A0A5553424D4944494B6C694B204D65
:1002A000454E550A000403090409023E00020100FC
:1002B000C0320904000001020201000524000110FF
:1002C000042402060524060001070582030800FF36
:1002D00009040100020A00000007050402400001B1
:1002E00007058302400001120110010200000841CD
:1002F00023010001000102DC012A0335003500372B
:100300000033003200330032003300340033003059
:10031000003300350031003700310038003100383B
:1003200000300000002C0341007200640075006979
:10033000006E006F00200055006E006F002000640A
:1003400000750061006C0020006D006900640069A8
:100350000000003203410072006400750069006E05
:10036000006F00200028007700770077002E0061E2
:100370000072006400750069006E006F002E00635B
:100380000063002900000009026500020100C0327C
:100390000904000000010100000924010001090016
:1003A000010109040100020103000007240100010A
:1003B0004100062402010100062402020200092471
:1003C00003010301020100092403020401010100E9
:1003D00009050202100000000005250101010905C0
:1003E00081021000000000052501010330035400C4
:1003F0006800650020004B0069006B004700650045
:100400006E0020004D0049004400490020006600B5
:100410006100630074006F00720079000000560AEA
:10042000590A11241FBECFEFD2E0DEBFCDBF11E0CD
:10043000A0E0B1E0E4E9FAE202C005900D92A6382E
:10044000B107D9F722E0A6E8B1E001C01D92AF38AC
:10045000B207E1F712E0C0E1D2E004C02197FE014B
:100460000E947813CF30D107C9F7A3D30C943E155F
:10047000C7CD9BB18095906389238BB90895FC010A
:100480008FB7F89471836083738362837583648309
:10049000640F751F778366835187408713861286A2
:1004A0008FBF0895FC01A081B1816C9380819181FF
:1004B000019691838083268137818217930721F4E7
:1004C00084819581918380832FB7F8948285938569
:1004D0000196938782872FBF0895FC01A281B38183
:1004E0008D91B383A28326813781A217B30721F4AC
:1004F00024813581338322839FB7F8942285338505
:1005000021503109338722879FBF0895FC01208144
:1005100030E0A901542F44275295507F9181292F13
:1005200030E0322F2227240F351F428150E064E053
:10053000440F551F6A95E1F7240F351F8381A901E8
:10054000480F511DCA01089581E090E09093D401B5
:100550008093D30182E090E09093D6018093D501FF
:1005600084E090E09093D8018093D70188E090E0F8
:100570009093DA018093D90180E190E09093DC01BF
:100580008093DB0180E290E09093DE018093DD01B7
:1005900080E490E09093E0018093DF0180E890E0B8
:1005A0009093E2018093E10180E091E09093E40177
:1005B0008093E30180E092E09093E6018093E5016F
:1005C00080E094E09093E8018093E70180E098E078
:1005D0009093EA018093E90180E090E19093EC012F
:1005E0008093EB0180E090E29093EE018093ED0127
:1005F00080E090E49093F0018093EF0180E090E838
:100600009093F2018093F10108952EE3E5E9F1E082
:10061000DF011D922A95E9F7DF01282FFC018E2FBB
:10062000821B861738F4819187FD0AC090E08D9374
:100630009D93F5CF880F8E5F8093930181E008959D
:1006400080E0089581E080938E014BE650E060E009
:1006500070E088E891E00E94271599E088E10FB6E4
:10066000F894A895809360000FBE90936000FFCF30
:100670000F931F93CF93FB01C0812C2F30E044E0F8
:10068000359527954A95E1F7232B09F013C18B0186
:10069000CF70811110C08DE191E00E94DE128DE1DA
:1006A00091E00E94FF125C9888EB9BE090930E0211
:1006B00080930D0231C0813079F5CC3070F4C730B1
:1006C000E0F4C53028F4C330C0F4C23071F024C067
:1006D000C53041F0C63049F01FC0CE3071F028F06F
:1006E000CF30D1F4F801618114C0F801618185E552
:1006F00092E0D8DEF80162810CC0F801618185E5E5
:1007000092E0D0DEF801628185E592E0CBDEF8016F
:10071000638185E592E0C6DEC450C43008F0CAC0EB
:10072000F8012081822F90E034E0959587953A95E5
:10073000E1F7892B09F0BEC02F705CEF520F5430E7
:1007400008F0B8C08091170290911802243039F453
:100750003181303F41F08330910528F4ABC08330C4
:10076000910510F4A7C053E04091160260E031E01B
:10077000651791F14423A1F0E0916102EF3150F54A
:10078000D801A30FB11D7C91773F41F0EF5FE0935B
:1007900061027C91F0E0EF59FD4F70833F5F1AC01A
:1007A000FC01EF5BFE4FA081F801E30FF11D7081AA
:1007B000A71309C001963F5F8430910558F010924D
:1007C000610241E007C010921802109217021092C5
:1007D000160270C06F5FCCCF9093180280931702FF
:1007E00040931602243009F465C0442309F462C022
:1007F0001092180210921702109216026091610274
:1008000080916202662309F455C08A3011F130F4F8
:10081000883049F0893009F04DC014DF8B3021F168
:100820008C3069F147C082E080938E014BE650E046
:1008300060E070E088E891E00E94271599E088E187
:100840000FB6F894A895809360000FBE9093600057
:10085000FFCF99E088E10FB6F894A89580936000E7
:100860000FBE90936000FFCF862F90E0809714F525
:10087000615083E692E0C9DE8823E1F010C0693060
:10088000C9F484E692E042DE9093900180938F0158
:1008900087E692E03BDE90939201809391014BE6D4
:1008A00050E060E070E088E891E0CF911F910F91F7
:1008B0000C942715CF911F910F91089582E091E03C
:1008C0000E94E91197FF07C082E091E00E94D411D5
:1008D0000E944311F3CF0895CF93DF931F92CDB7BA
:1008E000DEB7682F909103019F709093E90080918B
:1008F000E80080FD09C082E091E069830E94D41184
:100900000E9443116981F3CF82E091E00F90DF9163
:10091000CF910C948111CF92DF92EF92FF920F93BF
:100920001F93CF93DF936C01E62E042FF22ED0E0BD
:10093000DE1500F5C3DFC82F10ED180F1A3020F0B8
:100940008FE98C0F863090F48C2FC6DFFF2011F0DA
:100950008F2DC2DF81E08D0FF601ED0FF11DCA333F
:1009600010F019EA1C0F1083D82FE2CFC013E0CF8C
:100970000023F1F28D2FDF91CF911F910F91FF9006
:10098000EF90DF90CF9008950F931F93CF93DF9355
:100990001F92CDB7DEB78C01F801662311F0849168
:1009A00001C08081882361F0698396DF0F5F1F4F4C
:1009B00082E091E00E94D4110E9443116981ECCF42
:1009C0000F90DF91CF911F910F9108950F931F9377
:1009D000CF93C62F8C01CC2381F0F80181918F0138
:1009E00090EE980F903608F477DFC15082E091E0E6
:1009F0000E94D4110E944311EECFCF911F910F910D
:100A00000895AF92BF92CF92DF92EF92FF920F9331
:100A10001F93CF93DF93CDB7DEB728970FB6F89427
:100A2000DEBF0FBECDBF61E080ED90E0ADDF63E0E3
:100A300088E891E0CBDF61E08EEC90E0A5DF80916B
:100A40008B014AE0BE016F5F7F4F90E00E94DC1493
:100A500060E09ADF61E08CEC90E096DF4AE0BE0156
:100A60006F5F7F4F80918C0190918D010E94DC140B
:100A700060E08ADF61E087EB90E086DF80918E01A5
:100A80004AE0BE016F5F7F4F90E00E94DC1460E09F
:100A90007BDF61E082EA90E077DF40E1BE016F5FDB
:100AA0007F4F80918F01909190010E94DC1460E053
:100AB0006BDF61E08EE990E067DF40E1BE016F5FD0
:100AC0007F4F80919101909192010E94DC1460E02F
:100AD0005BDF61E08AE990E057DF6EE385E991E052
:100AE00075DF61E084E890E04FDF83EDC82E81E0A0
:100AF000D82EE12CF12CAA24A394B12C8FEFE81A64
:100B0000F80A4AE0BE016F5F7F4FC7010E94DC1404
:100B100060E03ADF61E08EE790E036DFF601808149
:100B20009181892B29F461E088E790E02DDF24C0D2
:100B300020E030E0A501022E02C0440F551F0A94A8
:100B4000E2F7F601808191818423952389010F5F6B
:100B50001F4F892B69F04AE0BE016F5F7F4FC801CC
:100B60000E94DC1460E010DF61E086E790E00CDFBB
:100B7000980100311105F1F661E084E790E004DFAF
:100B8000F2E0CF0ED11C80E1E816F10409F0B6CFF7
:100B900028960FB6F894DEBF0FBECDBFDF91CF9180
:100BA0001F910F91FF90EF90DF90CF90BF90AF908B
:100BB0000895CF93DF93CDB7DEB7A1970FB6F89422
:100BC000DEBF0FBECDBF80E254DC4BE650E060E0FC
:100BD00070E088E891E00E940F1543E050E064E582
:100BE00071E088E891E00E94BF14892B61F4809144
:100BF0008B01823041F480918C0190918D01883776
:100C0000934009F43EC08BE6E8E8F1E0DF011D9275
:100C10008A95E9F78DE494E4ABE48093880190939E
:100C20008901A0938A0182E080938B0128E733E059
:100C300030938D0120938C0180938E0182E199E2A3
:100C40009093900180938F0187E699E190939201B0
:100C5000809391018EE28093930193E090939401AD
:100C6000E8E5F1E0A5E9B1E001900D928A95E1F7A0
:100C70006BDC4BE650E060E070E088E891E00E94B9
:100C8000271580918F01909190019093320180936C
:100C90003101809191019091920190933401809360
:100CA000330183E991E0909387018093860184B7B3
:100CB000877F84BF0FB6F894A89580916000886103
:100CC00080936000109260000FBE90E080E80FB645
:100CD000F89480936100909361000FBE82E084B924
:100CE0008CE085B983B182FB882780F980930C0260
:100CF000882391F080918E01882371F010920C026C
:100D00008093010110928E014BE650E060E070E0AC
:100D100088E891E00E94271580910C028823F9F061
:100D20008FE190E09093CD008093CC0086E080939B
:100D3000CA001092C80088E18093C900539A5A9A59
:100D40006FEF84EF91E0B1D46EEF84EF91E0B0D417
:100D500040E050E061E084EF91E0B9D410C087E654
:100D600090E09093CD008093CC0086E08093CA0001
:100D70001092C80088E18093C900539A5A9A8AB1A8
:100D800080638AB98BB180638BB90E94410F84E084
:100D900085BD5F9A579A80910C02882309F403C19C
:100DA00040E250E065E372E085E592E068DB40E117
:100DB00050E069E172E089E292E061DB1092C900E3
:100DC00088E98093C9008EE085B9789447EFF42EC6
:100DD00054E0E52E08EB1BE080910F029091100289
:100DE000009731F001979093100280930F0201C099
:100DF0005D9A80910D0290910E02009731F001975B
:100E000090930E0280930D0201C05C9A8BB58430E2
:100E100009F08AC02FB7F894809133029091340280
:100E20002FBF892B09F480C089E292E056DB682F3E
:100E300084EF91E098D4882309F440C084EF91E0D6
:100E400009D4D82E84EF91E0DAD3282F19821A82A0
:100E50001B821C8284EF91E029A3EFD34D2D50E03B
:100E6000BC01CE0102960E94CC1429A1233019F4B2
:100E70008981815F10C0213081F484EF91E0DDD35E
:100E80002981FC01808190E034E0959587953A9521
:100E9000E1F7820F911D89830BC0223009F044C015
:100EA0008981F1E0DF1202C08B5FF5CFD80ED982C5
:100EB000BE016F5F7F4F80E0DBDB36C084EF91E0E7
:100EC0009BD3882389F184EF91E090D381110AC0EC
:100ED00084EF91E0E7D3873F29F084EF91E089D355
:100EE000882311F184EF91E0DDD3D82E80910001A9
:100EF000882361F0109200011092120210921302E6
:100F000010921402109215021092110227EFD216BD
:100F100009F4FDC184EF91E06CD38111F8C184EF35
:100F200091E064D38111D5C12FB7F89480915F020D
:100F3000909160022FBF892B91F08091C80085FFAE
:100F40000EC085E592E0C9DA9091C80095FFFCCF0C
:100F50008093CE005D981093100200930F02809151
:100F60005D0290915E024FB7F89420915F0230913C
:100F700060024FBF821B930B049770F0BE016F5F3E
:100F80007F4F8DE191E00E942213882329F0BE015A
:100F90006F5F7F4F81E06CDB8DE191E00E94131366
:100FA0000E94431119CF80910101823009F023C1C1
:100FB0007894CE0101967C01CC24C394D12C61E0BD
:100FC00081E992E0E1DC61E08DE792E0DDDC61E067
:100FD00084E692E0D9DC61E081E592E0D5DC61E075
:100FE0008FE392E0D1DC61E082E392E0CDDC61E06E
:100FF0008FE192E0C9DC61E084E092E0C5DC61E071
:1010000084EF91E0C1DC61E085EE91E0BDDC61E060
:101010008CED91E0B9DC61E089ED91E0B5DC4EDC6E
:10102000182F5ADC143309F459C070F5113309F440
:101030003EC028F4103309F0D7C0E3DCD5C012332A
:1010400009F441C0133309F0CFC061E084E691E0B8
:101050009BDC20E040E064E0C7015DDCC70156DABC
:101060009093900180938F0161E082E691E08CDCA7
:1010700020E040E064E0C7014EDCC70147DA90930E
:10108000920180939101B0C0113609F488C040F4F8
:10109000153309F0A9C058DA61E084E191E05FC03E
:1010A000113709F481C0133709F45BC09DC04BE6CA
:1010B00050E060E070E088E891E00E940F1561E088
:1010C00088EB91E04CC061E08AE891E05DDC10E0E3
:1010D000F5DB082F8D3009F072C07FC061E08CE431
:1010E00091E052DC20E040E061E0C70114DC0981BE
:1010F00010E0000F111F0D521E4FD8011D921C92BF
:1011000061E086E391E040DC2CE24DE060E1C70164
:1011100002DC982E882311F0570104C061E080E3BF
:1011200091E01DC08A2D8E19891508F05DC0F5016A
:10113000C601019002C0880F991F0A94E2F75F016F
:10114000D8012D913C911197280F391F2D933C9375
:1011500082E091E00E94D4110E944311E3CF14DC9D
:1011600043C04FDC61E08CEF90E00EDCA7DB182F72
:10117000B3DB193709F038C04BE650E060E070E0AF
:1011800088E891E00E94271599E088E10FB6F8946D
:10119000A895809360000FBE90936000FFCF61E040
:1011A00086EE90E0F1DB4EDA99E088E10FB6F89434
:1011B000A895809360000FBE90936000FFCF80EEF3
:1011C000800F8F3538F4802F87DBF701E10FF11D99
:1011D00000831F5F1E3108F47BCFF701E10FF11D83
:1011E0001082612FC70111DA82E091E00E94D411D0
:1011F0000E944311E4CE40E250E065E372E085E5F1
:1012000092E03DD940E150E069E172E089E292E08C
:1012100036D978948FB7F89420915F0230916002AC
:101220008FBF80915D0290915E022817390751F0BF
:1012300082E091E00E94E91197FD04C0682F85E5E6
:1012400092E030D92FB7F894809133029091340214
:101250002FBF009729F48091C80085FF34C021C0BA
:10126000209103012F702093E9002091E80020FFD6
:10127000F2CF8034910510F08FE390E0182FE091C9
:101280002B02F0912C02608182E091E00E9481119A
:1012900011508111E0CF89E292E01FD91111EFCFF7
:1012A000DACF2FB7F89480915F02909160022FBF40
:1012B000892B49F085E592E010D99091C80095FFFF
:1012C000FCCF8093CE0082E091E00E94D411DBD766
:1012D000A1CF909111029F5F90931102E92FF0E04E
:1012E000EE5EFD4FD082933009F01ECEE0921202E6
:1012F00062E172E080E0BCD91092110210921202F9
:101300001092130210921402109215020DCE9091B9
:101310001102E1E0E90FE0931102F0E0EE5EFD4F13
:10132000F0829B5F9093120262E172E080E0A0D9AC
:1013300010921102109212021092130210921402D3
:1013400010921502ECCD80E194C880E292C88091A1
:101350000C02882329F08DE191E00E94C71203C09E
:1013600082E091E0A9D7811102C080E201C080E152
:1013700080C880910C02811104C082E091E00C943D
:1013800016120895FC01808980FF02C05F980895BD
:101390005F9A08950F931F93CF938C01FC01818D69
:1013A000813021F0823021F4C0E203C0C0E301C0EB
:1013B000C0E0F801808D823009F4C860F801828DA8
:1013C000873031F0883031F0863029F4C26003C0B4
:1013D000C46001C0C6601092C9001092C80010928B
:1013E000CA00F80124893589468957892115F1EE0B
:1013F0003F074105510589F0DA01C901B695A79566
:1014000097958795BC01CD0160587B47814E9F4FD2
:101410000E9456132150310902C020E130E0309380
:10142000CD002093CC00C093CA00F801848995892F
:10143000A689B7898115914EA105B10511F082E009
:1014400001C080E08093C80088E98093C900CF91F3
:101450001F910F9108951F920F920FB60F921124B2
:101460002F933F934F935F936F937F938F939F93AC
:10147000AF93BF93EF93FF938091CE008093F301DE
:101480006091F30189E292E00DD8FF91EF91BF9155
:10149000AF919F918F917F916F915F914F913F910C
:1014A0002F910F900FBE0F901F90189584EF91E031
:1014B00084C084EF91E053C1D9011C92292F3327B6
:1014C0002230310599F023303105C9F02130310542
:1014D00009F06BC080910C02882309F45CC082E0A3
:1014E0008C9382E190E0E9E2F1E063C080910C022C
:1014F000811156C08EE390E0E9EAF2E05AC09927E4
:101500008130910599F05CF4892B09F04EC0E5EA31
:10151000F2E0E4918E2F90E0E5EAF2E04AC08230FA
:101520009105C1F08C3D910551F13FC080910C02B5
:10153000882341F0ECEEF3E0E4918E2F90E0ECEEA6
:10154000F3E037C0E3E5F3E0E4918E2F90E0E3E5CC
:10155000F3E02FC080910C02882349F0E0918601CE
:10156000F0918701808190E022E02C9322C0E5E297
:10157000F3E0E4918E2F90E0E5E2F3E01AC0809171
:101580000C02811112C0E9EFF2E0E4918E2F90E09D
:10159000E9EFF2E00EC082E190E0E7EEF2E009C090
:1015A00085E690E0E7E8F3E004C080E090E0E0E06A
:1015B000F0E0DA01ED93FC930895FC0114821582AA
:1015C0001682178210861186128613861486158657
:1015D0008FEF86871786108A128A118A8FEF9FEF06
:1015E000948B838B168A158A178A0895FC0185814E
:1015F0000895FC0186810895FC0187810895FC010E
:1016000087850895683FA8F4603F30F0E62FEF70BB
:10161000F0E0E45BFE4F0BC067FF0DC0E62FF0E08B
:1016200084E0F595E7958A95E1F7E35CFE4F8081CC
:10163000089581E0089580E00895FC012785233016
:1016400019F0243019F0089503960895FC0181895A
:1016500092890895DC011F962C911F97243019F46C
:1016600055968C9108952330C9F0213061F4E5DF5F
:10167000DC01EC91F0E084E0F595E7958A95E1F7DF
:10168000E35CFE4F09C0223059F4D7DFDC01EC9156
:10169000EF70F0E0E45BFE4F8081089581E00895F3
:1016A00080E00895FC0180850895FC016687089517
:1016B000FC016E3F31F4638782E784878BEB85877B
:1016C00008956D3F19F413861486158608950F93B7
:1016D0001F93CF93DF93EC018A01662351F157FFEB
:1016E00002C010E036C089899A89009761F02F897D
:1016F000222349F00E9427141C8A1B8A1E8A1D8AF5
:101700001A8A198A1F8A0115110519F41C8A1B8A65
:101710000CC061E070E0C801F1D79A8B898B892BEE
:1017200001F31C8B0B8B1E8A1D8A81E08F8B11E0CD
:1017300010C089899A890097A1F21F89112389F223
:101740000E9427141A8A198A1C8A1B8A1E8A1D8ADB
:101750001F8A812FDF91CF911F910F9108954FEF35
:101760005FEF60E0B4CF0F931F93CF93DF93EC0153
:10177000162F8885898768871F828E8181111E8236
:1017800017FF7BC0183FC8F08D8590E0212F30E017
:10179000209530952F70332702C0959587952A950F
:1017A000E2F781709927282F21702F83892B09F464
:1017B000A3C083E08F871B839DC01A86188A1C8272
:1017C0008D81882399F01D82173F71F41E8284E079
:1017D0008F870F890F83002309F48FC08D899E891D
:1017E000892B09F489C086C081E08E83103F41F4C3
:1017F00081E08D831E8A1D8A84E0888B8F895DC07D
:10180000103FD8F481E0888B8E858F3F41F0212FE7
:101810002F7030E090E02817390709F06DC08B85F4
:1018200090E0412F50E024E0559547952A95E1F747
:101830002FE030E0241B350B0AC082E0888B8C85BA
:1018400090E027E030E0412F4F70241B310902C0A7
:10185000959587952A95E2F781708F830F810023F4
:1018600009F44AC0612FCE01CDDE188381508C83EC
:10187000811142C088898F8740C08D818823F9F00B
:101880008F898823C9F12B893C8921153105A1F065
:101890008D899E898217930721F481E08E831D82B2
:1018A0002BC029893A89AC014F5F5F4F5E8B4D8B0E
:1018B000F901E80FF91F108381E08F831DC08A852D
:1018C000882331F06881CE019DDE81508C831A8699
:1018D0008C81882389F0FE01E81BF1091383815074
:1018E0008C8391E09F83811107C088898F87813025
:1018F00009F48A8701E001C000E0802FDF91CF91D9
:101900001F910F910895CF92DF92EF92FF920F9364
:101910001F93CF93DF93EC018B017A014DD281119C
:1019200033C0E114F10439F0F70180819181081B83
:10193000190BC80FD91FC12CD12C0115110519F194
:101940008091E80085FD16C08091E8008E77809335
:10195000E80099D4E114F10449F0F7018081918104
:10196000C80ED91ED182C08285E00EC025D2882340
:1019700021F30AC089918093F10001501109FFEF12
:10198000CF1ADF0ADACF80E0DF91CF911F910F915C
:10199000FF90EF90DF90CF900895CF92DF92EF927B
:1019A000FF920F931F93CF93DF93EC018B017A018A
:1019B00003D2811133C0E114F10439F0F7018081C1
:1019C0009181081B190BC80FD91FC12CD12C0115EF
:1019D000110519F18091E80085FD16C08091E8009D
:1019E0008B778093E8004FD4E114F10449F0F701BC
:1019F00080819181C80ED91ED182C08285E00EC03F
:101A0000DBD1882321F30AC08091F1008993015032
:101A10001109FFEFCF1ADF0ADACF80E0DF91CF9113
:101A20001F910F91FF90EF90DF90CF90089520913C
:101A3000890230918A022617370748F0611571052F
:101A400039F42091E8002E772093E80001C0B90115
:101A500040E06115710579F12BB52223F1F12530B4
:101A6000F1F12091E80023FD3CC02091E80022FD27
:101A70002EC02091E80020FFECCF2091F20030E052
:101A8000FC01CF016115710559F02830310540F492
:101A900081918093F100615071092F5F3F4FF1CF29
:101AA00041E02830310509F040E02091E8002E7730
:101AB0002093E800CECF4111CFCF09C08BB588234A
:101AC00061F0853061F08091E80083FD0AC080916B
:101AD000E80082FFF3CF80E0089582E0089583E07C
:101AE000089581E008952091890230918A02261795
:101AF000370748F06115710539F42091E8002E7719
:101B00002093E80001C0B901FC0120E061157105D6
:101B100061F18BB58823D9F18530D9F18091E80046
:101B200083FD39C08091E80082FD2BC08091E800E0
:101B300080FFECCF8091F20090E06115710559F0C3
:101B40008830910540F424912093F1003196615042
:101B500071090196F2CF21E0089709F020E0809109
:101B6000E8008E778093E800D1CF2111D2CF09C051
:101B70008BB5882361F0853061F08091E80083FDAA
:101B80000AC08091E80082FFF3CF80E0089582E0F0
:101B9000089583E0089581E00895CF92DF92EF9257
:101BA000FF920F931F93CF93DF93EB012091890254
:101BB00030918A022617370740F0209739F4209198
:101BC000E8002E772093E80001C0E9018C0180E055
:101BD0002097B9F19BB5992309F445C0953009F4D4
:101BE00044C09091E80093FD42C09091E80092FDBE
:101BF00034C09091E80090FFEBCFC090F200D12C60
:101C00007601C7018C199D09800F911F209761F003
:101C100028E0E216F10440F412D78093F1002197F6
:101C20002FEFE21AF20AEDCF8C0181E098E0E9167D
:101C3000F10409F080E09091E8009E779093E8002D
:101C4000C7CF8111C7CF09C08BB5882361F085301C
:101C500061F08091E80083FD0AC08091E80082FF76
:101C6000F3CF80E005C082E003C083E001C081E0E3
:101C7000DF91CF911F910F91FF90EF90DF90CF9068
:101C80000895982F953058F59093E900981739F0FA
:101C90007091EC002091ED005091F00003C0242FD2
:101CA000762F50E021FF19C03091EB003E7F30933A
:101CB000EB003091ED003D7F3093ED003091EB0073
:101CC00031603093EB007093EC002093ED00509363
:101CD000F0002091EE0027FF07C09F5FD3CF8F70E9
:101CE0008093E90081E0089580E00895EF92FF92EB
:101CF0000F931F93CF93DF93E62EEC018C010C5FC3
:101D00001F4FF12CFE1499F19881992359F1F80194
:101D1000208169817A8131973081892F8F70853058
:101D200010F080E025C0223010F442E001C046E00F
:101D3000E8E0F0E020E0E617F70720F42F5FEE0F71
:101D4000FF1FF9CF2295207F422B232F2295220FB0
:101D5000220F207C991F9927991F622F692B91DFF1
:101D60008823F9F2F39425960B5F1F4FCBCF81E0C8
:101D7000DF91CF911F910F91FF90EF900895809187
:101D8000830287FF0FC08091E80082FD04C08BB5FD
:101D90008111F9CF10C08091E8008B770AC08BB514
:101DA000882349F08091E80080FFF9CF8091E80016
:101DB0008E778093E80008952091E4003091E5004B
:101DC00095E64091EC00842F817040FF21C0809106
:101DD000E80080FD1BC08BB5882391F0853091F021
:101DE0008091EB0085FD10C04091E4005091E5002A
:101DF0004217530731F39A01915019F784E008957F
:101E000082E0089583E0089581E0089580E00895D8
:101E10004091E80042FFDFCF08953CD03ED0809152
:101E2000D8008F778093D8008091D8008068809305
:101E3000D8008091D8008F7D8093D80084E089BD40
:101E400086E089BD09B400FEFDCF1BBC1092810263
:101E500042E060E080E015DF8091E1008E7F8093BA
:101E6000E1008091E20081608093E2008091E200D5
:101E700088608093E2008091E0008E7F8093E00094
:101E80000895E3E6F0E080818E7F808381E0809397
:101E90008202C3CF1092E20008951092E1000895EB
:101EA0001F920F920FB60F9211242F933F934F93CF
:101EB0005F936F937F938F939F93AF93BF93EF93B2
:101EC000FF938091E10082FF0AC08091E20082FFCF
:101ED00006C08091E1008B7F8093E100D3D1809197
:101EE000E10080FF16C08091E20080FF12C0809167
:101EF000E2008E7F8093E2008091E2008061809317
:101F0000E2008091D80080628093D80019BC1BBC8D
:101F10001CDA8091E10084FF2EC08091E20084FFF2
:101F20002AC084E089BD86E089BD09B400FEFDCFEA
:101F30008091D8008F7D8093D8008091E1008F7EC2
:101F40008093E1008091E2008F7E8093E200809197
:101F5000E20081608093E20080918102882311F089
:101F600084E007C08091E30087FD02C081E001C0EA
:101F700083E08BBDE8D98091E10083FF21C080918F
:101F8000E20083FF1DC08091E100877F8093E10024
:101F900082E08BBD109281028091E1008E7F809360
:101FA000E1008091E2008E7F8093E2008091E20068
:101FB00080618093E20042E060E080E062DE62D116
:101FC000FF91EF91BF91AF919F918F917F916F9111
:101FD0005F914F913F912F910F900FBE0F901F90E7
:101FE00018951F93CF93DF93CDB7DEB7AB970FB69E
:101FF000F894DEBF0FBECDBFE3E8F2E088E08E0FBD
:102000009091F10091938E13FBCFB3D98091E800AA
:1020100083FF20C18091830290918402953009F45E
:102020006FC030F4913071F168F0933059F112C102
:10203000983009F4E5C0993009F4F1C0963009F000
:1020400009C17FC0803899F0823809F003C18091BE
:1020500087028F70853008F0FDC08093E900809181
:10206000EB0085FB882780F91092E90001C080E031
:102070009091E800977F9093E8008093F100109290
:10208000F100C9C0282F2D7F09F0E4C0823009F08B
:10209000E1C08091850281112AC0809187028F70F2
:1020A0002FEF280F243008F0D5C08093E90020914D
:1020B000EB0020FF1CC0933021F48091EB00806284
:1020C00014C09091EB0090619093EB0021E030E020
:1020D000A90102C0440F551F8A95E2F74093EA0018
:1020E0001092EA008091EB0088608093EB001092E0
:1020F000E9008091E800877F8093E80040DEAAC075
:102100008111A8C0109185021F778091E30080782B
:10211000812B8093E3008091E800877F8093E80023
:102120002EDE8091E80080FFFCCF8091E300806884
:102130008093E300111102C082E001C083E08BBDF7
:1021400089C08058823008F085C0809185029091C6
:1021500086028C3D53E0950769F583E08A838AE225
:1021600089834FB7F894DE01139620E03EE051E2F8
:10217000E32FF0E050935700E49120FF03C0E29575
:10218000EF703F5FEF708E2F90E0EA3010F0C7964F
:1021900001C0C0968D939D932F5F243149F74FBFA7
:1021A0008091E800877F8093E8006AE270E0CE01CA
:1021B00001961FC060918702709188029E01255D83
:1021C0003F4FAE014F5F5F4F77D9BC01892B09F4B8
:1021D00041C08091E800877F8093E8002BA589812A
:1021E0009A81211102C07FDC05C0213011F4D5DCB9
:1021F00001C01DDC8091E8008B778093E8002AC045
:10220000803841F58091E800877F8093E8008091D5
:1022100081028093F1008091E8008E776DCF81116B
:1022200019C0909185029230A8F48091E800877FD0
:102230008093E80090938102A2DD80918102811158
:1022400006C08091E30087FD02C081E001C084E008
:102250008BBD7DD88091E80083FF0AC08091E800A3
:10226000877F8093E8008091EB0080628093EB0091
:10227000AB960FB6F894DEBF0FBECDBFDF91CF9106
:102280001F9108950895CF938BB5882399F0C0913D
:10229000E900CF709091EC00892F817090FD80E86B
:1022A000C82B1092E9008091E80083FD9ADECF7080
:1022B000C093E900CF910895CF93DF93EC01FC0127
:1022C00070968BE0DF011D928A95E9F782E08C839E
:1022D000898783E08E8761E0CE01019607DD882340
:1022E00061F061E0CE01069601DD882331F061E006
:1022F000CE010B96DF91CF91F9CC80E0DF91CF91A9
:1023000008950F931F93CF932BB52430F9F4FC015C
:102310000489158926893789012B022B032BB1F0FB
:10232000C62F81818F708093E9008091E80085FF3E
:1023300004C0C093F10080E00AC08091E8008E776D
:102340008093E80039DD8823A1F301C082E0CF91BA
:102350001F910F9108952BB5243021F5FC0144897C
:10236000558966897789452B462B472BD9F0818182
:102370008F708093E9008091F200882389F090911A
:10238000E8008091E8008E778093E80095FD08C012
:1023900013DD811108C08091E8008E778093E800FA
:1023A00080E0089582E008952BB5243089F4FC0183
:1023B0004489558966897789452B462B472B41F0FF
:1023C00021812F702093E9002091E80020FDC3CFE8
:1023D00008952BB5243019F08FEF9FEF0895FC017D
:1023E0004489558966897789452B462B472BA1F36C
:1023F00086818F708093E9008091E80082FFECCFA6
:102400008091F200882321F02091F10030E002C099
:102410002FEF3FEF8091F200811105C08091E8001D
:102420008B778093E800C90108950895CF93DF93D7
:10243000EC018091E80083FFA7C0888190E02091A3
:102440008702309188022817390709F09DC08091D2
:102450008402813261F020F4803209F43EC094C0DD
:10246000823209F46CC0833209F47EC08DC0809141
:102470008302813A09F088C08091E800877F8093C9
:10248000E8008091E80080FFFCCF8C899D89AE89AF
:10249000BF898093F100492F5A2F6B2F77274093E4
:1024A000F100AD01662777274093F1008B2F992724
:1024B000AA27BB278093F100888D8093F100898D36
:1024C0008093F1008A8D8093F1008091E8008E77EF
:1024D0008093E800DF91CF9152CC809183028132CA
:1024E00009F052C08091E800877F8093E8008091D6
:1024F000E80082FD04C08BB58111F9CF45C0309151
:10250000F1002091F1009091F1008091F1003C8B5D
:102510002D8B9E8B8F8B8091F100888F8091F100A5
:10252000898F8091F1008A8F8091E8008B7780936A
:10253000E80025DCCE01DF91CF910C94CA0980918F
:102540008302813209F58091E800877F8093E8005B
:1025500016DC8091850290918602998B888BCE0142
:10256000DF91CF910C94C20980918302813261F492
:102570008091E800877F8093E80001DC609185020C
:10258000CE01DF91CF9151CFDF91CF910895CF93BD
:10259000DF93EC011B8682E08C83898761E0CE01AA
:1025A0000196A4DB882331F061E0CE010696DF912D
:1025B000CF919CCB80E0DF91CF9108952BB5243053
:1025C000D1F49B01FC0181818F708093E90040E090
:1025D00050E064E070E0C90196D981110FC090917C
:1025E000E800892F807295FD08C09091E8009E77E1
:1025F0009093E800089582E0089580E008952BB557
:10260000243079F4FC0181818F708093E9008091FE
:10261000F200882339F08091E8008E778093E800FB
:10262000CBCB82E00895FC018BB5843051F49181CD
:102630009F709093E9008091E80080FF02C0CF0175
:10264000DECF08952BB5243011F080E00895FC0111
:1026500086818F708093E9008091E80082FFF5CF3A
:102660008091E80085FFF1CFCB0140E050E064E0CD
:1026700070E093D98091E80085FD05C08091E80065
:102680008B778093E80081E008950024552704C0EB
:10269000080E591F880F991F009729F076956795A6
:1026A000B8F37105B9F7802D952F0895A1E21A2E80
:1026B000AA1BBB1BFD010DC0AA1FBB1FEE1FFF1FE6
:1026C000A217B307E407F50720F0A21BB30BE40B36
:1026D000F50B661F771F881F991F1A9469F760957D
:1026E0007095809590959B01AC01BD01CF01089537
:1026F000EE0FFF1F0590F491E02D09940F931F93A7
:10270000CF93DF93C2DF8C010DD0EC01009721F055
:10271000A80160E070E049D1CE01DF91CF911F9117
:102720000F910895CF93DF938230910510F482E0EA
:1027300090E0E0918D02F0918E0220E030E0C0E068
:10274000D0E0309711F14081518148175907C0F00E
:102750004817590761F482819381209719F09B8370
:102760008A832BC090938E0280938D0226C0211500
:10277000310519F04217530718F49A01BE01DF0121
:10278000EF010280F381E02DDCCF2115310509F145
:10279000281B390B2430310590F412968D919C91B1
:1027A00013976115710521F0FB019383828304C0A7
:1027B00090938E0280938D02FD01329644C0FD01FC
:1027C000E20FF31F81939193225031092D933C9393
:1027D0003AC020918B0230918C02232B41F420913E
:1027E0003D0130913E0130938C0220938B02209169
:1027F0003B0130913C012115310541F42DB73EB725
:1028000040913F0150914001241B350BE0918B0218
:10281000F0918C02E217F307A0F42E1B3F0B281750
:10282000390778F0AC014E5F5F4F2417350748F049
:102830004E0F5F1F50938C0240938B0281939193B4
:1028400002C0E0E0F0E0CF01DF91CF9108950F9357
:102850001F93CF93DF93009709F48CC0FC0132974C
:102860001382128200918D0210918E0201151105C2
:1028700081F420813181820F931F20918B0230914E
:102880008C022817390779F5F0938C02E0938B02BC
:1028900071C0D80140E050E0AE17BF0750F4129667
:1028A0002D913C911397AD012115310509F1D90105
:1028B000F3CF9D01DA013383228360817181860F1A
:1028C000971F8217930769F4EC0128813981260F3D
:1028D000371F2E5F3F4F318320838A819B819383F3
:1028E0008283452B29F4F0938E02E0938D0242C03F
:1028F0001396FC93EE931297ED01499159919E0125
:10290000240F351FE217F30771F480819181840F42
:10291000951F029611969C938E93828193811396B4
:102920009C938E931297E0E0F0E0D80112968D917F
:102930009C911397009719F0F8018C01F6CF8D91B7
:102940009C9198012E5F3F4F820F931F20918B0225
:1029500030918C022817390769F4309729F41092C6
:102960008E0210928D0202C01382128210938C028A
:1029700000938B02DF91CF911F910F910895FB017E
:10298000DC0104C08D910190801921F44150504028
:10299000C8F7881B990B0895FB01DC0102C0019068
:1029A0000D9241505040D8F70895DC0101C06D935D
:1029B00041505040E0F70895BB274A3031F4992345
:1029C00022F4BDE2909581959F4F01C0BB27FB018A
:1029D0005527AA27880F991FAA1FA41710F0A41B18
:1029E00083955051B9F7A05DAA3308F0A95DA19372
:1029F000009779F7B111B1931192CB0100C0DC01BE
:102A0000FC01672F71917723E1F7329704C07C9125
:102A10006D9370836291AE17BF07C8F30895DC0110
:102A2000CB01FC01F999FECF06C0F2BDE1BDF89AD9
:102A3000319600B40D9241505040B8F70895F9997D
:102A4000FECF92BD81BDF89A992780B50895DC012B
:102A5000CB0102C02D9105D041505040D8F70895C8
:102A6000262FF999FECF1FBA92BD81BD20BD0FB6AA
:102A7000F894FA9AF99A0FBE0196089512E0C0E10F
:102A8000D2E003C0FE0134DE2196C131D107D1F777
:042A9000F894FFCFE8
:102A9400010100834000000104400000018208009D
:102AA400000100000000000000000000000181108F
:102AB40000000102100000010012011001000000DA
:102AC400081229671901000102000100008F028029
:102AD40000F0777777030303030202030002030283
:102AE400000001004D444B005500530042002000FB
:102AF4004D006900640069004B006C0069004B00E4
:102B040020004200750069006C0064002D0038004C
:062B14003800380000004B
:00000001FF
