:1000000025C100003FC100003DC100003BC1000010
:1000100039C1000037C1000035C1000033C1000004
:1000200031C100002FC100002DC1000080C70000B9
:1000300029C1000027C1000025C1000023C1000024
:1000400021C100001FC100001DC100001BC1000034
:1000500019C1000017C1000015C100000FC2000047
:1000600011C100000FC100000DC100000BC1000054
:1000700009C1000007C1000005C1000003C1000064
:1000800001C10000FFC00000FDC00000FBC0000077
:10009000F9C00000F7C0000030035400680065009C
:1000A00020004B0069006B00470065006E002000D7
:1000B0004D004900440049002000660061006300D3
:1000C00074006F007200790000003A03550053007D
:1000D000420020004D006900640069004B006C0084
:1000E00069004B00200042004500540041003100EF
:1000F00020004200750069006C0064002D00330090
:10010000390033000000120110010000000812291C
:10011000681901000102000109026500020100C026
:100120003209040000000101000009240100010956
:10013000000101090401000201030000072401007D
:100140000141000624020101000624020202000906
:100150002403010301020100092403020401010137
:100160000009050202100000000005250101010937
:100170000581021000000000052501010332034142
:100180000072006400750069006E006F0020002896
:10019000007700770077002E006100720064007520
:1001A0000069006E006F002E0063006300290000EC
:1001B000001803410072006400750069006E006F52
:1001C00000200055006E006F0000002A0335003546
:1001D0000037003300320033003200330034003384
:1001E0000030003300350031003700310038003175
:1001F0000038003000000012011001020000084128
:1002000023010001000102DC0109023E000201009D
:10021000C03209040000010202010005240001109F
:10022000042402060524060001070582030800FFD6
:1002300009040100020A0000000705040240000151
:1002400007058302400001040309040011241FBEB6
:10025000CFEFD2E0DEBFCDBF11E0A0E0B1E0EAE435
:10026000F7E102C005900D92A834B107D9F712E06A
:10027000A8E4B1E001C01D92A937B107E1F786D229
:100280000C94A30BBDCEFF920F931F938B019C0187
:10029000F42E9695879577956795FF2029F06058FD
:1002A0007B47814E9F4F04C0605C7D4B804F9F4FCA
:1002B000A90198010E947A0B215030403093CD0063
:1002C0002093CC0086E08093CA00FF2011F480E0E8
:1002D00001C082E08093C80088E18093C900539AEE
:1002E0005A9A1F910F91FF900895FC018FB7F894CF
:1002F000718360837383628375836483640F751F66
:100300007783668351874087138612868FBF08954F
:10031000CF93DF93EC01E881F98160838881998133
:100320000196998388832E813F818217930721F458
:100330008C819D81998388832FB7F8948A859B85CA
:1003400001969B878A872FBFDF91CF910895CF9326
:10035000DF93EC01EA81FB813191FB83EA838E819B
:100360009F81E817F90721F48C819D819B838A8303
:100370002FB7F8948A859B8501979B878A872FBF23
:10038000832FDF91CF9108958BB180638F7E8BB9DE
:1003900008958BB180638F7D8BB90895FC0120890E
:1003A00020FF02C05F9808955F9A0895DF92EF9250
:1003B000FF920F931F93FC01818D813019F08230E1
:1003C00021F405C070E3D72E04C0DD2402C060E232
:1003D000D62E808D823011F488E0D82A828D873025
:1003E00031F0883031F0863031F482E003C084E0AF
:1003F00001C086E0D82A1092C9001092C80010925D
:10040000CA00E488F5880689178980E0E81681EE3D
:10041000F80680E0080780E0180719F420E130E0D2
:1004200010C0C801B7019695879577956795605874
:100430007B47814E9F4FA80197010E947A0B215064
:1004400030403093CD002093CC00D092CA0080E0A1
:10045000E81681EEF80680E0080780E0180711F042
:1004600082E001C080E08093C80088E98093C900E1
:100470001F910F91FF90EF90DF9008951F920F92C0
:100480000FB60F9211242F933F934F935F936F9367
:100490007F938F939F93AF93BF93EF93FF9380913D
:1004A000CE0080934E0160914E018FE491E030DFE9
:1004B000FF91EF91BF91AF919F918F917F916F913C
:1004C0005F914F913F912F910F900FBE0F901F9012
:1004D000189580914C01882319F48DE291E0F0C7C2
:1004E000089580914C01882329F081E291E00E94D7
:1004F000640B03C08DE291E0BCD7817011F490E2EF
:1005000001C090E18BB19095806398239BB90895C9
:1005100084B7877F84BF88E10FB6F894809360002A
:10052000109260000FBE90E080E80FB6F8948093C0
:100530006100909361000FBE82E084B98CE085B9C0
:1005400023B130E036952795369527952170209375
:100550004C0183B190E0E3E096958795EA95E1F749
:10056000817080930001222329F062E17AE780E024
:1005700090E004C060E875E280E090E040E083DE57
:100580008AB180638AB98BB180638BB9C1D484E0AE
:1005900085BD5F9A579A0895CF93DF93EC0163303E
:1005A00088F4862F90E023E030E0281B390B219659
:1005B000AE01480F591F2197CA0160E070E0A90100
:1005C0000E949C0B81E291E0BE010E94460B81E2F9
:1005D00091E00E94310B5C9888EB9BE090934B017B
:1005E00080934A01DF91CF9108951F93DF93CF93BA
:1005F00000D000D0CDB7DEB78BB5843009F0BDC0D8
:100600002FB7F8948091590190915A012FBF892BEF
:1006100009F4B3C08FE491E09ADE182F80910001B5
:10062000882341F48FE080936B0210936C028BE679
:1006300092E007C0183F40F08FE089831A83CE0113
:10064000019661E0A9DF97C080916A02882371F169
:100650009091690217FF17C010926A02E92FF0E02B
:10066000E459FD4F87EF8083692F6F5F60936902C4
:100670009B5F90936B028BE692E08EDF1092690293
:10068000173FB9F478C0E92FF0E0E459FD4F10832B
:10069000892F8F5F80936902833009F06EC084E0F8
:1006A00080936B028BE692E063E062C0173F09F42F
:1006B00064C0103F60F010926702103F41F481E087
:1006C00080936A0210936C028093690256C0812F56
:1006D000845F823008F451C0113F61F0123F41F451
:1006E00083E080936B0280936802109269022FC0AE
:1006F000133F11F482E0F5CF163F29F48FE0809389
:100700006B0281E0F0CF17FF15C0E12FF0E0B4E0FD
:10071000F595E795BA95E1F7E0936B02EE0FFF1FB1
:10072000EF5FFE4F80818093680210926902109300
:1007300067020DC080916902882349F480916702A5
:100740008823D9F081E0809369021092670280913A
:100750006902E82FF0E0E459FD4F1083682F6F5FC6
:100760006093690280916802681739F48BE692E021
:1007700013DF1092690281E001C080E00F900F90BA
:100780000F900F90CF91DF911F910895CF92DF923C
:10079000EF92FF921F93DF93CF9300D000D0CDB79D
:1007A000DEB7B6DE8BB180638F7D8BB980914C0153
:1007B000882309F486C08BE591E067E671E040E8A4
:1007C00050E093DD8FE491E067EE71E040E850E0A7
:1007D0008CDD1092C90088E98093C9008EE085B94C
:1007E000789488EBC82E8BE0D82E7E010894E11C0B
:1007F000F11C8091480190914901009731F00197D7
:10080000909349018093480101C05D9A80914A010B
:1008100090914B01009731F0019790934B01809399
:100820004A0101C05C9AE1DE2FB7F894809165011E
:10083000909166012FBF892B99F08091C80085FFA8
:100840000FC08BE591E083DD982F8091C80085FF74
:10085000FCCF9093CE005D98D0924901C0924801A0
:1008600080916301909164014FB7F89420916501E4
:10087000309166014FBF821B930B049700F181E218
:1008800091E0B701CBD68823D1F0E981EF70E23057
:10089000B0F0F0E0EE0FFF1FEF5FFE4F10818BE531
:1008A00091E06A8135DD123050F08BE591E06B818B
:1008B0002FDD133021F48BE591E06C8129DD2FD5FC
:1008C00098CF8BE591E067E671E040E850E00DDD00
:1008D0008FE491E067EE71E040E850E006DD789447
:1008E0008FB7F89420916501309166018FBF809198
:1008F0006301909164012817390749F08DE291E076
:1009000022D5BC0197FD03C08BE591E001DD8FB7D7
:10091000F8942091590130915A018FBF211531056A
:1009200009F180912E018F708093E9008091E80099
:1009300080FF18C0C9012034310510F08FE390E02A
:10094000182F0EC0E0915101F09152018DE291E01B
:1009500060816AD51150882329F48FE491E0F7DC97
:10096000112381F78091C80085FF13C02FB7F89439
:1009700080916501909166012FBF892B51F08BE525
:1009800091E0E5DC982F8091C80085FFFCCF909323
:10099000CE008DE291E031D5C2D4A2CFDA019230FF
:1009A00089F09330E9F0913009F049C080914C0111
:1009B000882319F4E7EFF1E002C0E6E0F1E022E17C
:1009C00030E041C080914C01882329F4E9E0F2E055
:1009D0002EE330E038C0E8E1F1E025E630E033C056
:1009E000813059F0813028F0823099F08C3D39F512
:1009F0001CC0E7E4F2E084911FC080914C01882381
:100A000021F0E8E9F0E0849117C0EDE7F1E084918E
:100A100013C080914C01882321F0EAECF0E084912E
:100A20000BC0E1EBF1E0849107C080914C01882379
:100A300031F4EBECF1E08491282F30E004C0E0E0E9
:100A4000F0E020E030E0ED93FC93C90108959C01B3
:100A500040917702509178024617570718F4F90130
:100A600090E03CC06115710511F0AB01F8CF8091A9
:100A7000E8008E778093E80040E050E0F0CF8BB53F
:100A8000882309F440C0853009F43FC08091E80014
:100A900083FD3DC08091E80082FD2FC08091E80079
:100AA00080FF1CC08091F200282F30E007C08191A8
:100AB0008093F100415050402F5F3F4F4115510549
:100AC00019F02830310598F390E02830310509F409
:100AD00091E08091E8008E778093E8004115510500
:100AE00071F6992361F609C08BB5882361F08530D2
:100AF00061F08091E80083FD0AC08091E80082FFE8
:100B0000F3CF80E0089582E0089583E0089581E0C6
:100B100008959C014091770250917802461757073B
:100B200018F4F90190E03DC06115710511F0AB01B9
:100B3000F8CF8091E8008E778093E80040E050E0A5
:100B4000F0CF8BB5882309F441C0853009F440C04B
:100B50008091E80083FD3EC08091E80082FD30C0B6
:100B60008091E80080FF1DC08091F200282F30E0C6
:100B700008C084918093F1003196415050402F5F1E
:100B80003F4F4115510519F02830310590F390E0A1
:100B90002830310509F491E08091E8008E77809348
:100BA000E8004115510569F6992359F609C08BB53E
:100BB000882361F0853061F08091E80083FD0AC0F0
:100BC0008091E80082FFF3CF80E0089582E00895ED
:100BD00083E0089581E00895BF92CF92DF92EF9273
:100BE000FF920F931F93CF93DF93182F092F7B0151
:100BF0006A0129D1B82E8823B1F5812F902F9C014D
:100C0000E901C114D10439F0F60180819181E81A1B
:100C1000F90AC80FD91F00E010E022C08091E80057
:100C200085FD16C08091E8008B778093E80077D32C
:100C3000C114D10449F0F60180819181800F911F88
:100C40009183808385E010C0FED0882349F00CC0DA
:100C50008091F10089930894E108F1080F5F1F4F1C
:100C6000E114F104D9F68B2DDF91CF911F910F91F3
:100C7000FF90EF90DF90CF90BF900895BF92CF92FA
:100C8000DF92EF92FF920F931F93CF93DF93182F72
:100C9000092F7B016A01D7D0B82E8823B1F5812FA7
:100CA000902F9C01E901C114D10439F0F601808133
:100CB0009181E81AF90AC80FD91F00E010E022C09C
:100CC0008091E80085FD16C08091E8008E778093C2
:100CD000E80025D3C114D10449F0F6018081918147
:100CE000800F911F9183808385E010C0ACD0882352
:100CF00049F00CC089918093F1000894E108F10853
:100D00000F5F1F4FE114F104D9F68B2DDF91CF91C6
:100D10001F910F91FF90EF90DF90CF90BF900895BB
:100D2000382F282F2EC0822F8F708093E900231731
:100D300021F4762F942F50E006C07091EC00909132
:100D4000ED005091F00091FF1BC08091EB008E7F71
:100D50008093EB008091ED008D7F8093ED0080917A
:100D6000EB0081608093EB007093EC009093ED00BA
:100D70005093F0008091EE0087FD02C080E008955E
:100D80002F5F253080F23F703093E90081E00895B5
:100D90000F931F93CF93DF93062FEC0110E02AC02F
:100DA0009881992329F16B81E981FA812C81892F1E
:100DB0008F70853018F5223010F452E001C056E0F3
:100DC00040E028E030E003C04F5F220F331F2E17B2
:100DD0003F07D0F36295660F660F607C991F9927D5
:100DE000991F692B4295407F452B9ADF882331F06C
:100DF0001F5F25961017A0F281E001C080E0DF910F
:100E0000CF911F910F9108958091710288238CF4E6
:100E100003C08BB58823B1F08091E80082FFF9CF41
:100E20008091E8008B778093E80008958BB5882344
:100E300049F08091E80080FFF9CF8091E8008E773B
:100E40008093E80008954091E4005091E50024E685
:100E50008091EC0080FF23C08091E80080FD1DC0E0
:100E60008BB5882311F482E00895853011F483E076
:100E700008958091EB0085FF02C081E00895809184
:100E8000E4009091E5008417950711F3222311F4F3
:100E900084E008952150AC01DBCF80E0089580917B
:100EA000E80082FFDDCFF9CF3CD03ED08091D80062
:100EB0008F778093D8008091D80080688093D80085
:100EC0008091D8008F7D8093D80084E089BD86E032
:100ED00089BD09B400FEFDCF1BBC10926F0280E0FB
:100EE00060E042E01DDF8091E1008E7F8093E100B1
:100EF0008091E20081608093E2008091E20088604E
:100F00008093E2008091E0008E7F8093E00008955E
:100F1000E3E6F0E080818E7F808381E08093700241
:100F2000C3CF1092E20008951092E10008951F923D
:100F30000F920FB60F9211242F933F934F935F930D
:100F40006F937F938F939F93AF93BF93EF93FF9391
:100F50008091E10082FF0AC08091E20082FF06C01A
:100F60008091E1008B7F8093E100D8D18091E100F6
:100F700080FF16C08091E20080FF12C08091E200E5
:100F80008E7F8093E2008091E20080618093E20096
:100F90008091D80080628093D80019BC1BBCF9D91D
:100FA0008091E10084FF2EC08091E20084FF2AC07E
:100FB00084E089BD86E089BD09B400FEFDCF809143
:100FC000D8008F7D8093D8008091E1008F7E809340
:100FD000E1008091E2008F7E8093E2008091E20048
:100FE00081608093E20080916F02882311F084E099
:100FF00007C08091E30087FD02C081E001C083E06B
:101000008BBDC2D98091E10083FF21C08091E200B5
:1010100083FF1DC08091E100877F8093E10082E023
:101020008BBD10926F028091E1008E7F8093E10072
:101030008091E2008E7F8093E2008091E2008061E7
:101040008093E20080E060E042E06ADE67D1FF91D9
:10105000EF91BF91AF919F918F917F916F915F9130
:101060004F913F912F910F900FBE0F901F901895A9
:101070001F93DF93CF93CDB7DEB7AC970FB6F8943D
:10108000DEBF0FBECDBFE1E7F2E08091F1008193BA
:1010900022E0E937F207C9F71CDA8091E80083FF04
:1010A00025C18091710290917202953009F475C04A
:1010B000963040F49130A9F1913070F0933009F0FE
:1010C00015C12FC0983009F4E4C0993009F4F3C079
:1010D000963009F00BC183C0803811F490E017C03E
:1010E000823809F003C1809175028F70853008F055
:1010F000FDC08093E9008091EB0090E025E096959B
:1011000087952A95E1F7982F91701092E9008091C8
:10111000E800877F8093E8009093F1001092F1003F
:10112000C3C0882319F0823009F0E0C08F7182308B
:1011300009F0DCC080917302882349F52091750283
:101140002F70822F8150843008F0D0C02093E900A6
:101150008091EB0080FF1BC0933021F48091EB0065
:10116000806213C08091EB0080618093EB0081E08E
:1011700090E002C0880F991F2A95E2F78093EA0059
:101180001092EA008091EB0088608093EB0010924F
:10119000E9008091E800877F8AC0882309F0A6C013
:1011A000109173021F778091E3008078812B8093E8
:1011B000E3008091E800877F8093E80025DE80913E
:1011C000E80080FFFCCF8091E30080688093E3001B
:1011D000112311F482E001C083E08BBD87C08058E9
:1011E000823008F083C0809173029091740223E0F2
:1011F0008C3D920709F033C083E08C838AE28B83B5
:101200007FB7F894DE0115966EE040E050E011E201
:10121000E62FF0E010935700849140FF03C08295C1
:101220008F706F5F8F70282F30E08A3018F0C901FF
:10123000C79602C0C901C0968D939D934F5F5F4FC3
:101240004431510529F77FBF8091E800877F809363
:10125000E800CE0103966AE270E0F9DB14C0609109
:10126000750270917602AE014F5F5F4F97DBBC0154
:10127000009709F43BC08091E800877F8093E800E5
:1012800089819A8146DC8091E8008B778093E80021
:101290002DC0803859F58091E800877F8093E80061
:1012A00080916F028093F1008091E8008E778093A7
:1012B000E800AADD1BC08823C9F490917302923024
:1012C000A8F48091E800877F8093E80090936F02F4
:1012D0009BDD80916F02882331F48091E30087FDCC
:1012E00002C081E001C084E08BBDFBD88091E800A2
:1012F00083FF0AC08091E800877F8093E800809197
:10130000EB0080628093EB00AC960FB6F894DEBFE2
:101310000FBECDBFCF91DF911F91089508951F9308
:101320008BB5882371F01091E9008091EC00109248
:10133000E9008091E80083FF01C09ADE1F701093DE
:10134000E9001F910895FC018BB5843029F584894B
:101350009589A689B7890097A105B105E9F086812D
:101360008F708093E9008091E80082FF15C0809122
:10137000F200882319F42FEF3FEF04C08091F100B1
:10138000282F30E08091F200882341F48091E8001A
:101390008B778093E80002C02FEF3FEFC9010895DB
:1013A0000895FC018BB5843019F584899589A68947
:1013B000B7890097A105B105D9F081818F7080931D
:1013C000E9008091F2008823A9F09091E8008091D3
:1013D000E8008E778093E80095FD0CC034DD982FEF
:1013E000882349F48091E8008E778093E80003C059
:1013F00092E001C090E0892F0895FC018BB5843004
:1014000091F484899589A689B7890097A105B105CA
:1014100051F081818F708093E9008091E80080FF16
:1014200002C0CF01BECF08951F93FC01162F8BB5CC
:101430008430E1F484899589A689B7890097A1054C
:10144000B105A1F081818F708093E9008091E8005F
:1014500085FD08C08091E8008E778093E800F3DC7A
:10146000882329F41093F10080E001C082E01F91ED
:101470000895CF93DF93EC014096FC018BE0DF01F0
:101480001D928A95E9F782E08C83898783E08E87B5
:10149000CE01019661E07CDC882371F0CE010696D6
:1014A00061E076DC882341F0CE010B9661E070DCD0
:1014B000882319F081E001C080E0DF91CF91089589
:1014C000CF93DF93EC018091E80083FFA4C0888173
:1014D00090E020917502309176022817390709F0C3
:1014E0009AC080917202813269F0823220F4803297
:1014F00009F091C03CC0823209F46BC0833209F01C
:101500008AC07BC080917102813A09F084C08091C9
:10151000E800877F8093E8008091E80080FFFCCF9F
:101520008C899D89AE89BF898093F100292F3A2F3C
:101530004B2F55272093F1009D01442755272093D9
:10154000F1008B2F9927AA27BB278093F100888D64
:101550008093F100898D8093F1008A8D8093F10052
:101560008091E8008E778093E8004EDC54C0809133
:101570007102813209F04FC08091E800877F80932B
:10158000E80004C08BB5882309F445C08091E800C9
:1015900082FFF8CF8091F1009091F1002091F1004D
:1015A0003091F1008C8B9D8B2E8B3F8B8091F100C5
:1015B000888F8091F100898F8091F1008A8F8091CE
:1015C000E8008B778093E8001FDCCE010E94D601F3
:1015D00022C0809171028132F1F48091E800877F0E
:1015E0008093E80011DC8091730290917402998BD2
:1015F000888BCE010E94CE010EC080917102813293
:1016000051F48091E800877F8093E800FDDBCE01F4
:1016100060917302C5DEDF91CF910895FC018BB517
:101620008430E9F486818F708093E9008091E8002E
:1016300082FF15C08091E80085FF11C0CB0164E0F6
:1016400070E040E050E0C8DA8091E80085FD05C018
:101650008091E8008B778093E80081E0089580E036
:101660000895FC018BB5843011F082E008958181EA
:101670008F708093E9008091F200882331F080918F
:10168000E8008E778093E800DECB0895FC018BB5EF
:10169000843011F092E016C081818F708093E90050
:1016A000CB0164E070E040E050E0E8DA982F882356
:1016B00049F48091E80085FD05C08091E8008E77AF
:1016C0008093E800892F0895CF93DF93EC011B8668
:1016D00082E08C838987CE01019661E059DB882303
:1016E00031F0CE01069661E053DB811181E0DF919C
:1016F000CF910895A1E21A2EAA1BBB1BFD010DC0BC
:10170000AA1FBB1FEE1FFF1FA217B307E407F507B1
:1017100020F0A21BB30BE40BF50B661F771F881F8D
:10172000991F1A9469F760957095809590959B0123
:10173000AC01BD01CF010895DC0101C06D934150A2
:0A1740005040E0F70895F894FFCF41
:10174A000100000000020003000300010002000380
:10175A00000300030003000300020002000300016B
:10176A000001811000000102100000010000834006
:10177A00000001044000000182080000010000008E
:08178A00000000000000000057
:00000001FF
