:10000000FEC0000018C1000016C1000014C10000AD
:1000100012C1000010C100000EC100000CC10000A0
:100020000AC1000008C1000006C100000C942509A7
:1000300002C1000000C10000FEC00000FCC00000C2
:10004000FAC00000F8C00000F6C00000F4C00000D4
:10005000F2C00000F0C00000EEC00000E8C10000E7
:10006000EAC00000E8C00000E6C00000E4C00000F4
:10007000E2C00000E0C00000DEC00000DCC0000004
:10008000DAC00000D8C00000D6C00000D4C0000014
:10009000D2C00000D0C000003003540068006500EA
:1000A00020004B0069006B00470065006E002000D7
:1000B0004D004900440049002000660061006300D3
:1000C00074006F00720079000000090265000201EF
:1000D00000C03209040000000101000009240100F1
:1000E00001090001010904010002010300000724C5
:1000F000010001410006240201010006240202025F
:100100000009240301030102010009240302040180
:10011000010100090502021000000000052501018F
:1001200001090581021000000000052501010332CC
:1001300003410072006400750069006E006F0020CA
:100140000028007700770077002E006100720064BD
:1001500000750069006E006F002E006300630029C7
:100160000000001803410072006400750069006E11
:10017000006F00200055006E006F0000002A03355C
:1001800000350037003300320033003200330034D2
:1001900000330030003300350031003700310038C3
:1001A0000031003800300000001201100102000090
:1001B000084123010001000102DC0109023E0002A6
:1001C0000100C03209040000010202010005240000
:1001D0000110042402060524060001070582030815
:1001E00000FF09040100020A0000000705040240A4
:1001F00000010705830240000104030904001124E3
:100200001FBECFEFD2E0DEBFCDBF11E0A0E0B1E076
:10021000E8E1FBE102C005900D92A039B107D9F7E2
:1002200012E0A0E9B1E001C01D92AF35B107E1F7DE
:10023000B9D30C948A0DE4CEFF920F931F938B01D8
:100240009C01F42E9695879577956795FF2029F068
:1002500060587B47814E9F4F04C0605C7D4B804F50
:100260009F4FA90198010E94250D215030403093E5
:10027000CD002093CC0086E08093CA00FF2011F4CB
:1002800080E001C082E08093C80088E18093C900CB
:10029000539A5A9A1F910F91FF900895FC018FB7BE
:1002A000F894718360837383628375836483640FBE
:1002B000751F7783668351874087138612868FBFA9
:1002C0000895CF93DF93EC01E881F9816083888101
:1002D00099810196998388832E813F8182179307A4
:1002E00021F48C819D81998388832FB7F8948A8526
:1002F0009B8501969B878A872FBFDF91CF910895B9
:10030000CF93DF93EC01EA81FB813191FB83EA8398
:100310008E819F81E817F90721F48C819D819B8351
:100320008A832FB7F8948A859B8501979B878A8754
:100330002FBF832FDF91CF9108958BB180638F7E84
:100340008BB908958BB180638F7D8BB90895FC01C3
:10035000208920FF02C05F9808955F9A0895DF9278
:10036000EF92FF920F931F93FC01818D813019F062
:10037000823021F405C070E3D72E04C0DD2402C012
:1003800060E2D62E808D823011F488E0D82A828DEA
:10039000873031F0883031F0863031F482E003C0AC
:1003A00084E001C086E0D82A1092C9001092C800EB
:1003B0001092CA00E488F5880689178980E0E8165B
:1003C00081EEF80680E0080780E0180719F420E1C4
:1003D00030E010C0C801B70196958795779567956D
:1003E00060587B47814E9F4FA80197010E94250DC1
:1003F000215030403093CD002093CC00D092CA00E1
:1004000080E0E81681EEF80680E0080780E0180733
:1004100011F082E001C080E08093C80088E98093F9
:10042000C9001F910F91FF90EF90DF9008951F92E8
:100430000F920FB60F9211242F933F934F935F9318
:100440006F937F938F939F93AF93BF93EF93FF939C
:100450008091CE00809396016091960183EE91E0A9
:1004600030DFFF91EF91BF91AF919F918F917F917D
:100470006F915F914F913F912F910F900FBE0F9011
:100480001F90189580919401882321F484E791E0CE
:100490000C94FC0B089580919401882329F088E640
:1004A00091E00E940F0D04C084E791E00E94D50BFB
:1004B000817011F490E201C090E18BB1909580635E
:1004C00098239BB9089584B7877F84BF88E10FB6CE
:1004D000F89480936000109260000FBE90E080E876
:1004E0000FB6F89480936100909361000FBE82E094
:1004F00084B98CE085B923B130E0369527953695DF
:10050000279521702093940183B190E0E3E09695C4
:100510008795EA95E1F7817080933201222329F0D3
:1005200062E17AE780E090E004C060E875E280E094
:1005300090E040E081DE8AB180638AB98BB180634C
:100540008BB974D684E085BD5F9A579A089587E980
:1005500091E060E070E04AE450E00E945B0D87E9C2
:1005600091E060E071E043E050E00E94470D0097A9
:1005700059F480919A01813039F480919B019091D6
:100580009C0185569240D1F1E7E9F1E08AE4DF0170
:100590001D928A95E9F7A0E0B1E083E00D90019209
:1005A0008150E1F781E080939A0185E692E0909393
:1005B0009C0180939B0182E199E290939E0180933C
:1005C0009D0187E699E19093A00180939F018EE2BF
:1005D0008093A10183E08093A201A3EAB1E0E4E06B
:1005E000F1E08EE201900D928150E1F787E991E010
:1005F00060E070E04AE450E00E94730D80919D013C
:1006000090919E0190935F0180935E0180919F0184
:100610009091A001909361018093600181EA91E043
:100620009093E2018093E1010895CF93DF93EC0171
:10063000633088F4862F90E023E030E0281B390BEC
:100640002196AE01480F591F2197CA0160E070E062
:10065000A9010E94540D88E691E0BE010E94F10CB0
:1006600088E691E00E94CD0C5C9888EB9BE090932B
:10067000930180939201DF91CF9108951F93DF93AF
:10068000CF9300D000D0CDB7DEB78BB5843009F062
:1006900080C12FB7F8948091ED019091EE012FBFAA
:1006A000892B09F476C183EE91E02ADE182F809120
:1006B0003201882341F48FE080935102109352025B
:1006C00081E592E007C0183F40F08FE089831A83EC
:1006D000CE01019661E0A9DF5AC1809150028823C2
:1006E00009F4F0C080914F0217FFA9C0882309F4D4
:1006F0008CC030914E02325030932B0280912C02EC
:100700008A3049F08A3008F479C08B3081F08C301F
:1007100009F074C02EC029E088E190E00FB6F8948B
:10072000A895809360000FBE20936000FFCF832FB9
:1007300090E080970CF062C0E3EAF1E08EE3DF0125
:100740001D928A95E9F7ADE2B2E022E007C08D91F3
:1007500087FD54C0808311822F5F3296822F825092
:100760003217A8F790E00196880F991F8093A10196
:100770003DC0393009F042C080912D02382F3295AA
:10078000307F20E090912E0280E0280F391F809169
:100790003002280F311D80912F0290E054E0880F25
:1007A000991F5A95E1F7280F391F30939E01209326
:1007B0009D0180913102382F3295307F20E0909159
:1007C000320280E0280F391F80913402280F311D3A
:1007D0008091330290E044E0880F991F4A95E1F739
:1007E000280F391F3093A00120939F0187E991E0E2
:1007F00060E070E04AE450E00E94730D10924F02F6
:100800001092500210924D025DC090914D02E92F5E
:10081000F0E0EE5AFD4F87EF8083692F6F5F6093A2
:100820004D029B5F9093510281E592E0FEDE1092B3
:10083000500210924D02173F09F047C0A8C088230C
:1008400079F480915202803F49F580914D028130C8
:1008500029F5173719F510924E0280934F0299C06F
:1008600080914E028F5F80934E02E82FF0E083303C
:1008700040F0CF0103974F9750F4E75DFD4F108391
:1008800088C0ED5CFE4F8081181709F482C0109279
:100890004F021092500210924D027BC080914D0287
:1008A000E82FF0E0EE5AFD4F10838F5F80934D02EA
:1008B000833009F06EC084E08093510281E592E0BC
:1008C00063E062C0173F09F464C0103F60F010920B
:1008D0004B02103F41F481E080935002109352028A
:1008E00080934D0256C0812F845F823008F451C03E
:1008F000113F61F0123F41F483E0809351028093F5
:100900004C0210924D022FC0133F11F482E0F5CF3C
:10091000163F29F48FE08093510281E0F0CF17FF5A
:1009200015C0E12FF0E0B4E0F595E795BA95E1F751
:10093000E0935102EE0FFF1FEA5CFE4F808180932F
:100940004C0210924D0210934B020DC080914D024B
:10095000882349F480914B028823D9F081E0809369
:100960004D0210924B0280914D02E82FF0E0EE5ABA
:10097000FD4F1083682F6F5F60934D0280914C0292
:10098000681739F481E592E050DE10924D0281E063
:1009900001C080E00F900F900F900F90CF91DF91EA
:1009A0001F910895CF92DF92EF92FF921F93DF93F2
:1009B000CF9300D000D0CDB7DEB7C9DD84DD8BB1D9
:1009C00080638F7D8BB980919401882309F489C05D
:1009D0008FEE91E06BEF71E040E250E05FDC83EE80
:1009E00091E06BE172E040E150E058DC1092C90008
:1009F00088E98093C9008EE085B97894E8EBCE2E23
:100A0000EBE0DE2E7E010894E11CF11C8091900148
:100A100090919101009731F001979093910180930B
:100A2000900101C05D9A809192019091930100978D
:100A300031F00197909393018093920101C05C9AE9
:100A40001DDE2FB7F8948091F9019091FA012FBF24
:100A5000892B99F08091C80085FF0FC08FEE91E03F
:100A60004FDC982F8091C80085FFFCCF9093CE007B
:100A70005D98D0929101C09290018091F701909180
:100A8000F8014FB7F8942091F9013091FA014FBF66
:100A9000821B930B049700F188E691E0B7015AD7C7
:100AA0008823D1F0E981EF70E230B0F0F0E0EE0F92
:100AB000FF1FEA5CFE4F10818FEE91E06A8101DC3E
:100AC000123050F08FEE91E06B81FBDB133021F49C
:100AD0008FEE91E06C81F5DB88E691E073D7BBD5B2
:100AE00095CF8FEE91E06BEF71E040E250E0D6DB06
:100AF00083EE91E06BE172E040E150E0CFDB78946F
:100B00008FB7F8942091F9013091FA018FBF80914D
:100B1000F7019091F8012817390749F084E791E02F
:100B2000AED5BC0197FD03C08FEE91E0CADB8FB755
:100B3000F8942091ED013091EE018FBF2115310520
:100B400009F1809175018F708093E9008091E80030
:100B500080FF18C0C9012034310510F08FE390E008
:100B6000182F0EC0E091E501F091E60184E791E0D5
:100B70006081F6D51150882329F483EE91E0C0DB23
:100B8000112381F78091C80085FF13C02FB7F89417
:100B90008091F9019091FA012FBF892B51F08FEECE
:100BA00091E0AEDB982F8091C80085FFFCCF909339
:100BB000CE0084E791E0BDD54ED5A2CFCF93DF9391
:100BC000682FEA01D9011C92923099F09330F9F024
:100BD000913009F050C080919401882319F4E9EA1A
:100BE000F1E004C082E08C93E6E5F1E022E130E040
:100BF00046C080919401882329F4EBEBF1E02EE3C9
:100C000030E03DC0EAECF0E025E630E038C081306D
:100C100059F0813028F0823099F08C3D61F521C087
:100C2000E9EFF1E0849124C080919401882321F0C0
:100C3000E8E9F0E084911CC0EFE2F1E0849118C093
:100C400080919401882349F0E091E101F091E20163
:100C50008081282F30E06C9312C0E3E6F1E08491AC
:100C600007C080919401882331F4EDE7F1E084918D
:100C7000282F30E004C0E0E0F0E020E030E0F9832D
:100C8000E883C901DF91CF9108959C0140915D02F5
:100C900050915E024617570718F4F90190E03CC0E6
:100CA0006115710511F0AB01F8CF8091E8008E77E6
:100CB0008093E80040E050E0F0CF8BB5882309F442
:100CC00040C0853009F43FC08091E80083FD3DC0FD
:100CD0008091E80082FD2FC08091E80080FF1CC059
:100CE0008091F200282F30E007C081918093F100BD
:100CF000415050402F5F3F4F4115510519F02830AA
:100D0000310598F390E02830310509F491E08091A5
:100D1000E8008E778093E8004115510571F699231C
:100D200061F609C08BB5882361F0853061F0809150
:100D3000E80083FD0AC08091E80082FFF3CF80E0E5
:100D4000089582E0089583E0089581E008959C016C
:100D500040915D0250915E024617570718F4F90161
:100D600090E03DC06115710511F0AB01F8CF8091A5
:100D7000E8008E778093E80040E050E0F0CF8BB53C
:100D8000882309F441C0853009F440C08091E8000F
:100D900083FD3EC08091E80082FD30C08091E80074
:100DA00080FF1DC08091F200282F30E008C08491A0
:100DB0008093F1003196415050402F5F3F4F4115D5
:100DC000510519F02830310590F390E028303105B5
:100DD00009F491E08091E8008E778093E800411556
:100DE000510569F6992359F609C08BB5882361F03E
:100DF000853061F08091E80083FD0AC08091E800B1
:100E000082FFF3CF80E0089582E0089583E00895A3
:100E100081E00895EF92FF920F931F93CF93DF939A
:100E20009C0100915D0210915E020617170718F4ED
:100E3000790190E03EC06115710511F08B01F8CF8A
:100E40008091E8008E778093E80000E010E0F0CF1A
:100E50008BB5882309F442C0853009F441C08091E4
:100E6000E80083FD3FC08091E80082FD31C08091A1
:100E7000E80080FF1EC08091F200C82FD0E00AC0B9
:100E8000C70129D68093F1000894E11CF11C0150A0
:100E9000104021960115110519F0C830D10580F3D5
:100EA00090E0289709F491E08091E8008E77809394
:100EB000E8000115110561F6992351F609C08BB5BB
:100EC000882361F0853061F08091E80083FD0AC0DD
:100ED0008091E80082FFF3CF80E005C082E003C08C
:100EE00083E001C081E0DF91CF911F910F91FF90CE
:100EF000EF900895BF92CF92DF92EF92FF920F93FF
:100F00001F93CF93DF93182F092F7B016A0129D1FB
:100F1000B82E8823B1F5812F902F9C01E901C114CF
:100F2000D10439F0F60180819181E81AF90AC80FDD
:100F3000D91F00E010E022C08091E80085FD16C0B6
:100F40008091E8008B778093E80085D3C114D104A9
:100F500049F0F60180819181800F911F91838083F8
:100F600085E010C0FED0882349F00CC08091F100CC
:100F700089930894E108F1080F5F1F4FE114F10411
:100F8000D9F68B2DDF91CF911F910F91FF90EF90AC
:100F9000DF90CF90BF900895BF92CF92DF92EF92F3
:100FA000FF920F931F93CF93DF93182F092F7B018D
:100FB0006A01D7D0B82E8823B1F5812F902F9C01DC
:100FC000E901C114D10439F0F60180819181E81A58
:100FD000F90AC80FD91F00E010E022C08091E80094
:100FE00085FD16C08091E8008E778093E80033D3AA
:100FF000C114D10449F0F60180819181800F911FC5
:101000009183808385E010C0ACD0882349F00CC068
:1010100089918093F1000894E108F1080F5F1F4F58
:10102000E114F104D9F68B2DDF91CF911F910F912F
:10103000FF90EF90DF90CF90BF900895382F282F2A
:101040002EC0822F8F708093E900231721F4762F12
:10105000942F50E006C07091EC009091ED005091FB
:10106000F00091FF1BC08091EB008E7F8093EB001E
:101070008091ED008D7F8093ED008091EB00816089
:101080008093EB007093EC009093ED005093F00090
:101090008091EE0087FD02C080E008952F5F25302B
:1010A00080F23F703093E90081E008950F931F9321
:1010B000CF93DF93062FEC0110E02AC0988199238B
:1010C00029F16B81E981FA812C81892F8F7085301C
:1010D00018F5223010F452E001C056E040E028E05C
:1010E00030E003C04F5F220F331F2E173F07D0F3AE
:1010F0006295660F660F607C991F9927991F692B6F
:101100004295407F452B9ADF882331F01F5F25965B
:101110001017A0F281E001C080E0DF91CF911F9114
:101120000F9108958091570288238CF403C08BB5EA
:101130008823B1F08091E80082FFF9CF8091E80028
:101140008B778093E80008958BB5882349F08091D0
:10115000E80080FFF9CF8091E8008E778093E80067
:1011600008954091E4005091E50024E68091EC0060
:1011700080FF23C08091E80080FD1DC08BB58823CF
:1011800011F482E00895853011F483E00895809190
:10119000EB0085FF02C081E008958091E40090910A
:1011A000E5008417950711F3222311F484E00895D4
:1011B0002150AC01DBCF80E008958091E80082FFF0
:1011C000DDCFF9CF3CD03ED08091D8008F7780938F
:1011D000D8008091D80080688093D8008091D80092
:1011E0008F7D8093D80084E089BD86E089BD09B4F5
:1011F00000FEFDCF1BBC1092550280E060E042E093
:101200001DDF8091E1008E7F8093E1008091E200FC
:1012100081608093E2008091E20088608093E20028
:101220008091E0008E7F8093E0000895E3E6F0E097
:1012300080818E7F808381E080935602C3CF10929D
:10124000E20008951092E10008951F920F920FB6E8
:101250000F9211242F933F934F935F936F937F933C
:101260008F939F93AF93BF93EF93FF938091E10090
:1012700082FF0AC08091E20082FF06C08091E100F7
:101280008B7F8093E100E6D18091E10080FF16C062
:101290008091E20080FF12C08091E2008E7F8093F7
:1012A000E2008091E20080618093E2008091D800AA
:1012B00080628093D80019BC1BBC44D88091E100A7
:1012C00084FF2EC08091E20084FF2AC084E089BDA3
:1012D00086E089BD09B400FEFDCF8091D8008F7DE6
:1012E0008093D8008091E1008F7E8093E10080910F
:1012F000E2008F7E8093E2008091E2008160809323
:10130000E20080915502882311F084E007C08091AB
:10131000E30087FD02C081E001C083E08BBD0DD8F2
:101320008091E10083FF21C08091E20083FF1DC016
:101330008091E100877F8093E10082E08BBD109275
:1013400055028091E1008E7F8093E1008091E20060
:101350008E7F8093E2008091E20080618093E200C2
:1013600080E060E042E06ADE75D1FF91EF91BF91CD
:10137000AF919F918F917F916F915F914F913F912D
:101380002F910F900FBE0F901F9018951F93DF9312
:10139000CF93CDB7DEB7AD970FB6F894DEBF0FBED3
:1013A000CDBFE7E5F2E08091F100819322E0EF35D7
:1013B000F207C9F767D88091E80083FF33C18091B5
:1013C000570290915802953009F475C0963040F458
:1013D0009130A9F1913070F0933009F023C12FC002
:1013E000983009F4F1C0993009F400C1963009F041
:1013F00019C183C0803811F490E017C0823809F019
:1014000011C180915B028F70853008F00BC1809311
:10141000E9008091EB0090E025E0969587952A956C
:10142000E1F7982F91701092E9008091E800877F92
:101430008093E8009093F1001092F100D0C08823CF
:1014400019F0823009F0EEC08F71823009F0EAC0E5
:1014500080915902882349F520915B022F70822FD9
:101460008150843008F0DEC02093E9008091EB00C9
:1014700080FF1BC0933021F48091EB00806213C089
:101480008091EB0080618093EB0081E090E002C0EE
:10149000880F991F2A95E2F78093EA001092EA00DC
:1014A0008091EB0088608093EB001092E9008091BE
:1014B000E800877F97C0882309F0B4C010915902D3
:1014C0001F778091E3008078812B8093E3008091E7
:1014D000E800877F8093E80025DE8091E80080FFA8
:1014E000FCCF8091E30080688093E300112311F426
:1014F00082E001C083E08BBD95C08058823008F047
:1015000091C08091590290915A0223E08C3D92073C
:1015100009F032C083E08D838AE28C837FB7F89430
:10152000DE0116966EE040E050E011E2E62FF0E0BA
:1015300010935700849140FF03C082958F706F5FB6
:101540008F70282F30E08A3018F0C901C79602C08A
:10155000C901C0968D939D934F5F5F4F44315105F4
:1015600029F77FBF8091E800877F8093E800CE0154
:1015700004966AE270E021C060915B0270915C02A7
:10158000AE014E5F5F4F9E012F5F3F4F17DBBC01E7
:10159000009709F447C08091E800877F8093E800B6
:1015A0002981222321F48A819B81D1DB07C08A8192
:1015B0009B81213011F42EDC01C067DB8091E800B3
:1015C0008B778093E8002EC0803861F58091E80029
:1015D000877F8093E800809155028093F10080918D
:1015E000E8008E778093E8009DDD1CC08823D1F44D
:1015F000909159029230B0F48091E800877F8093F7
:10160000E800909355028EDD80915502882331F4D5
:101610008091E30087FD02C081E001C084E08BBDC2
:101620000E944B028091E80083FF0AC08091E8008D
:10163000877F8093E8008091EB0080628093EB00CD
:10164000AD960FB6F894DEBF0FBECDBFCF91DF9140
:101650001F91089508951F938BB5882371F0109101
:10166000E9008091EC001092E9008091E80083FF8E
:1016700001C08CDE1F701093E9001F910895FC01DA
:101680008BB5843029F584899589A689B789009717
:10169000A105B105E9F086818F708093E900809102
:1016A000E80082FF15C08091F200882319F42FEF23
:1016B0003FEF04C08091F100282F30E08091F200CC
:1016C000882341F48091E8008B778093E80002C082
:1016D0002FEF3FEFC90108950895FC018BB58430C9
:1016E00019F584899589A689B7890097A105B1055F
:1016F000D9F081818F708093E9008091F200882376
:10170000A9F09091E8008091E8008E778093E8003E
:1017100095FD0CC026DD982F882349F48091E800C0
:101720008E778093E80003C092E001C090E0892F9B
:101730000895FC018BB5843091F484899589A6893C
:10174000B7890097A105B10551F081818F70809311
:10175000E9008091E80080FF02C0CF01BECF08956C
:101760001F93FC01162F8BB58430E1F48489958991
:10177000A689B7890097A105B105A1F081818F7075
:101780008093E9008091E80085FD08C08091E80021
:101790008E778093E800E5DC882329F41093F1002C
:1017A00080E001C082E01F910895CF93DF93EC01A8
:1017B0004096FC018BE0DF011D928A95E9F782E0FB
:1017C0008C83898783E08E87CE01019661E06EDC91
:1017D000882371F0CE01069661E068DC882341F031
:1017E000CE010B9661E062DC882319F081E001C034
:1017F00080E0DF91CF910895CF93DF93EC0180914A
:10180000E80083FFA4C0888190E020915B023091C2
:101810005C022817390709F09AC08091580281327A
:1018200069F0823220F4803209F091C03CC08232EB
:1018300009F46BC0833209F08AC07BC080915702E3
:10184000813A09F084C08091E800877F8093E800A6
:101850008091E80080FFFCCF8C899D89AE89BF898B
:101860008093F100292F3A2F4B2F55272093F10019
:101870009D01442755272093F1008B2F9927AA27F4
:10188000BB278093F100888D8093F100898D809330
:10189000F1008A8D8093F1008091E8008E7780932B
:1018A000E80040DC54C080915702813209F04FC0FB
:1018B0008091E800877F8093E80004C08BB588237F
:1018C00009F445C08091E80082FFF8CF8091F100D3
:1018D0009091F1002091F1003091F1008C8B9D8B63
:1018E0002E8B3F8B8091F100888F8091F100898F42
:1018F0008091F1008A8F8091E8008B778093E800D7
:1019000011DCCE010E94AF0122C0809157028132CA
:10191000F1F48091E800877F8093E80003DC8091F8
:10192000590290915A02998B888BCE010E94A7018F
:101930000EC080915702813251F48091E800877F78
:101940008093E800EFDBCE0160915902C5DEDF91A4
:10195000CF910895FC018BB58430E9F486818F70B6
:101960008093E9008091E80082FF15C08091E80033
:1019700085FF11C0CB0164E070E040E050E0BADACE
:101980008091E80085FD05C08091E8008B77809309
:10199000E80081E0089580E00895FC018BB5843073
:1019A00011F082E0089581818F708093E900809129
:1019B000F200882331F08091E8008E778093E80070
:1019C000D0CB0895FC018BB5843051F481818F70A8
:1019D0008093E9008091E80080FF02C0CF01DDCF55
:1019E0000895FC018BB5843011F092E016C081811E
:1019F0008F708093E900CB0164E070E040E050E03C
:101A0000CBDA982F882349F48091E80085FD05C042
:101A10008091E8008E778093E800892F0895CF9316
:101A2000DF93EC011B8682E08C838987CE010196CF
:101A300061E03CDB882331F0CE01069661E036DBC5
:101A4000811181E0DF91CF910895A1E21A2EAA1BA6
:101A5000BB1BFD010DC0AA1FBB1FEE1FFF1FA2175E
:101A6000B307E407F50720F0A21BB30BE40BF50B5B
:101A7000661F771F881F991F1A9469F760957095E4
:101A8000809590959B01AC01BD01CF010895FB01AC
:101A9000DC0104C08D910190801921F44150504027
:101AA000C8F7881B990B0895DC0101C06D93415064
:101AB0005040E0F70895DC01CB01FC01F999FECF1D
:101AC00006C0F2BDE1BDF89A319600B40D924150C6
:101AD0005040B8F70895F999FECF92BD81BDF89AAC
:101AE000992780B50895DC01CB0102C02D9105D066
:101AF00041505040D8F70895262FF999FECF1FBACC
:101B000092BD81BD20BD0FB6F894FA9AF99A0FBE26
:081B100001960895F894FFCF3F
:101B18004D444B0055005300420020004D00690021
:101B2800640069004B006C0069004B002000420013
:101B3800750069006C0064002D0036003100330028
:101B4800000001777777000000000200030003001F
:101B58000100020003000300030003000300020069
:101B68000200030001001201100100000008122900
:101B78006719010001020001018110000001021033
:101B880000000100008340000001044000000182C1
:101B98000800000100000000000000000000000034
:00000001FF
