:100000003EC2000063C2000061C200005FC2000087
:100010005DC200005BC2000059C2000057C2000070
:1000200055C2000053C200000C9449104FC200009A
:100030004DC200004BC2000049C2000047C2000090
:1000400045C2000043C2000041C200003FC20000A0
:100050003DC200003BC2000039C2000037C20000B0
:1000600035C200000C94100B31C200002FC20000FA
:100070002DC200002BC2000029C2000027C20000D0
:1000800025C2000023C2000021C200001FC20000E0
:100090001DC200001BC2000019C2000017C20000F0
:1000A00015C2000013C2000011C200000A002C009B
:1000B0004D7574656400203C2D3E20000A0A43689B
:1000C000616E6E656C206D6170203A0A00202D20F3
:1000D00000202D20000A564944202D20504944205C
:1000E0002D205354522020203A000A426F6F744D45
:1000F0006F6465202020202020202020203A00202E
:100100002D2000202D20000A0A4D61676963202DF3
:100110002056202D204275696C64203A000A4172F5
:100120006475696E6F20626F6F746C6F6164657265
:10013000206D6F64652E204279652E0A0A000A57E9
:100140007269746520616E6420657869742028790D
:100150002F6E29203F000A44656661756C74206D1E
:10016000617070696E6720726573746F7265642E5A
:100170000A004D7574656400202D3E4F55542028AB
:100180006E2068657820302D6629203A20000A4DBF
:1001900049444920494E202868657820302D662939
:1001A000203A20002D000A456E746572205649449D
:1001B000202D205049442C20696E20686578202825
:1001C000302D392C612D6629203A0A000A456E74BB
:1001D00065722070726F6475637420737472696ED7
:1001E00067202D20454E54455220746F207465724F
:1001F0006D696E617465203A0A000A53657474690A
:100200006E67732072656C6F616465642066726FDF
:100210006D20454550524F4D2E0A003D3E00782E30
:1002200041626F72740A00732E5361766520262036
:10023000717569740A00612E41726475696E6F2070
:10024000626F6F746C6F61646572206D6F64650AB4
:1002500000352E44656661756C74206368616E6E4E
:10026000656C206D617070696E670A00342E43689A
:10027000616E6E656C206D617070696E670A003327
:100280002E564944202D205049440A00322E5072E7
:100290006F6475637420737472696E670A00312E1F
:1002A00052656C6F61642073657474696E67730A5C
:1002B00000302E53686F772063757272656E7420FC
:1002C00073657474696E67730A00286329546865DE
:1002D0004B696B47656E204C6162730A0A000A0A1B
:1002E0005553424D4944494B6C694B0A000000028A
:1002F00003030102030303030302020301F0777700
:10030000770403090409023E00020100C032090417
:10031000000001020201000524000110042402066D
:100320000524060001070582030800FF09040100F7
:10033000020A0000000705040240000107058302CD
:1003400040000112011001020000084123010001D8
:10035000000102DC012A033500350037003300328A
:1003600000330032003300340033003000330035F6
:100370000031003700310038003100380030000013
:10038000002C03410072006400750069006E006F6C
:1003900000200055006E006F0020006400750061B1
:1003A000006C0020006D00690064006900000032EC
:1003B00003410072006400750069006E006F002048
:1003C0000028007700770077002E0061007200643B
:1003D00000750069006E006F002E00630063002945
:1003E00000000009026500020100C032090400009B
:1003F00000010100000924010001090001010904B4
:10040000010002010300000724010001410006244D
:100410000201010006240202020009240301030173
:10042000020100092403020401010100090502027E
:1004300010000000000525010101090581021000DE
:100440000000000525010103300354006800650029
:1004500020004B0069006B00470065006E00200023
:100460004D0049004400490020006600610063001F
:1004700074006F007200790000003C0B3F0B1124E8
:100480001FBECFEFDAE0DEBFCDBF11E0A0E0B1E0EC
:10049000E4EDFCE202C005900D92A238B107D9F755
:1004A00022E0A2E8B1E001C01D92A538B207E1F751
:1004B00012E0CEE3D2E004C02197FE010E94921424
:1004C000CD33D107C9F764D40C945E1699CD9BB196
:1004D0008095906389238BB90895FC018FB7F894B8
:1004E000718360837383628375836483640F751F74
:1004F0007783668351874087138612868FBF08955E
:10050000FC01A081B1816C938081918101969183DE
:100510008083268137818217930721F48481958116
:10052000918380832FB7F894828593850196938772
:1005300082872FBF0895FC01A281B3818D91B3837F
:10054000A28326813781A217B30721F42481358144
:10055000338322839FB7F894228533852150310954
:10056000338722879FBF0895FC01208130E0A901D5
:10057000542F44275295507F9181292F30E0322FFC
:100580002227240F351F828140E1849F200D311DD9
:1005900011248381A901480F511DCA010895EFEC70
:1005A000F1E080E090E041E050E09A01082E02C0C6
:1005B000220F331F0A94E2F7219331930196803181
:1005C000910599F708952EE3E1E9F1E0DF011D922D
:1005D0002A95E9F7DF01282FFC018E2F821B861751
:1005E00038F4819187FD0AC090E08D939D93F5CFFB
:1005F000880F8E5F80938F0181E0089580E00895D9
:1006000081E080938A014BE650E060E070E084E88E
:1006100091E00E94471699E088E10FB6F894A895FA
:10062000809360000FBE90936000FFCF82E091E066
:100630000E94061397FF07C082E091E00E94F1122A
:100640000E945C12F3CF0895CF93DF931F92CDB732
:10065000DEB7682F909103019F709093E90080911D
:10066000E80080FD09C082E091E069830E94F112F8
:100670000E945C126981F3CF82E091E00F90DF91DC
:10068000CF910C949A12CF92DF92EF92FF920F9338
:100690001F93CF93DF936C01E62E042FF22ED0E050
:1006A000DE1500F5C3DFC82F10ED180F1A3020F04B
:1006B0008FE98C0F863090F48C2FC6DFFF2011F06D
:1006C0008F2DC2DF81E08D0FF601ED0FF11DCA33D2
:1006D00010F019EA1C0F1083D82FE2CFC013E0CF1F
:1006E0000023F1F28D2FDF91CF911F910F91FF9099
:1006F000EF90DF90CF9008950F931F93CF93DF93E8
:100700001F92CDB7DEB78C01F801662311F08491FA
:1007100001C08081882361F0698396DF0F5F1F4FDE
:1007200082E091E00E94F1120E945C126981ECCF9C
:100730000F90DF91CF911F910F9108950F931F9309
:10074000CF93C62F8C01CC2381F0F80181918F01CA
:1007500090EE980F903608F477DFC15082E091E078
:100760000E94F1120E945C12EECFCF911F910F9167
:100770000895AF92BF92CF92DF92EF92FF920F93C4
:100780001F93CF93DF93CDB7DEB728970FB6F894BA
:10079000DEBF0FBECDBF61E087E091E0ADDF63E07B
:1007A00084E891E0CBDF61E083E091E0A5DF809118
:1007B00087014AE0BE016F5F7F4F90E00E94FC1509
:1007C00060E09ADF61E08FEF90E096DF4AE0BE01E3
:1007D0006F5F7F4F80918801909189010E94FC1585
:1007E00060E08ADF61E08AEE90E086DF80918A0136
:1007F0004AE0BE016F5F7F4F90E00E94FC1560E011
:100800007BDF61E085ED90E077DF40E1BE016F5F67
:100810007F4F80918B0190918C010E94FC1560E0CC
:100820006BDF61E081ED90E067DF40E1BE016F5F6B
:100830007F4F80918D0190918E010E94FC1560E0A8
:100840005BDF61E08DEC90E057DF6EE381E991E0E2
:1008500075DF61E08CEB90E04FDF8FECC82E81E01C
:10086000D82EE12CF12CAA24A394B12C8FEFE81AF6
:10087000F80A4AE0BE016F5F7F4FC7010E94FC1576
:1008800060E03ADF61E086EB90E036DFF6018081E0
:100890009181892B29F461E080EB90E02DDF24C069
:1008A00020E030E0A501022E02C0440F551F0A943B
:1008B000E2F7F601808191818423952389010F5FFE
:1008C0001F4F892B69F04AE0BE016F5F7F4FC8015F
:1008D0000E94FC1560E010DF61E08EEA90E00CDF22
:1008E000980100311105F1F661E08CEA90E004DF37
:1008F000F2E0CF0ED11C80E1E816F10409F0B6CF8A
:1009000028960FB6F894DEBF0FBECDBFDF91CF9112
:100910001F910F91FF90EF90DF90CF90BF90AF901D
:100920000895BF92CF92DF92EF92FF920F931F93A1
:10093000CF93DF931F92CDB7DEB7DC0111962C91D8
:10094000283F38F08091C80085FFFCCF2093CE006F
:100950004DC08C01DC01EC91EF70F0E0E351FD4FF4
:10096000E49081E098EBC92E9BE0D92EFF24F3940C
:10097000F80EF801E80FF11D6081B12C8FB7F894E3
:1009800020915502309156028FBF80915302909171
:1009900054022817390771F48BE492E06983CBDDA8
:1009A00069819091C80095FFFCCF8093CE00BB2455
:1009B000B394E4CF8BE492E0A3DD8091C80085FF7F
:1009C0000AC08BE492E0B7DD9091C80095FFFCCFA0
:1009D0008093CE0002C0BB2029F05D98D0920C021B
:1009E000C0920B02EA948F2DE110C0CF0F90DF91DF
:1009F000CF911F910F91FF90EF90DF90CF90BF901C
:100A00000895BC018DE191E00E9403148DE191E015
:100A10000E9424145C9888EB9BE090930A028093D8
:100A2000090208958F929F92AF92BF92CF92DF9268
:100A3000FF920F931F93CF93DF9300D000D01F92AC
:100A4000CDB7DEB7FB019081292F30E0A4E03595CA
:100A50002795AA95E1F7232B09F089C18B01F82E80
:100A60009F70D92E88EF890F873008F057C02181F9
:100A70002F70E22FF0E0EE0FFF1FCF0181539E4F4A
:100A80004C01FC0180819181009709F470C1A0E0C4
:100A9000B0E041E050E060E070E004C0440F551F5A
:100AA000661F771F2A95D2F784179507A607B70701
:100AB000A9F1F80180819181A281B38189839A8310
:100AC000AB83BC83A12CB12CCC24C394D12C840146
:100AD000F8018081918196010A2C02C0220F331FF8
:100AE0000A94E2F782239323892B81F09A81907FE5
:100AF0009A0D9A83F11004C0CE01019682DF06C0E0
:100B0000F1E0FF1203C0CE0101960BDF8FEFA81AB0
:100B1000B80A90E1A916B104D9F629C1F11003C0B1
:100B2000C8016FDF05C0E1E0FE1202C0C801F9DEB6
:100B30008CEF8D0D843008F01AC1F8012081822FCE
:100B400090E034E0959587953A95E1F7892B09F087
:100B50000EC12F706CEF620F643008F008C18091F5
:100B6000130290911402243039F43181303F41F066
:100B70008330910528F4FBC08330910510F4F7C051
:100B800063E04091120250E031E0561791F14423A6
:100B9000A1F0E0915702EF3150F5D801A30FB11D3C
:100BA0007C91773F41F0EF5FE09357027C91F0E05A
:100BB000E95AFD4F70833F5F1AC0FC01E350FD4FBF
:100BC000E491D801A30FB11D7C91E71309C00196F0
:100BD0003F5F8430910558F01092570241E007C002
:100BE000109214021092130210921202C0C05F5FA2
:100BF000CCCF4093120290931402809313022430BE
:100C000009F4B5C0442309F4B2C010921402109242
:100C100013021092120260915702809158026623CB
:100C200009F4A5C08A3029F130F4883061F08930A8
:100C300009F09DC0E5DC8C3009F433C028F18D301B
:100C400009F441C094C082E080938A014BE650E0F1
:100C500060E070E084E891E00E94471699E088E146
:100C60000FB6F894A895809360000FBE9093600033
:100C7000FFCF99E088E10FB6F894A89580936000C3
:100C80000FBE90936000FFCF862F90E080970CF00E
:100C90006EC0615089E592E096DC882309F467C054
:100CA00034C0693009F063C08AE592E05DDC90935E
:100CB0008C0180938B018DE592E056DC90938E0140
:100CC00080938D0122C08EEF860F813108F04FC0D6
:100CD000E0915902EF3729F4623009F048C05FDC37
:100CE00014C0623009F443C0E150E03108F03FC065
:100CF00080915A02811112C06330C9F5F0E0EE0F05
:100D0000FF1FE153FE4F118210824BE650E060E07E
:100D100070E084E891E00E94471629C0F0E0EE0FF1
:100D2000FF1FE153FE4F1182108220E070E06250FD
:100D3000710941E050E0822F90E0861797072CF769
:100D4000DC01A95ABD4F13968C919FEF980F9031FB
:100D500060F4DA0102C0AA0FBB1F9A95E2F7808106
:100D600091818A2B9B2B918380832F5FE4CF0F90FF
:100D70000F900F900F900F90DF91CF911F910F91D7
:100D8000FF90DF90CF90BF90AF909F908F9008958D
:100D9000CF93DF93CDB7DEB7A1970FB6F894DEBF40
:100DA0000FBECDBF80E293DB4BE650E060E070E029
:100DB00084E891E00E942F1643E050E060E571E086
:100DC00084E891E00E94DF15892B61F4809187010E
:100DD000823041F48091880190918901863E934050
:100DE00009F43EC08BE6E4E8F1E0DF011D928A954C
:100DF000E9F78DE494E4ABE480938401909385015A
:100E0000A093860182E08093870126EE33E0309341
:100E100089012093880180938A0182E199E290936D
:100E20008C0180938B0187E699E190938E018093EA
:100E30008D018EE280938F0193E090939001E4E521
:100E4000F1E0A1E9B1E001900D928A95E1F7A7DB0D
:100E50004BE650E060E070E084E891E00E944716C5
:100E600080918B0190918C0190933201809331019C
:100E700080918D0190918E01909334018093330184
:100E80008FE891E0909383018093820184B7877FFC
:100E900084BF0FB6F894A895809160008861809314
:100EA0006000109260000FBE90E080E80FB6F894EA
:100EB00080936100909361000FBE82E084B98CE062
:100EC00085B981E08093080280918A01882371F0BE
:100ED000109208028093010110928A014BE650E0C3
:100EE00060E070E084E891E00E944716809108027B
:100EF000882319F08FE190E002C087E690E090939C
:100F0000CD008093CC0086E08093CA001092C80088
:100F100088E18093C900539A5A9A8AB180638AB94A
:100F20008BB180638BB90E942C1084E085BD5F9AE1
:100F3000579A80910802882309F417C14CE050E0C9
:100F40006FE372E08BE492E0C8DA4EE150E065E1D5
:100F500072E083E392E0C1DA1092C90088E98093DD
:100F6000C9008EE085B96FEF80EF91E082D46EEF1B
:100F700080EF91E081D440E050E061E080EF91E0CB
:100F80008AD4789447EFF42E54E0E52E08EB1BE06A
:100F900080910B0290910C02009731F00197909391
:100FA0000C0280930B0201C05D9A8091090290911E
:100FB0000A02009731F0019790930A028093090288
:100FC00001C05C9A8BB5843009F08AC02FB7F894C1
:100FD00080913D0290913E022FBF892B09F480C081
:100FE00083E392E0A8DA682F80EF91E094D488231D
:100FF00009F440C080EF91E011D4D82E80EF91E049
:10100000E2D3282F19821A821B821C8280EF91E082
:1010100029A3F7D34D2D50E0BC01CE0102960E94CA
:10102000EC1529A1243019F48981815F10C0213089
:1010300081F480EF91E0E5D32981FC01808190E08B
:1010400034E0959587953A95E1F7820F911D898354
:101050000BC0223009F044C08981F1E0DF1202C0E8
:101060008B5FF5CFD80ED982BE016F5F7F4F80E0D6
:10107000D9DC36C080EF91E0A3D3882389F180EFDB
:1010800091E098D381110AC080EF91E0EFD3873FC0
:1010900029F080EF91E091D3882311F180EF91E066
:1010A000E5D3D82E80910001882361F010920001D1
:1010B00010920E0210920F02109210021092110262
:1010C00010920D0227EFD21609F403C280EF91E0CF
:1010D00074D38111FEC180EF91E06CD38111DBC12B
:1010E00080915302909154024FB7F8942091550289
:1010F000309156024FBF821B930B039778F1BE01CC
:101100006F5F7F4F8DE191E00E944D14882329F09D
:10111000BE016F5F7F4F81E085DC2FB7F89480912F
:101120005502909156022FBF892BC1F02FB7F8942A
:1011300080915502909156022FBF892B79F08BE454
:1011400092E0F9D99091C80095FFFCCF8093CE0032
:101150005D9810930C0200930B02E8CF8DE191E0B3
:101160000E943E140E945C1213CF809101018230D4
:1011700009F022C17894CE0101967C01CC24C3945D
:10118000D12C61E08EED92E0B7DA61E08AEC92E07A
:10119000B3DA61E081EB92E0AFDA61E08EE992E0F0
:1011A000ABDA61E08CE892E0A7DA61E08FE792E0E9
:1011B000A3DA61E08CE692E09FDA61E081E592E0FB
:1011C0009BDA61E086E392E097DA61E087E292E001
:1011D00093DA61E08EE192E08FDA61E08BE192E0F8
:1011E0008BDA24DA182F30DA143309F463C070F57F
:1011F000113309F448C028F4103309F0D6C0B9DA25
:10120000D4C0123309F44BC0133309F0CEC061E0EF
:1012100086EA91E071DA20E040E064E0C70133DA69
:10122000C701A2D990938C0180938B0161E084EA7D
:1012300091E062DA20E040E064E0C70124DAC7010F
:1012400093D990938E0180938D01AFC0113609F42C
:1012500091C040F4153309F0A8C0A1D961E086E53A
:1012600091E069C0133709F468C0183709F09DC0D0
:1012700099E088E10FB6F894A895809360000FBEBE
:10128000909360007CC04BE650E060E070E084E842
:1012900091E00E942F1661E08AEF91E04CC061E07E
:1012A0008CEC91E029DA10E0C1D9082F8D3009F0DB
:1012B00067C074C061E08EE891E01EDA20E040E093
:1012C00061E0C701E0D9098110E0000F111F01534F
:1012D0001E4FD8011D921C9261E088E791E00CDA64
:1012E0002CE24DE060E1C701CED9982E882311F0A1
:1012F000570104C061E082E791E01DC08A2D8E197C
:10130000891508F052C0F501C601019002C0880F8E
:10131000991F0A94E2F75F01D8012D913C91119732
:10132000282B392B2D933C9382E091E00E94F112FF
:101330000E945C12E3CFE0D938C01BDA61E08EE393
:1013400091E0DAD973D9182F7FD9193771F54BE6A7
:1013500050E060E070E084E891E00E94471699E078
:1013600088E10FB6F894A895809360000FBE909323
:101370006000FFCF61E08DE191E0BED941D9FFCFA0
:1013800080EE800F8F3538F4802F5ED9F701E10FA2
:10139000F11D00831F5F1E3108F486CFF701E10FB6
:1013A000F11D1082612FC7010ED982E091E00E94E9
:1013B000F1120E945C12E5CE4CE050E06FE372E067
:1013C0008BE492E08AD84EE150E065E172E083E37D
:1013D00092E083D878948FB7F89420915502309199
:1013E00056028FBF809153029091540228173907FB
:1013F00051F082E091E00E94061397FD04C0682F2F
:101400008BE492E07DD82FB7F89480913D029091C3
:101410003E022FBF009729F48091C80085FF34C099
:1014200021C0209103012F702093E9002091E80052
:1014300020FFF2CF8034910510F08FE390E0182F59
:10144000E0913502F0913602608182E091E00E94E5
:101450009A1211508111E0CF83E392E06CD8111100
:10146000EFCFDACF2FB7F8948091550290915602C2
:101470002FBF892B49F08BE492E05DD89091C80092
:1014800095FFFCCF8093CE0082E091E00E94F112A4
:101490000E945C12A0CF90910D029F5F90930D026D
:1014A000E92FF0E0E25FFD4FD082933009F018CED3
:1014B000E0920E026EE072E080E0B4DA10920D026B
:1014C00010920E0210920F0210921002109211024E
:1014D00007CE90910D02E1E0E90FE0930D02F0E0FC
:1014E000E25FFD4FF0829B5F90930E026EE072E030
:1014F00080E098DA10920D0210920E0210920F0204
:101500001092100210921102E6CD80E10C94670255
:1015100080E20C94670280910802882329F08DE113
:1015200091E00E94EC1303C082E091E0DED78111CC
:1015300002C080E201C080E10C9467028091080241
:10154000811104C082E091E00C943B130895FC01EA
:10155000808980FF02C05F9808955F9A08950F9375
:101560001F93CF938C01FC01818D813021F082305B
:1015700021F4C0E203C0C0E301C0C0E0F801808DE7
:10158000823009F4C860F801828D873031F08830EC
:1015900031F0863029F4C26003C0C46001C0C66067
:1015A0001092C9001092C8001092CA00F801248954
:1015B0003589468957892115F1EE3F0741055105C7
:1015C00089F0DA01C901B695A79597958795BC0171
:1015D000CD0160587B47814E9F4F0E94701421506F
:1015E000310902C020E130E03093CD002093CC00DF
:1015F000C093CA00F80184899589A689B7898115A5
:10160000914EA105B10511F082E001C080E0809308
:10161000C80088E98093C900CF911F910F91089568
:101620001F920F920FB60F9211242F933F934F9357
:101630005F936F937F938F939F93AF93BF93EF933A
:10164000FF938091CE008093EF016091EF0183E3DF
:1016500092E00E948002FF91EF91BF91AF919F9124
:101660008F917F916F915F914F913F912F910F904B
:101670000FBE0F901F90189580EF91E084C080EF0F
:1016800091E045C1D9011C92292F33272230310521
:1016900099F023303105C9F02130310509F06BC0D4
:1016A00080910802882309F45CC082E08C9382E177
:1016B00090E0E9E2F1E063C080910802811156C038
:1016C0008EE390E0E5E0F3E05AC099278130910580
:1016D00099F05CF4892B09F04EC0E1E0F3E0E4916D
:1016E0008E2F90E0E1E0F3E04AC082309105C1F036
:1016F0008C3D910551F13FC080910802882341F053
:10170000E8E4F4E0E4918E2F90E0E8E4F4E037C000
:10171000EFEAF3E0E4918E2F90E0EFEAF3E02FC0E0
:1017200080910802882349F0E0918201F0918301C1
:10173000808190E022E02C9322C0E1E8F3E0E49184
:101740008E2F90E0E1E8F3E01AC080910802811149
:1017500012C0E5E5F3E0E4918E2F90E0E5E5F3E0DB
:101760000EC082E190E0E3E4F3E009C085E690E09A
:10177000E3EEF3E004C080E090E0E0E0F0E0DA01C6
:10178000ED93FC930895FC01148215821682178252
:101790001086118612861386148615868FEF86872B
:1017A0001786108A128A118A148A138A168A158A51
:1017B000178A0895FC0185810895FC0186810895AA
:1017C000FC0187810895FC0187850895683FA8F48E
:1017D000603F30F0E62FEF70F0E0E85BFE4F0BC0AB
:1017E00067FF0DC0E62FF0E084E0F595E7958A9558
:1017F000E1F7E75CFE4F8081089581E0089580E085
:101800000895FC012785243019F0283019F0089537
:1018100003960895FC01818992890895DC011F9641
:101820002C911F97283019F455968C9108952430E7
:10183000C9F0213061F4E5DFDC01EC91F0E084E0F7
:10184000F595E7958A95E1F7E75CFE4F09C02230F0
:1018500059F4D7DFDC01EC91EF70F0E0E85BFE4F6C
:101860008081089581E0089580E00895FC018085DD
:101870000895FC0166870895FC016E3F31F463878B
:1018800082E784878BEB858708956D3F19F4138673
:10189000148615860895EF92FF920F931F93CF93AE
:1018A000DF931F92CDB7DEB77C018A01FC018189ED
:1018B0009289009721F069830E9447156981F70199
:1018C000148B038B168A158A678B128A118A6623FA
:1018D00091F00115110591F061E070E0C8010E94DE
:1018E0009814F701928B818B892B41F4148A138A07
:1018F000178A80E004C0F701148A138A81E00F90F0
:10190000DF91CF911F910F91FF90EF90089540E0EC
:1019100050E060E0C0CF0F931F93CF93DF93EC01B3
:10192000162F8885898768871F828E8181111E8284
:1019300017FF7BC0183FC8F08D8590E0212F30E065
:10194000209530952F70332702C0959587952A955D
:10195000E2F781709927282F21702F83892B09F4B2
:10196000A3C084E08F871B839DC01A86188A1C82BF
:101970008D81882399F01D82173F71F41E8288E0C3
:101980008F870F890F83002309F48FC08D899E896B
:10199000892B09F489C086C081E08E83103F41F411
:1019A00081E08D831E8A1D8A88E0888B8F895DC0C7
:1019B000103FD8F481E0888B8E858F3F41F0212F36
:1019C0002F7030E090E02817390709F06DC08B8543
:1019D00090E0412F50E024E0559547952A95E1F796
:1019E0002FE030E0241B350B0AC082E0888B8C8509
:1019F00090E027E030E0412F4F70241B310902C0F6
:101A0000959587952A95E2F781708F830F81002342
:101A100009F44AC0612FCE01D9DE188381508C832E
:101A2000811142C088898F8740C08D818823F9F059
:101A30008F898823C9F12B893C8921153105A1F0B3
:101A40008D899E898217930721F481E08E831D8200
:101A50002BC029893A89AC014F5F5F4F5E8B4D8B5C
:101A6000F901E80FF91F108381E08F831DC08A857B
:101A7000882331F06881CE01A9DE81508C831A86DB
:101A80008C81882389F0FE01E81BF10913838150C2
:101A90008C8391E09F83811107C088898F87813073
:101AA00009F48A8701E001C000E0802FDF91CF9127
:101AB0001F910F910895CF92DF92EF92FF920F93B3
:101AC0001F93CF93DF93EC018B017A0159D28111DF
:101AD00033C0E114F10439F0F70180819181081BD2
:101AE000190BC80FD91FC12CD12C0115110519F1E3
:101AF0008091E80085FD16C08091E8008E77809384
:101B0000E800DAD4E114F10449F0F7018081918111
:101B1000C80ED91ED182C08285E00EC031D2882382
:101B200021F30AC089918093F10001501109FFEF60
:101B3000CF1ADF0ADACF80E0DF91CF911F910F91AA
:101B4000FF90EF90DF90CF900895CF92DF92EF92C9
:101B5000FF920F931F93CF93DF93EC018B017A01D8
:101B60000FD2811133C0E114F10439F0F701808103
:101B70009181081B190BC80FD91FC12CD12C01153D
:101B8000110519F18091E80085FD16C08091E800EB
:101B90008B778093E80090D4E114F10449F0F701C9
:101BA00080819181C80ED91ED182C08285E00EC08D
:101BB000E7D1882321F30AC08091F1008993015075
:101BC0001109FFEFCF1ADF0ADACF80E0DF91CF9162
:101BD0001F910F91FF90EF90DF90CF90089520918B
:101BE0007F02309180022617370748F06115710592
:101BF00039F42091E8002E772093E80001C0B90164
:101C000040E061157105A1F12BB5222309F442C012
:101C1000253009F441C02091E80023FD3FC0209108
:101C2000E80022FD31C02091E80020FFEACF40917A
:101C3000F3002091F20030E0342BFC01CF0161155C
:101C4000710559F02830310540F481918093F100FD
:101C5000615071092F5F3F4FF1CF41E028303105CE
:101C600009F040E02091E8002E772093E800C9CFEA
:101C70004111CACF09C08BB5882361F0853061F06E
:101C80008091E80083FD0AC08091E80082FFF3CFD5
:101C900080E0089582E0089583E0089581E008954A
:101CA00020917F02309180022617370748F0611596
:101CB000710539F42091E8002E772093E80001C0E7
:101CC000B901FC0120E06115710589F18BB588230C
:101CD00009F43FC0853009F43EC08091E80083FDDF
:101CE0003CC08091E80082FD2EC08091E80080FF1A
:101CF000EACF2091F3008091F20090E0922B6115E1
:101D0000710559F08830910540F424912093F10039
:101D10003196615071090196F2CF21E0089709F0E0
:101D200020E08091E8008E778093E800CCCF2111ED
:101D3000CDCF09C08BB5882361F0853061F08091EB
:101D4000E80083FD0AC08091E80082FFF3CF80E0C5
:101D5000089582E0089583E0089581E00895CF9288
:101D6000DF92EF92FF920F931F93CF93DF93EB01DC
:101D700020917F02309180022617370740F020978C
:101D800039F42091E8002E772093E80001C0E901A2
:101D90007C0180E02097D1F19BB5992309F448C0DC
:101DA000953009F447C09091E80093FD45C09091AB
:101DB000E80092FD37C09091E80090FFEBCF809152
:101DC000F3000091F20010E0182B6801C601801B9F
:101DD000910B8E0D9F1D209761F028E0C216D10453
:101DE00040F44DD78093F10021972FEFC21AD20A09
:101DF000EDCF7C0181E098E0C916D10409F080E0C4
:101E00009091E8009E779093E800C4CF8111C4CFF1
:101E100009C08BB5882361F0853061F08091E800BE
:101E200083FD0AC08091E80082FFF3CF80E005C007
:101E300082E003C083E001C081E0DF91CF911F9178
:101E40000F91FF90EF90DF90CF900895982F9730EB
:101E500058F59093E900981739F07091EC002091B3
:101E6000ED005091F00003C0242F762F50E021FFA9
:101E700019C03091EB003E7F3093EB003091ED00C4
:101E80003D7F3093ED003091EB0031603093EB00FB
:101E90007093EC002093ED005093F0002091EE0041
:101EA00027FF07C09F5FD3CF8F708093E90081E049
:101EB000089580E00895EF92FF920F931F93CF93C0
:101EC000DF93E62EEC018C010C5F1F4FF12CFE140A
:101ED00091F15881552351F1F801208169817A816E
:101EE00031979081852F8F70873010F080E024C06B
:101EF000223010F442E001C046E0E8E0F0E020E0EB
:101F0000E617F70720F42F5FEE0FFF1FF9CF22959A
:101F1000207F422BF0E49F9F90011124551F5527ED
:101F2000551F652F622B92DF882301F3F3942596CA
:101F30000B5F1F4FCCCF81E0DF91CF911F910F91AD
:101F4000FF90EF9008958091790287FF0FC08091F4
:101F5000E80082FD04C08BB58111F9CF10C08091DB
:101F6000E8008B770AC08BB5882349F08091E800A0
:101F700080FFF9CF8091E8008E778093E800089584
:101F80002091E4003091E50095E64091EC00842F2B
:101F9000817040FF21C08091E80080FD1BC08BB59F
:101FA000882391F0853091F08091EB0085FD10C081
:101FB0004091E4005091E5004217530731F39A0134
:101FC000915019F784E0089582E0089583E0089520
:101FD00081E0089580E008954091E80042FFDFCF5E
:101FE00008950F931F93CF93DF9346D04DD0C8ED44
:101FF000D0E088818F778883888180688883888112
:102000008F7D888319BC1BBC1092770200EE10E014
:10201000F80180818B7F808388818160888342E0A2
:1020200060E080E013DFE1EEF0E080818E7F80836E
:10203000E2EEF0E08081816080838081886080832F
:10204000F80180818E7F8083888180618883DF9121
:10205000CF911F910F910895E8EDF0E080818F7E80
:102060008083E7EDF0E080818160808384E082BF3F
:1020700081E080937802B5CFE8EDF0E080818E7F3B
:1020800080831092E20008951092DA001092E1002D
:1020900008951F920F920FB60F9211242F933F9322
:1020A0004F935F936F937F938F939F93AF93BF9360
:1020B000EF93FF938091E10082FF0AC08091E200DC
:1020C00082FF06C08091E1008B7F8093E100F3D115
:1020D0008091DA0080FF1BC08091D80080FF17C07C
:1020E0008091DA008E7F8093DA008091D90080FFA2
:1020F0000BC080E189BD82E189BD09B400FEFDCF3E
:1021000081E08BBD02DA03C019BC1BBC01DA8091EF
:10211000E10080FF17C08091E20080FF13C0809132
:10212000E2008E7F8093E2008091E20080618093E4
:10213000E2008091D80080628093D80019BC85E0CD
:102140008BBDB9D18091E10084FF2EC08091E20067
:1021500084FF2AC080E189BD82E189BD09B400FE07
:10216000FDCF8091D8008F7D8093D8008091E100D1
:102170008F7E8093E1008091E2008F7E8093E20069
:102180008091E20081608093E20080917702882351
:1021900011F084E007C08091E30087FD02C081E078
:1021A00001C083E08BBD87D18091E10083FF21C016
:1021B0008091E20083FF1DC08091E100877F8093C2
:1021C000E10082E08BBD109277028091E1008E7F6A
:1021D0008093E1008091E2008E7F8093E200809105
:1021E000E20080618093E20042E060E080E02EDE69
:1021F00062D1FF91EF91BF91AF919F918F917F91AC
:102200006F915F914F913F912F910F900FBE0F9063
:102210001F9018951F93CF93DF93CDB7DEB7AB9781
:102220000FB6F894DEBF0FBECDBFE9E7F2E088E05D
:102230008E0F9091F10091938E13FBCF7FD98091F7
:10224000E80083FF20C18091790290917A02953055
:1022500009F46FC030F4913071F168F0933059F1A6
:1022600012C1983009F4E5C0993009F4F1C09630F4
:1022700009F009C17FC0803899F0823809F003C1A4
:1022800080917D028F70873008F0FDC08093E90057
:102290008091EB0085FB882780F91092E90001C04E
:1022A00080E09091E800977F9093E8008093F100A0
:1022B0001092F100C9C0282F2D7F09F0E4C08230B0
:1022C00009F0E1C080917B0281112AC080917D02DA
:1022D0008F702FEF280F263008F0D5C08093E900CB
:1022E0002091EB0020FF1CC0933021F48091EB0083
:1022F000806214C09091EB0090619093EB0021E01C
:1023000030E0A90102C0440F551F8A95E2F74093BF
:10231000EA001092EA008091EB0088608093EB0065
:102320001092E9008091E800877F8093E8000BDE3F
:10233000AAC08111A8C010917B021F778091E30091
:102340008078812B8093E3008091E800877F8093E1
:10235000E800F9DD8091E80080FFFCCF8091E30088
:1023600080688093E300111102C082E001C083E025
:102370008BBD89C08058823008F085C080917B0277
:1023800090917C028C3D53E0950769F583E08A8348
:102390008AE289834FB7F894DE01139620E03EE08D
:1023A00051E2E32FF0E050935700E49120FF03C087
:1023B000E295EF703F5FEF708E2F90E0EA3010F003
:1023C000C79601C0C0968D939D932F5F243149F726
:1023D0004FBF8091E800877F8093E8006AE270E059
:1023E000CE0101961FC060917D0270917E029E0118
:1023F000255D3F4FAE014F5F5F4F44D9BC01892B34
:1024000009F441C08091E800877F8093E8002BA504
:1024100089819A81211102C043DC05C0213011F469
:102420009EDC01C0DCDB8091E8008B778093E800C4
:102430002AC0803841F58091E800877F8093E800CA
:10244000809177028093F1008091E8008E776DCFC4
:10245000811119C090917B029230A8F48091E8001C
:10246000877F8093E800909377026DDD80917702FB
:10247000811106C08091E30087FD02C081E001C0A8
:1024800084E08BBD48D88091E80083FF0AC080912A
:10249000E800877F8093E8008091EB008062809362
:1024A000EB00AB960FB6F894DEBF0FBECDBFDF9149
:1024B000CF911F9108950895CF938BB5882399F0FC
:1024C000C091E900CF709091EC00892F817090FD50
:1024D00080E8C82B1092E9008091E80083FD9ADE25
:1024E000CF70C093E900CF910895CF93DF93EC01B3
:1024F000FC0170968BE0DF011D928A95E9F782E07E
:102500008C83898783E08E8761E0CE010196D3DCDE
:10251000882361F061E0CE010696CDDC882331F09E
:1025200061E0CE010B96DF91CF91C5CC80E0DF91C9
:10253000CF9108950F931F93CF932BB52430F9F4C7
:10254000FC010489158926893789012B022B032B6D
:10255000B1F0C62F81818F708093E9008091E800EF
:1025600085FF04C0C093F10080E00AC08091E800BC
:102570008E778093E80004DD8823A1F301C082E018
:10258000CF911F910F9108952BB5243041F5FC0197
:102590004489558966897789452B462B472BF9F065
:1025A00081818F708093E9002091F3008091F20087
:1025B00090E0922B892B89F09091E8008091E800BF
:1025C0008E778093E80095FD08C0DADC811108C0A1
:1025D0008091E8008E778093E80080E0089582E0A3
:1025E00008952BB5243089F4FC0144895589668906
:1025F0007789452B462B472B41F021812F70209363
:10260000E9002091E80020FDBFCF08952BB52430CC
:1026100019F08FEF9FEF0895FC0144895589668971
:102620007789452B462B472BA1F386818F708093AA
:10263000E9008091E80082FFECCF2091F3008091C7
:10264000F20090E0922B892B21F02091F10030E0F4
:1026500002C02FEF3FEF4091F3008091F20090E035
:10266000942B892B29F48091E8008B778093E800E4
:10267000C90108950895CF93DF93EC018091E8009C
:1026800083FFA7C0888190E020917D0230917E0277
:102690002817390709F09DC080917A02813261F0D4
:1026A00020F4803209F43EC094C0823209F46CC038
:1026B000833209F47EC08DC080917902813A09F09D
:1026C00088C08091E800877F8093E8008091E800CF
:1026D00080FFFCCF8C899D89AE89BF898093F100F2
:1026E000492F5A2F6B2F77274093F100AD016627B2
:1026F00077274093F1008B2F9927AA27BB27809338
:10270000F100888D8093F100898D8093F1008A8D8E
:102710008093F1008091E8008E778093E800DF914C
:10272000CF9111CC80917902813209F052C0809111
:10273000E800877F8093E8008091E80082FD04C074
:102740008BB58111F9CF45C03091F1002091F10096
:102750009091F1008091F1003C8B2D8B9E8B8F8BA3
:102760008091F100888F8091F100898F8091F10034
:102770008A8F8091E8008B778093E800E4DBCE01BC
:10278000DF91CF910C94AF0A80917902813209F5E3
:102790008091E800877F8093E800D5DB80917B0201
:1027A00090917C02998B888BCE01DF91CF910C9414
:1027B000A70A80917902813261F48091E800877FD5
:1027C0008093E800C0DB60917B02CE01DF91CF9166
:1027D00051CFDF91CF910895CF93DF93EC011B860A
:1027E00082E08C83898761E0CE01019664DB8823D7
:1027F00031F061E0CE010696DF91CF915CCB80E0B5
:10280000DF91CF9108952BB52430D1F49B01FC01C9
:1028100081818F708093E90040E050E064E070E0D7
:10282000C90149D981110FC09091E800892F8072A8
:1028300095FD08C09091E8009E779093E800089578
:1028400082E0089580E008952BB5243099F4FC01CE
:1028500081818F708093E9002091F3008091F200D4
:1028600090E0922B892B41F08091E8008E77809345
:10287000E80086CB82E0089580E00895FC018BB5E6
:10288000843051F491819F709093E9008091E80029
:1028900080FF02C0CF01D8CF08952BB5243011F0AE
:1028A00080E00895FC0186818F708093E90080911B
:1028B000E80082FFF5CF8091E80085FFF1CFCB01E2
:1028C00040E050E064E070E040D98091E80085FD90
:1028D00005C08091E8008B778093E80081E008953F
:1028E000A1E21A2EAA1BBB1BFD010DC0AA1FBB1F14
:1028F000EE1FFF1FA217B307E407F50720F0A21B86
:10290000B30BE40BF50B661F771F881F991F1A94F2
:1029100069F760957095809590959B01AC01BD011C
:10292000CF010895EE0FFF1F0590F491E02D09945B
:102930000F931F93CF93DF93869F8001879F100D86
:10294000969F100D1124C8010DD0EC01009721F0C5
:10295000A80160E070E049D1CE01DF91CF911F91D5
:102960000F910895CF93DF938230910510F482E0A8
:1029700090E0E0918302F091840220E030E0C0E03A
:10298000D0E0309711F14081518148175907C0F0CC
:102990004817590761F482819381209719F09B832E
:1029A0008A832BC0909384028093830226C02115D2
:1029B000310519F04217530718F49A01BE01DF01DF
:1029C000EF010280F381E02DDCCF2115310509F103
:1029D000281B390B2430310590F412968D919C916F
:1029E00013976115710521F0FB019383828304C065
:1029F0009093840280938302FD01329644C0FD01CE
:102A0000E20FF31F81939193225031092D933C9350
:102A10003AC02091810230918202232B41F420910F
:102A20003D0130913E01309382022093810220913A
:102A30003B0130913C012115310541F42DB73EB7E2
:102A400040913F0150914001241B350BE0918102E0
:102A5000F0918202E217F307A0F42E1B3F0B281718
:102A6000390778F0AC014E5F5F4F2417350748F007
:102A70004E0F5F1F50938202409381028193919386
:102A800002C0E0E0F0E0CF01DF91CF9108950F9315
:102A90001F93CF93DF93009709F48CC0FC0132970A
:102AA0001382128200918302109184020115110594
:102AB00081F420813181820F931F20918102309116
:102AC00082022817390779F5F0938202E093810298
:102AD00071C0D80140E050E0AE17BF0750F4129625
:102AE0002D913C911397AD012115310509F1D901C3
:102AF000F3CF9D01DA013383228360817181860FD8
:102B0000971F8217930769F4EC0128813981260FFA
:102B1000371F2E5F3F4F318320838A819B819383B0
:102B20008283452B29F4F0938402E093830242C010
:102B30001396FC93EE931297ED01499159919E01E2
:102B4000240F351FE217F30771F480819181840F00
:102B5000951F029611969C938E9382819381139672
:102B60009C938E931297E0E0F0E0D80112968D913D
:102B70009C911397009719F0F8018C01F6CF8D9175
:102B80009C9198012E5F3F4F820F931F20918102ED
:102B9000309182022817390769F4309729F410928E
:102BA00084021092830202C0138212821093820266
:102BB00000938102DF91CF911F910F910895FB0146
:102BC000DC0104C08D910190801921F441505040E6
:102BD000C8F7881B990B0895FB01DC0102C0019026
:102BE0000D9241505040D8F70895DC0101C06D931B
:102BF00041505040E0F70895BB274A3031F4992303
:102C000022F4BDE2909581959F4F01C0BB27FB0147
:102C10005527AA27880F991FAA1FA41710F0A41BD5
:102C200083955051B9F7A05DAA3308F0A95DA1932F
:102C3000009779F7B111B1931192CB0100C0DC017B
:102C4000FC01672F71917723E1F7329704C07C91E3
:102C50006D9370836291AE17BF07C8F30895DC01CE
:102C6000CB01FC01F999FECF06C0F2BDE1BDF89A97
:102C7000319600B40D9241505040B8F70895F9993B
:102C8000FECF92BD81BDF89A992780B50895DC01E9
:102C9000CB0102C02D9105D041505040D8F7089586
:102CA000262FF999FECF1FBA92BD81BD20BD0FB668
:102CB000F894FA9AF99A0FBE0196089512E0CEE3BD
:102CC000D2E003C0FE012EDE2196CF33D107D1F72B
:042CD000F894FFCFA6
:102CD400010100834000000104400000018208005B
:102CE400000100000000000000000000000181104D
:102CF4000000010210000001001201100100000098
:102D040008122967190100010200010000850280F0
:102D14000003030303020203000203020000010094
:102D24004D444B0055005300420020004D00690003
:102D3400640069004B006C0069004B0020004200F5
:102D4400750069006C0064002D00390039003800FA
:022D540000007D
:00000001FF
